{
  "contractName": "FlashLoanerEth",
  "abi": [
    {
      "inputs": [
        {
          "internalType": "address",
          "name": "_factory",
          "type": "address"
        },
        {
          "internalType": "address",
          "name": "uniPair",
          "type": "address"
        },
        {
          "internalType": "address",
          "name": "_sushiRouter",
          "type": "address"
        }
      ],
      "stateMutability": "nonpayable",
      "type": "constructor"
    },
    {
      "inputs": [
        {
          "internalType": "address",
          "name": "_sender",
          "type": "address"
        },
        {
          "internalType": "uint256",
          "name": "_amount0",
          "type": "uint256"
        },
        {
          "internalType": "uint256",
          "name": "_amount1",
          "type": "uint256"
        },
        {
          "internalType": "bytes",
          "name": "_data",
          "type": "bytes"
        }
      ],
      "name": "uniswapV2Call",
      "outputs": [],
      "stateMutability": "nonpayable",
      "type": "function"
    },
    {
      "inputs": [
        {
          "internalType": "address",
          "name": "factorySushi",
          "type": "address"
        },
        {
          "internalType": "address",
          "name": "uniPair",
          "type": "address"
        },
        {
          "internalType": "uint256",
          "name": "_amount0",
          "type": "uint256"
        },
        {
          "internalType": "uint256",
          "name": "_amount1",
          "type": "uint256"
        }
      ],
      "name": "guessProfit",
      "outputs": [
        {
          "internalType": "uint256",
          "name": "profit",
          "type": "uint256"
        }
      ],
      "stateMutability": "view",
      "type": "function",
      "constant": true
    },
    {
      "inputs": [
        {
          "internalType": "address",
          "name": "factorySushi",
          "type": "address"
        },
        {
          "internalType": "address",
          "name": "uniPair",
          "type": "address"
        },
        {
          "internalType": "uint256",
          "name": "_amount0",
          "type": "uint256"
        },
        {
          "internalType": "uint256",
          "name": "_amount1",
          "type": "uint256"
        }
      ],
      "name": "getUniRequired",
      "outputs": [
        {
          "internalType": "uint256",
          "name": "re",
          "type": "uint256"
        }
      ],
      "stateMutability": "view",
      "type": "function",
      "constant": true
    },
    {
      "inputs": [
        {
          "internalType": "address",
          "name": "factorySushi",
          "type": "address"
        },
        {
          "internalType": "address",
          "name": "uniPair",
          "type": "address"
        },
        {
          "internalType": "uint256",
          "name": "_amount0",
          "type": "uint256"
        },
        {
          "internalType": "uint256",
          "name": "_amount1",
          "type": "uint256"
        }
      ],
      "name": "getSushiReturned",
      "outputs": [
        {
          "internalType": "uint256",
          "name": "re",
          "type": "uint256"
        }
      ],
      "stateMutability": "view",
      "type": "function",
      "constant": true
    },
    {
      "inputs": [
        {
          "internalType": "address",
          "name": "factorySushi",
          "type": "address"
        },
        {
          "internalType": "address",
          "name": "uniPair",
          "type": "address"
        },
        {
          "internalType": "uint256",
          "name": "_amount0",
          "type": "uint256"
        },
        {
          "internalType": "uint256",
          "name": "_amount1",
          "type": "uint256"
        }
      ],
      "name": "getUniReturned",
      "outputs": [
        {
          "internalType": "uint256",
          "name": "re",
          "type": "uint256"
        }
      ],
      "stateMutability": "view",
      "type": "function",
      "constant": true
    },
    {
      "inputs": [
        {
          "internalType": "address",
          "name": "factorySushi",
          "type": "address"
        },
        {
          "internalType": "address",
          "name": "uniPair",
          "type": "address"
        },
        {
          "internalType": "uint256",
          "name": "_amount0",
          "type": "uint256"
        },
        {
          "internalType": "uint256",
          "name": "_amount1",
          "type": "uint256"
        }
      ],
      "name": "getaddress",
      "outputs": [
        {
          "internalType": "address",
          "name": "re1",
          "type": "address"
        },
        {
          "internalType": "address",
          "name": "re2",
          "type": "address"
        }
      ],
      "stateMutability": "view",
      "type": "function",
      "constant": true
    },
    {
      "inputs": [
        {
          "internalType": "address",
          "name": "factorySushi",
          "type": "address"
        },
        {
          "internalType": "address",
          "name": "uniPair",
          "type": "address"
        },
        {
          "internalType": "uint256",
          "name": "_amount0",
          "type": "uint256"
        },
        {
          "internalType": "uint256",
          "name": "_amount1",
          "type": "uint256"
        }
      ],
      "name": "getaddressR",
      "outputs": [
        {
          "internalType": "address",
          "name": "re1",
          "type": "address"
        },
        {
          "internalType": "address",
          "name": "re2",
          "type": "address"
        }
      ],
      "stateMutability": "view",
      "type": "function",
      "constant": true
    },
    {
      "inputs": [
        {
          "internalType": "address",
          "name": "factorySushi",
          "type": "address"
        },
        {
          "internalType": "address",
          "name": "uniPair",
          "type": "address"
        },
        {
          "internalType": "uint256",
          "name": "_amount0",
          "type": "uint256"
        },
        {
          "internalType": "uint256",
          "name": "_amount1",
          "type": "uint256"
        }
      ],
      "name": "getaddressS",
      "outputs": [
        {
          "internalType": "address",
          "name": "re",
          "type": "address"
        }
      ],
      "stateMutability": "view",
      "type": "function",
      "constant": true
    },
    {
      "inputs": [
        {
          "internalType": "address",
          "name": "factorySushi",
          "type": "address"
        },
        {
          "internalType": "address",
          "name": "uniPair",
          "type": "address"
        },
        {
          "internalType": "uint256",
          "name": "_amount0",
          "type": "uint256"
        },
        {
          "internalType": "uint256",
          "name": "_amount1",
          "type": "uint256"
        }
      ],
      "name": "getaddressU",
      "outputs": [
        {
          "internalType": "address",
          "name": "re",
          "type": "address"
        }
      ],
      "stateMutability": "view",
      "type": "function",
      "constant": true
    },
    {
      "inputs": [
        {
          "internalType": "address",
          "name": "factorySushi",
          "type": "address"
        },
        {
          "internalType": "address",
          "name": "uniPair",
          "type": "address"
        },
        {
          "internalType": "uint256",
          "name": "_amount0",
          "type": "uint256"
        },
        {
          "internalType": "uint256",
          "name": "_amount1",
          "type": "uint256"
        }
      ],
      "name": "getaddressS2",
      "outputs": [
        {
          "internalType": "address",
          "name": "re",
          "type": "address"
        }
      ],
      "stateMutability": "view",
      "type": "function",
      "constant": true
    },
    {
      "inputs": [
        {
          "internalType": "address",
          "name": "factorySushi",
          "type": "address"
        },
        {
          "internalType": "address",
          "name": "uniPair",
          "type": "address"
        },
        {
          "internalType": "uint256",
          "name": "_amount0",
          "type": "uint256"
        },
        {
          "internalType": "uint256",
          "name": "_amount1",
          "type": "uint256"
        }
      ],
      "name": "getaddressF",
      "outputs": [
        {
          "internalType": "address",
          "name": "re1",
          "type": "address"
        },
        {
          "internalType": "address",
          "name": "re2",
          "type": "address"
        }
      ],
      "stateMutability": "view",
      "type": "function",
      "constant": true
    }
  ],
  "bytecode": "0x60e060405234801561001057600080fd5b50604051613a5b380380613a5b8339818101604052606081101561003357600080fd5b810190808051906020019092919080519060200190929190805190602001909291905050508273ffffffffffffffffffffffffffffffffffffffff1660808173ffffffffffffffffffffffffffffffffffffffff1660601b815250508073ffffffffffffffffffffffffffffffffffffffff1660c08173ffffffffffffffffffffffffffffffffffffffff1660601b815250508173ffffffffffffffffffffffffffffffffffffffff1660a08173ffffffffffffffffffffffffffffffffffffffff1660601b8152505050505060805160601c60a05160601c60c05160601c6138e061017b60003980610cac5280610db852508061121b5280611c055280611d795280612821525080610a2e5280610d78528061140952806116325280611673528061199b5280611bc45280611f5f528061218652806125b552806127de52506138e06000f3fe608060405234801561001057600080fd5b50600436106100a95760003560e01c806397b2af441161007157806397b2af44146103e3578063a1d8668a1461049b578063e1764cd814610586578063f0d511a214610612578063fa1c5de2146106fd578063ff59d804146107e8576100a9565b806310d1e85c146100ae5780632ba3dcce1461015b5780632f7b8c9c14610213578063370a59e51461029f5780637ada88ee14610357575b600080fd5b610159600480360360808110156100c457600080fd5b81019080803573ffffffffffffffffffffffffffffffffffffffff16906020019092919080359060200190929190803590602001909291908035906020019064010000000081111561011557600080fd5b82018360208201111561012757600080fd5b8035906020019184600183028401116401000000008311171561014957600080fd5b9091929391929390505050610874565b005b6101d16004803603608081101561017157600080fd5b81019080803573ffffffffffffffffffffffffffffffffffffffff169060200190929190803573ffffffffffffffffffffffffffffffffffffffff169060200190929190803590602001909291908035906020019092919050505061110b565b604051808273ffffffffffffffffffffffffffffffffffffffff1673ffffffffffffffffffffffffffffffffffffffff16815260200191505060405180910390f35b6102896004803603608081101561022957600080fd5b81019080803573ffffffffffffffffffffffffffffffffffffffff169060200190929190803573ffffffffffffffffffffffffffffffffffffffff169060200190929190803590602001909291908035906020019092919050505061124d565b6040518082815260200191505060405180910390f35b610315600480360360808110156102b557600080fd5b81019080803573ffffffffffffffffffffffffffffffffffffffff169060200190929190803573ffffffffffffffffffffffffffffffffffffffff16906020019092919080359060200190929190803590602001909291905050506116bd565b604051808273ffffffffffffffffffffffffffffffffffffffff1673ffffffffffffffffffffffffffffffffffffffff16815260200191505060405180910390f35b6103cd6004803603608081101561036d57600080fd5b81019080803573ffffffffffffffffffffffffffffffffffffffff169060200190929190803573ffffffffffffffffffffffffffffffffffffffff16906020019092919080359060200190929190803590602001909291905050506117df565b6040518082815260200191505060405180910390f35b610459600480360360808110156103f957600080fd5b81019080803573ffffffffffffffffffffffffffffffffffffffff169060200190929190803573ffffffffffffffffffffffffffffffffffffffff1690602001909291908035906020019092919080359060200190929190505050611c4f565b604051808273ffffffffffffffffffffffffffffffffffffffff1673ffffffffffffffffffffffffffffffffffffffff16815260200191505060405180910390f35b610511600480360360808110156104b157600080fd5b81019080803573ffffffffffffffffffffffffffffffffffffffff169060200190929190803573ffffffffffffffffffffffffffffffffffffffff1690602001909291908035906020019092919080359060200190929190505050611d71565b604051808373ffffffffffffffffffffffffffffffffffffffff1673ffffffffffffffffffffffffffffffffffffffff1681526020018273ffffffffffffffffffffffffffffffffffffffff1673ffffffffffffffffffffffffffffffffffffffff1681526020019250505060405180910390f35b6105fc6004803603608081101561059c57600080fd5b81019080803573ffffffffffffffffffffffffffffffffffffffff169060200190929190803573ffffffffffffffffffffffffffffffffffffffff1690602001909291908035906020019092919080359060200190929190505050611da3565b6040518082815260200191505060405180910390f35b6106886004803603608081101561062857600080fd5b81019080803573ffffffffffffffffffffffffffffffffffffffff169060200190929190803573ffffffffffffffffffffffffffffffffffffffff16906020019092919080359060200190929190803590602001909291905050506121cf565b604051808373ffffffffffffffffffffffffffffffffffffffff1673ffffffffffffffffffffffffffffffffffffffff1681526020018273ffffffffffffffffffffffffffffffffffffffff1673ffffffffffffffffffffffffffffffffffffffff1681526020019250505060405180910390f35b6107736004803603608081101561071357600080fd5b81019080803573ffffffffffffffffffffffffffffffffffffffff169060200190929190803573ffffffffffffffffffffffffffffffffffffffff16906020019092919080359060200190929190803590602001909291905050506122e7565b604051808373ffffffffffffffffffffffffffffffffffffffff1673ffffffffffffffffffffffffffffffffffffffff1681526020018273ffffffffffffffffffffffffffffffffffffffff1673ffffffffffffffffffffffffffffffffffffffff1681526020019250505060405180910390f35b61085e600480360360808110156107fe57600080fd5b81019080803573ffffffffffffffffffffffffffffffffffffffff169060200190929190803573ffffffffffffffffffffffffffffffffffffffff16906020019092919080359060200190929190803590602001909291905050506123f9565b6040518082815260200191505060405180910390f35b6060600267ffffffffffffffff8111801561088e57600080fd5b506040519080825280602002602001820160405280156108bd5781602001602082028036833780820191505090505b5090506060600267ffffffffffffffff811180156108da57600080fd5b506040519080825280602002602001820160405280156109095781602001602082028036833780820191505090505b509050600080871461091b578661091d565b855b905060003373ffffffffffffffffffffffffffffffffffffffff16630dfe16816040518163ffffffff1660e01b815260040160206040518083038186803b15801561096757600080fd5b505afa15801561097b573d6000803e3d6000fd5b505050506040513d602081101561099157600080fd5b8101908080519060200190929190505050905060003373ffffffffffffffffffffffffffffffffffffffff1663d21220a76040518163ffffffff1660e01b815260040160206040518083038186803b1580156109ec57600080fd5b505afa158015610a00573d6000803e3d6000fd5b505050506040513d6020811015610a1657600080fd5b81019080805190602001909291905050509050610a547f00000000000000000000000000000000000000000000000000000000000000008383612890565b73ffffffffffffffffffffffffffffffffffffffff163373ffffffffffffffffffffffffffffffffffffffff1614610af4576040517f08c379a000000000000000000000000000000000000000000000000000000000815260040180806020018281038252600c8152602001807f556e617574686f72697a6564000000000000000000000000000000000000000081525060200191505060405180910390fd5b6000891480610b035750600088145b610b0c57600080fd5b60008914610b1a5780610b1c565b815b84600081518110610b2957fe5b602002602001019073ffffffffffffffffffffffffffffffffffffffff16908173ffffffffffffffffffffffffffffffffffffffff168152505060008914610b715781610b73565b805b84600181518110610b8057fe5b602002602001019073ffffffffffffffffffffffffffffffffffffffff16908173ffffffffffffffffffffffffffffffffffffffff168152505060008914610bc85781610bca565b805b85600081518110610bd757fe5b602002602001019073ffffffffffffffffffffffffffffffffffffffff16908173ffffffffffffffffffffffffffffffffffffffff168152505060008914610c1f5780610c21565b815b85600181518110610c2e57fe5b602002602001019073ffffffffffffffffffffffffffffffffffffffff16908173ffffffffffffffffffffffffffffffffffffffff16815250506000808a14610c775782610c79565b815b90506000808b14610c8a5782610c8c565b835b90508173ffffffffffffffffffffffffffffffffffffffff1663095ea7b37f0000000000000000000000000000000000000000000000000000000000000000876040518363ffffffff1660e01b8152600401808373ffffffffffffffffffffffffffffffffffffffff1673ffffffffffffffffffffffffffffffffffffffff16815260200182815260200192505050602060405180830381600087803b158015610d3557600080fd5b505af1158015610d49573d6000803e3d6000fd5b505050506040513d6020811015610d5f57600080fd5b8101908080519060200190929190505050506000610d9e7f000000000000000000000000000000000000000000000000000000000000000087896129eb565b600081518110610daa57fe5b6020026020010151905060007f000000000000000000000000000000000000000000000000000000000000000073ffffffffffffffffffffffffffffffffffffffff16638803dbee83898c337fffffffffffffffffffffffffffffffffffffffffffffffffffffffffffffffff6040518663ffffffff1660e01b815260040180868152602001858152602001806020018473ffffffffffffffffffffffffffffffffffffffff1673ffffffffffffffffffffffffffffffffffffffff168152602001838152602001828103825285818151815260200191508051906020019060200280838360005b83811015610ead578082015181840152602081019050610e92565b505050509050019650505050505050600060405180830381600087803b158015610ed657600080fd5b505af1158015610eea573d6000803e3d6000fd5b505050506040513d6000823e3d601f19601f820116820180604052506020811015610f1457600080fd5b8101908080516040519392919084640100000000821115610f3457600080fd5b83820191506020820185811115610f4a57600080fd5b8251866020820283011164010000000082111715610f6757600080fd5b8083526020830192505050908051906020019060200280838360005b83811015610f9e578082015181840152602081019050610f83565b50505050905001604052505050600081518110610fb757fe5b60200260200101519050808711611036576040517f08c379a00000000000000000000000000000000000000000000000000000000081526004018080602001828103825260098152602001807f4e6f2050726f666974000000000000000000000000000000000000000000000081525060200191505060405180910390fd5b8373ffffffffffffffffffffffffffffffffffffffff1663a9059cbb8f838a036040518363ffffffff1660e01b8152600401808373ffffffffffffffffffffffffffffffffffffffff1673ffffffffffffffffffffffffffffffffffffffff16815260200182815260200192505050602060405180830381600087803b1580156110bf57600080fd5b505af11580156110d3573d6000803e3d6000fd5b505050506040513d60208110156110e957600080fd5b8101908080519060200190929190505050505050505050505050505050505050565b6000808473ffffffffffffffffffffffffffffffffffffffff16630dfe16816040518163ffffffff1660e01b815260040160206040518083038186803b15801561115457600080fd5b505afa158015611168573d6000803e3d6000fd5b505050506040513d602081101561117e57600080fd5b8101908080519060200190929190505050905060008573ffffffffffffffffffffffffffffffffffffffff1663d21220a76040518163ffffffff1660e01b815260040160206040518083038186803b1580156111d957600080fd5b505afa1580156111ed573d6000803e3d6000fd5b505050506040513d602081101561120357600080fd5b810190808051906020019092919050505090506112417f00000000000000000000000000000000000000000000000000000000000000008383612b6b565b92505050949350505050565b60006060600267ffffffffffffffff8111801561126957600080fd5b506040519080825280602002602001820160405280156112985781602001602082028036833780820191505090505b5090506060600267ffffffffffffffff811180156112b557600080fd5b506040519080825280602002602001820160405280156112e45781602001602082028036833780820191505090505b50905060008086146112f657856112f8565b845b905060008773ffffffffffffffffffffffffffffffffffffffff16630dfe16816040518163ffffffff1660e01b815260040160206040518083038186803b15801561134257600080fd5b505afa158015611356573d6000803e3d6000fd5b505050506040513d602081101561136c57600080fd5b8101908080519060200190929190505050905060008873ffffffffffffffffffffffffffffffffffffffff1663d21220a76040518163ffffffff1660e01b815260040160206040518083038186803b1580156113c757600080fd5b505afa1580156113db573d6000803e3d6000fd5b505050506040513d60208110156113f157600080fd5b8101908080519060200190929190505050905061142f7f00000000000000000000000000000000000000000000000000000000000000008383612890565b73ffffffffffffffffffffffffffffffffffffffff168973ffffffffffffffffffffffffffffffffffffffff16146114cf576040517f08c379a000000000000000000000000000000000000000000000000000000000815260040180806020018281038252600c8152602001807f556e617574686f72697a6564000000000000000000000000000000000000000081525060200191505060405180910390fd5b600088146114dd57806114df565b815b846000815181106114ec57fe5b602002602001019073ffffffffffffffffffffffffffffffffffffffff16908173ffffffffffffffffffffffffffffffffffffffff1681525050600088146115345781611536565b805b8460018151811061154357fe5b602002602001019073ffffffffffffffffffffffffffffffffffffffff16908173ffffffffffffffffffffffffffffffffffffffff16815250506000881461158b578161158d565b805b8560008151811061159a57fe5b602002602001019073ffffffffffffffffffffffffffffffffffffffff16908173ffffffffffffffffffffffffffffffffffffffff1681525050600088146115e257806115e4565b815b856001815181106115f157fe5b602002602001019073ffffffffffffffffffffffffffffffffffffffff16908173ffffffffffffffffffffffffffffffffffffffff168152505060006116587f000000000000000000000000000000000000000000000000000000000000000085876129eb565b60008151811061166457fe5b602002602001015190506116997f000000000000000000000000000000000000000000000000000000000000000082886129eb565b6000815181106116a557fe5b60200260200101519650505050505050949350505050565b6000808473ffffffffffffffffffffffffffffffffffffffff16630dfe16816040518163ffffffff1660e01b815260040160206040518083038186803b15801561170657600080fd5b505afa15801561171a573d6000803e3d6000fd5b505050506040513d602081101561173057600080fd5b8101908080519060200190929190505050905060008573ffffffffffffffffffffffffffffffffffffffff1663d21220a76040518163ffffffff1660e01b815260040160206040518083038186803b15801561178b57600080fd5b505afa15801561179f573d6000803e3d6000fd5b505050506040513d60208110156117b557600080fd5b810190808051906020019092919050505090506117d3878383612890565b92505050949350505050565b60006060600267ffffffffffffffff811180156117fb57600080fd5b5060405190808252806020026020018201604052801561182a5781602001602082028036833780820191505090505b5090506060600267ffffffffffffffff8111801561184757600080fd5b506040519080825280602002602001820160405280156118765781602001602082028036833780820191505090505b5090506000808614611888578561188a565b845b905060008773ffffffffffffffffffffffffffffffffffffffff16630dfe16816040518163ffffffff1660e01b815260040160206040518083038186803b1580156118d457600080fd5b505afa1580156118e8573d6000803e3d6000fd5b505050506040513d60208110156118fe57600080fd5b8101908080519060200190929190505050905060008873ffffffffffffffffffffffffffffffffffffffff1663d21220a76040518163ffffffff1660e01b815260040160206040518083038186803b15801561195957600080fd5b505afa15801561196d573d6000803e3d6000fd5b505050506040513d602081101561198357600080fd5b810190808051906020019092919050505090506119c17f00000000000000000000000000000000000000000000000000000000000000008383612890565b73ffffffffffffffffffffffffffffffffffffffff168973ffffffffffffffffffffffffffffffffffffffff1614611a61576040517f08c379a000000000000000000000000000000000000000000000000000000000815260040180806020018281038252600c8152602001807f556e617574686f72697a6564000000000000000000000000000000000000000081525060200191505060405180910390fd5b60008814611a6f5780611a71565b815b84600081518110611a7e57fe5b602002602001019073ffffffffffffffffffffffffffffffffffffffff16908173ffffffffffffffffffffffffffffffffffffffff168152505060008814611ac65781611ac8565b805b84600181518110611ad557fe5b602002602001019073ffffffffffffffffffffffffffffffffffffffff16908173ffffffffffffffffffffffffffffffffffffffff168152505060008814611b1d5781611b1f565b805b85600081518110611b2c57fe5b602002602001019073ffffffffffffffffffffffffffffffffffffffff16908173ffffffffffffffffffffffffffffffffffffffff168152505060008814611b745780611b76565b815b85600181518110611b8357fe5b602002602001019073ffffffffffffffffffffffffffffffffffffffff16908173ffffffffffffffffffffffffffffffffffffffff16815250506000611bea7f000000000000000000000000000000000000000000000000000000000000000085876129eb565b600081518110611bf657fe5b60200260200101519050611c2b7f00000000000000000000000000000000000000000000000000000000000000008288612cc6565b600081518110611c3757fe5b60200260200101519650505050505050949350505050565b6000808473ffffffffffffffffffffffffffffffffffffffff16630dfe16816040518163ffffffff1660e01b815260040160206040518083038186803b158015611c9857600080fd5b505afa158015611cac573d6000803e3d6000fd5b505050506040513d6020811015611cc257600080fd5b8101908080519060200190929190505050905060008573ffffffffffffffffffffffffffffffffffffffff1663d21220a76040518163ffffffff1660e01b815260040160206040518083038186803b158015611d1d57600080fd5b505afa158015611d31573d6000803e3d6000fd5b505050506040513d6020811015611d4757600080fd5b81019080805190602001909291905050509050611d65878383612b6b565b92505050949350505050565b6000808591507f0000000000000000000000000000000000000000000000000000000000000000905094509492505050565b60006060600267ffffffffffffffff81118015611dbf57600080fd5b50604051908082528060200260200182016040528015611dee5781602001602082028036833780820191505090505b5090506060600267ffffffffffffffff81118015611e0b57600080fd5b50604051908082528060200260200182016040528015611e3a5781602001602082028036833780820191505090505b5090506000808614611e4c5785611e4e565b845b905060008773ffffffffffffffffffffffffffffffffffffffff16630dfe16816040518163ffffffff1660e01b815260040160206040518083038186803b158015611e9857600080fd5b505afa158015611eac573d6000803e3d6000fd5b505050506040513d6020811015611ec257600080fd5b8101908080519060200190929190505050905060008873ffffffffffffffffffffffffffffffffffffffff1663d21220a76040518163ffffffff1660e01b815260040160206040518083038186803b158015611f1d57600080fd5b505afa158015611f31573d6000803e3d6000fd5b505050506040513d6020811015611f4757600080fd5b81019080805190602001909291905050509050611f857f00000000000000000000000000000000000000000000000000000000000000008383612890565b73ffffffffffffffffffffffffffffffffffffffff168973ffffffffffffffffffffffffffffffffffffffff1614612025576040517f08c379a000000000000000000000000000000000000000000000000000000000815260040180806020018281038252600c8152602001807f556e617574686f72697a6564000000000000000000000000000000000000000081525060200191505060405180910390fd5b600088146120335780612035565b815b8460008151811061204257fe5b602002602001019073ffffffffffffffffffffffffffffffffffffffff16908173ffffffffffffffffffffffffffffffffffffffff16815250506000881461208a578161208c565b805b8460018151811061209957fe5b602002602001019073ffffffffffffffffffffffffffffffffffffffff16908173ffffffffffffffffffffffffffffffffffffffff1681525050600088146120e157816120e3565b805b856000815181106120f057fe5b602002602001019073ffffffffffffffffffffffffffffffffffffffff16908173ffffffffffffffffffffffffffffffffffffffff168152505060008814612138578061213a565b815b8560018151811061214757fe5b602002602001019073ffffffffffffffffffffffffffffffffffffffff16908173ffffffffffffffffffffffffffffffffffffffff16815250506121ac7f000000000000000000000000000000000000000000000000000000000000000084866129eb565b6000815181106121b857fe5b602002602001015195505050505050949350505050565b60008060008573ffffffffffffffffffffffffffffffffffffffff16630dfe16816040518163ffffffff1660e01b815260040160206040518083038186803b15801561221a57600080fd5b505afa15801561222e573d6000803e3d6000fd5b505050506040513d602081101561224457600080fd5b8101908080519060200190929190505050905060008673ffffffffffffffffffffffffffffffffffffffff1663d21220a76040518163ffffffff1660e01b815260040160206040518083038186803b15801561229f57600080fd5b505afa1580156122b3573d6000803e3d6000fd5b505050506040513d60208110156122c957600080fd5b81019080805190602001909291905050509050505094509492505050565b6000808473ffffffffffffffffffffffffffffffffffffffff16630dfe16816040518163ffffffff1660e01b815260040160206040518083038186803b15801561233057600080fd5b505afa158015612344573d6000803e3d6000fd5b505050506040513d602081101561235a57600080fd5b810190808051906020019092919050505091508473ffffffffffffffffffffffffffffffffffffffff1663d21220a76040518163ffffffff1660e01b815260040160206040518083038186803b1580156123b357600080fd5b505afa1580156123c7573d6000803e3d6000fd5b505050506040513d60208110156123dd57600080fd5b8101908080519060200190929190505050905094509492505050565b60006060600267ffffffffffffffff8111801561241557600080fd5b506040519080825280602002602001820160405280156124445781602001602082028036833780820191505090505b5090506060600267ffffffffffffffff8111801561246157600080fd5b506040519080825280602002602001820160405280156124905781602001602082028036833780820191505090505b50905060008086146124a257856124a4565b845b905060008773ffffffffffffffffffffffffffffffffffffffff16630dfe16816040518163ffffffff1660e01b815260040160206040518083038186803b1580156124ee57600080fd5b505afa158015612502573d6000803e3d6000fd5b505050506040513d602081101561251857600080fd5b8101908080519060200190929190505050905060008873ffffffffffffffffffffffffffffffffffffffff1663d21220a76040518163ffffffff1660e01b815260040160206040518083038186803b15801561257357600080fd5b505afa158015612587573d6000803e3d6000fd5b505050506040513d602081101561259d57600080fd5b810190808051906020019092919050505090506125db7f00000000000000000000000000000000000000000000000000000000000000008383612890565b73ffffffffffffffffffffffffffffffffffffffff168973ffffffffffffffffffffffffffffffffffffffff161461267b576040517f08c379a000000000000000000000000000000000000000000000000000000000815260040180806020018281038252600c8152602001807f556e617574686f72697a6564000000000000000000000000000000000000000081525060200191505060405180910390fd5b60008814612689578061268b565b815b8460008151811061269857fe5b602002602001019073ffffffffffffffffffffffffffffffffffffffff16908173ffffffffffffffffffffffffffffffffffffffff1681525050600088146126e057816126e2565b805b846001815181106126ef57fe5b602002602001019073ffffffffffffffffffffffffffffffffffffffff16908173ffffffffffffffffffffffffffffffffffffffff1681525050600088146127375781612739565b805b8560008151811061274657fe5b602002602001019073ffffffffffffffffffffffffffffffffffffffff16908173ffffffffffffffffffffffffffffffffffffffff16815250506000881461278e5780612790565b815b8560018151811061279d57fe5b602002602001019073ffffffffffffffffffffffffffffffffffffffff16908173ffffffffffffffffffffffffffffffffffffffff168152505060006128047f000000000000000000000000000000000000000000000000000000000000000085876129eb565b60008151811061281057fe5b6020026020010151905060006128477f00000000000000000000000000000000000000000000000000000000000000008389612cc6565b60008151811061285357fe5b6020026020010151905080851161286b57600061287f565b61287e8186612e4690919063ffffffff16565b5b975050505050505050949350505050565b600080600061289f8585612ec9565b91509150858282604051602001808373ffffffffffffffffffffffffffffffffffffffff1673ffffffffffffffffffffffffffffffffffffffff1660601b81526014018273ffffffffffffffffffffffffffffffffffffffff1673ffffffffffffffffffffffffffffffffffffffff1660601b8152601401925050506040516020818303038152906040528051906020012060405160200180807fff000000000000000000000000000000000000000000000000000000000000008152506001018373ffffffffffffffffffffffffffffffffffffffff1673ffffffffffffffffffffffffffffffffffffffff1660601b8152601401828152602001807f96e8ac4277198ff8b6f785478aa9a39f403cb768dd02cbee326c3e7da348845f815250602001925050506040516020818303038152906040528051906020012060001c925050509392505050565b6060600282511015612a65576040517f08c379a000000000000000000000000000000000000000000000000000000000815260040180806020018281038252601e8152602001807f556e697377617056324c6962726172793a20494e56414c49445f50415448000081525060200191505060405180910390fd5b815167ffffffffffffffff81118015612a7d57600080fd5b50604051908082528060200260200182016040528015612aac5781602001602082028036833780820191505090505b5090508281600183510381518110612ac057fe5b6020026020010181815250506000600183510390505b6000811115612b6357600080612b1687866001860381518110612af557fe5b6020026020010151878681518110612b0957fe5b6020026020010151613040565b91509150612b38848481518110612b2957fe5b60200260200101518383613169565b846001850381518110612b4757fe5b6020026020010181815250505050808060019003915050612ad6565b509392505050565b6000806000612b7a85856132a6565b91509150858282604051602001808373ffffffffffffffffffffffffffffffffffffffff1673ffffffffffffffffffffffffffffffffffffffff1660601b81526014018273ffffffffffffffffffffffffffffffffffffffff1673ffffffffffffffffffffffffffffffffffffffff1660601b8152601401925050506040516020818303038152906040528051906020012060405160200180807fff000000000000000000000000000000000000000000000000000000000000008152506001018373ffffffffffffffffffffffffffffffffffffffff1673ffffffffffffffffffffffffffffffffffffffff1660601b8152601401828152602001807fe18a34eb0e04b04f7a0ac29a6e80748dca96319b42c54d679cb821dca90c6303815250602001925050506040516020818303038152906040528051906020012060001c925050509392505050565b6060600282511015612d40576040517f08c379a00000000000000000000000000000000000000000000000000000000081526004018080602001828103825260208152602001807f53757368697377617056324c6962726172793a20494e56414c49445f5041544881525060200191505060405180910390fd5b815167ffffffffffffffff81118015612d5857600080fd5b50604051908082528060200260200182016040528015612d875781602001602082028036833780820191505090505b5090508281600183510381518110612d9b57fe5b6020026020010181815250506000600183510390505b6000811115612e3e57600080612df187866001860381518110612dd057fe5b6020026020010151878681518110612de457fe5b602002602001015161341d565b91509150612e13848481518110612e0457fe5b60200260200101518383613546565b846001850381518110612e2257fe5b6020026020010181815250505050808060019003915050612db1565b509392505050565b600082821115612ebe576040517f08c379a000000000000000000000000000000000000000000000000000000000815260040180806020018281038252601e8152602001807f536166654d6174683a207375627472616374696f6e206f766572666c6f77000081525060200191505060405180910390fd5b818303905092915050565b6000808273ffffffffffffffffffffffffffffffffffffffff168473ffffffffffffffffffffffffffffffffffffffff161415612f51576040517f08c379a000000000000000000000000000000000000000000000000000000000815260040180806020018281038252602581526020018061383d6025913960400191505060405180910390fd5b8273ffffffffffffffffffffffffffffffffffffffff168473ffffffffffffffffffffffffffffffffffffffff1610612f8b578284612f8e565b83835b8092508193505050600073ffffffffffffffffffffffffffffffffffffffff168273ffffffffffffffffffffffffffffffffffffffff161415613039576040517f08c379a000000000000000000000000000000000000000000000000000000000815260040180806020018281038252601e8152602001807f556e697377617056324c6962726172793a205a45524f5f41444452455353000081525060200191505060405180910390fd5b9250929050565b600080600061304f8585612ec9565b509050600080613060888888612890565b73ffffffffffffffffffffffffffffffffffffffff16630902f1ac6040518163ffffffff1660e01b815260040160606040518083038186803b1580156130a557600080fd5b505afa1580156130b9573d6000803e3d6000fd5b505050506040513d60608110156130cf57600080fd5b81019080805190602001909291908051906020019092919080519060200190929190505050506dffffffffffffffffffffffffffff1691506dffffffffffffffffffffffffffff1691508273ffffffffffffffffffffffffffffffffffffffff168773ffffffffffffffffffffffffffffffffffffffff1614613153578082613156565b81815b8095508196505050505050935093915050565b60008084116131c3576040517f08c379a000000000000000000000000000000000000000000000000000000000815260040180806020018281038252602c815260200180613811602c913960400191505060405180910390fd5b6000831180156131d35750600082115b613228576040517f08c379a00000000000000000000000000000000000000000000000000000000081526004018080602001828103825260288152602001806138626028913960400191505060405180910390fd5b60006132516103e8613243878761368390919063ffffffff16565b61368390919063ffffffff16565b9050600061327c6103e561326e8887612e4690919063ffffffff16565b61368390919063ffffffff16565b905061329b600182848161328c57fe5b0461370990919063ffffffff16565b925050509392505050565b6000808273ffffffffffffffffffffffffffffffffffffffff168473ffffffffffffffffffffffffffffffffffffffff16141561332e576040517f08c379a00000000000000000000000000000000000000000000000000000000081526004018080602001828103825260278152602001806137bc6027913960400191505060405180910390fd5b8273ffffffffffffffffffffffffffffffffffffffff168473ffffffffffffffffffffffffffffffffffffffff161061336857828461336b565b83835b8092508193505050600073ffffffffffffffffffffffffffffffffffffffff168273ffffffffffffffffffffffffffffffffffffffff161415613416576040517f08c379a00000000000000000000000000000000000000000000000000000000081526004018080602001828103825260208152602001807f53757368697377617056324c6962726172793a205a45524f5f4144445245535381525060200191505060405180910390fd5b9250929050565b600080600061342c85856132a6565b50905060008061343d888888612b6b565b73ffffffffffffffffffffffffffffffffffffffff16630902f1ac6040518163ffffffff1660e01b815260040160606040518083038186803b15801561348257600080fd5b505afa158015613496573d6000803e3d6000fd5b505050506040513d60608110156134ac57600080fd5b81019080805190602001909291908051906020019092919080519060200190929190505050506dffffffffffffffffffffffffffff1691506dffffffffffffffffffffffffffff1691508273ffffffffffffffffffffffffffffffffffffffff168773ffffffffffffffffffffffffffffffffffffffff1614613530578082613533565b81815b8095508196505050505050935093915050565b60008084116135a0576040517f08c379a000000000000000000000000000000000000000000000000000000000815260040180806020018281038252602e8152602001806137e3602e913960400191505060405180910390fd5b6000831180156135b05750600082115b613605576040517f08c379a000000000000000000000000000000000000000000000000000000000815260040180806020018281038252602a815260200180613792602a913960400191505060405180910390fd5b600061362e6103e8613620878761368390919063ffffffff16565b61368390919063ffffffff16565b905060006136596103e561364b8887612e4690919063ffffffff16565b61368390919063ffffffff16565b9050613678600182848161366957fe5b0461370990919063ffffffff16565b925050509392505050565b6000808314156136965760009050613703565b60008284029050828482816136a757fe5b04146136fe576040517f08c379a000000000000000000000000000000000000000000000000000000000815260040180806020018281038252602181526020018061388a6021913960400191505060405180910390fd5b809150505b92915050565b600080828401905083811015613787576040517f08c379a000000000000000000000000000000000000000000000000000000000815260040180806020018281038252601b8152602001807f536166654d6174683a206164646974696f6e206f766572666c6f77000000000081525060200191505060405180910390fd5b809150509291505056fe53757368697377617056324c6962726172793a20494e53554646494349454e545f4c495155494449545953757368697377617056324c6962726172793a204944454e544943414c5f41444452455353455353757368697377617056324c6962726172793a20494e53554646494349454e545f4f55545055545f414d4f554e54556e697377617056324c6962726172793a20494e53554646494349454e545f4f55545055545f414d4f554e54556e697377617056324c6962726172793a204944454e544943414c5f414444524553534553556e697377617056324c6962726172793a20494e53554646494349454e545f4c4951554944495459536166654d6174683a206d756c7469706c69636174696f6e206f766572666c6f77a264697066735822122063d523400eefd02e7b38d70ebc610e7bddb99a3879fac5eca6777fd628e68e1264736f6c63430006060033",
  "immutableReferences": {
    "915": [
      {
        "length": 32,
        "start": 2606
      },
      {
        "length": 32,
        "start": 3448
      },
      {
        "length": 32,
        "start": 5129
      },
      {
        "length": 32,
        "start": 5682
      },
      {
        "length": 32,
        "start": 5747
      },
      {
        "length": 32,
        "start": 6555
      },
      {
        "length": 32,
        "start": 7108
      },
      {
        "length": 32,
        "start": 8031
      },
      {
        "length": 32,
        "start": 8582
      },
      {
        "length": 32,
        "start": 9653
      },
      {
        "length": 32,
        "start": 10206
      }
    ],
    "917": [
      {
        "length": 32,
        "start": 4635
      },
      {
        "length": 32,
        "start": 7173
      },
      {
        "length": 32,
        "start": 7545
      },
      {
        "length": 32,
        "start": 10273
      }
    ],
    "919": [
      {
        "length": 32,
        "start": 3244
      },
      {
        "length": 32,
        "start": 3512
      }
    ]
  },
  "source": "pragma solidity =0.6.6;\n\nimport './UniswapV2Library.sol';\nimport './SushiswapV2Library.sol';\nimport './interfaces/IUniswapV2Router02.sol';\nimport './interfaces/IUniswapV2Pair.sol';\nimport './interfaces/IERC20.sol';\n//import './libraries/SafeMath.sol';\n\ncontract FlashLoanerEth {\n  using SafeMath for uint;\n\n  address immutable factory;\n  address immutable sushifactory;\n  //address sushiaddress = 0xC0AEe478e3658e2610c5F7A4A2E1777cE9e4f2Ac;\n  //uint constant deadline = 10 days;\n\n  IUniswapV2Router02 immutable sushiRouter;\n  //IUniswapV2Pair immutable uniPair;\n\n  constructor(address _factory, address uniPair, address _sushiRouter) public {\n    factory = _factory;  \n    sushiRouter = IUniswapV2Router02(_sushiRouter);\n    sushifactory = uniPair; \n  }\n\n  function uniswapV2Call(address _sender, uint _amount0, uint _amount1, bytes calldata _data) external {\n      address[] memory path = new address[](2);\n      address[] memory path_get = new address[](2);\n\n      uint amountToken = _amount0 == 0 ? _amount1 : _amount0;\n      \n      address token0 = IUniswapV2Pair(msg.sender).token0();\n      address token1 = IUniswapV2Pair(msg.sender).token1();\n\n      require(msg.sender == UniswapV2Library.pairFor(factory, token0, token1), \"Unauthorized\"); \n      require(_amount0 == 0 || _amount1 == 0);\n\n      path_get[0] = _amount0 == 0 ? token0 : token1;\n      path_get[1] = _amount0 == 0 ? token1 : token0;\n\n      path[0] = _amount0 == 0 ? token1 : token0;\n      path[1] = _amount0 == 0 ? token0 : token1;\n\n      IERC20 token = IERC20(_amount0 == 0 ? token1 : token0);\n      IERC20 return_token = IERC20(_amount0 == 0 ? token0 : token1);\n      \n      token.approve(address(sushiRouter), amountToken);\n\n      // no need for require() check, if amount required is not sent sushiRouter will revert\n      uint amountRequired = UniswapV2Library.getAmountsIn(factory, amountToken, path_get)[0];\n      // uint amountReceived = sushiRouter.swapExactTokensForTokens(amountToken, amountRequired, path, address(this), uint(-1))[1];\n      uint amountReturned = sushiRouter.swapTokensForExactTokens(amountRequired, amountToken, path, address(msg.sender), uint(-1))[0];\n\n      require(amountToken > amountReturned, \"No Profit\");\n\n      // YEAHH PROFIT\n      token.transfer(_sender, amountToken - amountReturned);\n  }\n\n\n  function guessProfit(address factorySushi, address uniPair, uint _amount0, uint _amount1) external view returns (uint profit){\n      address[] memory path = new address[](2);\n      address[] memory path_get = new address[](2);\n\n      uint amountToken = _amount0 == 0 ? _amount1 : _amount0;\n      \n      address token0 = IUniswapV2Pair(uniPair).token0();\n      address token1 = IUniswapV2Pair(uniPair).token1();\n\n      require(uniPair == UniswapV2Library.pairFor(factory, token0, token1), \"Unauthorized\"); \n      //require(_amount0 == 0 || _amount1 == 0);\n\n      path_get[0] = _amount0 == 0 ? token0 : token1;\n      path_get[1] = _amount0 == 0 ? token1 : token0;\n\n      path[0] = _amount0 == 0 ? token1 : token0;\n      path[1] = _amount0 == 0 ? token0 : token1;\n\n      // no need for require() check, if amount required is not sent sushiRouter will revert\n      uint amountRequired = UniswapV2Library.getAmountsIn(factory, amountToken, path_get)[0];\n      uint amountReturned = SushiswapV2Library.getAmountsIn(sushifactory, amountRequired, path)[0]; \n\n      profit = amountToken > amountReturned ? amountToken.sub(amountReturned) : 0;\n\n  } \n\n  \n  function getUniRequired(address factorySushi, address uniPair, uint _amount0, uint _amount1) external view returns (uint re){\n      address[] memory path = new address[](2);\n      address[] memory path_get = new address[](2);\n\n      uint amountToken = _amount0 == 0 ? _amount1 : _amount0;\n      \n      address token0 = IUniswapV2Pair(uniPair).token0();\n      address token1 = IUniswapV2Pair(uniPair).token1();\n\n      require(uniPair == UniswapV2Library.pairFor(factory, token0, token1), \"Unauthorized\"); \n      //require(_amount0 == 0 || _amount1 == 0);\n\n      path_get[0] = _amount0 == 0 ? token0 : token1;\n      path_get[1] = _amount0 == 0 ? token1 : token0;\n\n      path[0] = _amount0 == 0 ? token1 : token0;\n      path[1] = _amount0 == 0 ? token0 : token1;\n\n      // no need for require() check, if amount required is not sent sushiRouter will revert\n      re = UniswapV2Library.getAmountsIn(factory, amountToken, path_get)[0];\n\n  }  \n\n  function getSushiReturned(address factorySushi, address uniPair, uint _amount0, uint _amount1) external view returns (uint re){\n      //require(sushiaddress == factorySushi, \"Sushi address wrong.\");\n\n      address[] memory path = new address[](2);\n      address[] memory path_get = new address[](2);\n\n      uint amountToken = _amount0 == 0 ? _amount1 : _amount0;\n      \n      address token0 = IUniswapV2Pair(uniPair).token0();\n      address token1 = IUniswapV2Pair(uniPair).token1();\n\n      require(uniPair == UniswapV2Library.pairFor(factory, token0, token1), \"Unauthorized\"); \n      //require(_amount0 == 0 || _amount1 == 0);\n\n      path_get[0] = _amount0 == 0 ? token0 : token1;\n      path_get[1] = _amount0 == 0 ? token1 : token0;\n\n      path[0] = _amount0 == 0 ? token1 : token0;\n      path[1] = _amount0 == 0 ? token0 : token1;\n\n      // no need for require() check, if amount required is not sent sushiRouter will revert\n      uint amountRequired = UniswapV2Library.getAmountsIn(factory, amountToken, path_get)[0];\n      re = SushiswapV2Library.getAmountsIn(sushifactory, amountRequired, path)[0];\n\n  }\n\n  function getUniReturned(address factorySushi, address uniPair, uint _amount0, uint _amount1) external view returns (uint re){\n      address[] memory path = new address[](2);\n      address[] memory path_get = new address[](2);\n\n      uint amountToken = _amount0 == 0 ? _amount1 : _amount0;\n      \n      address token0 = IUniswapV2Pair(uniPair).token0();\n      address token1 = IUniswapV2Pair(uniPair).token1();\n\n      require(uniPair == UniswapV2Library.pairFor(factory, token0, token1), \"Unauthorized\"); \n      //require(_amount0 == 0 || _amount1 == 0);\n\n      path_get[0] = _amount0 == 0 ? token0 : token1;\n      path_get[1] = _amount0 == 0 ? token1 : token0;\n\n      path[0] = _amount0 == 0 ? token1 : token0;\n      path[1] = _amount0 == 0 ? token0 : token1;\n\n      // no need for require() check, if amount required is not sent sushiRouter will revert\n      uint amountRequired = UniswapV2Library.getAmountsIn(factory, amountToken, path_get)[0];\n      re = UniswapV2Library.getAmountsIn(factory, amountRequired, path)[0];\n\n  }  \n\n  function getaddress(address factorySushi, address uniPair, uint _amount0, uint _amount1) external view returns (address re1, address re2){\n      address re1 = IUniswapV2Pair(uniPair).token0();\n      address re2 = IUniswapV2Pair(uniPair).token1();\n  }\n\n  function getaddressR(address factorySushi, address uniPair, uint _amount0, uint _amount1) external view returns (address re1, address re2){\n      re1 = IUniswapV2Pair(uniPair).token0();\n      re2 = IUniswapV2Pair(uniPair).token1();\n  }\n\n  function getaddressS(address factorySushi, address uniPair, uint _amount0, uint _amount1) external view returns (address re){\n      address re1 = IUniswapV2Pair(uniPair).token0();\n      address re2 = IUniswapV2Pair(uniPair).token1();\n      re = SushiswapV2Library.pairFor(factorySushi, re1, re2);\n  }\n\n  function getaddressU(address factorySushi, address uniPair, uint _amount0, uint _amount1) external view returns (address re){\n      address re1 = IUniswapV2Pair(uniPair).token0();\n      address re2 = IUniswapV2Pair(uniPair).token1();\n      re = UniswapV2Library.pairFor(factorySushi, re1, re2);\n  }\n\n  function getaddressS2(address factorySushi, address uniPair, uint _amount0, uint _amount1) external view returns (address re){\n      address re1 = IUniswapV2Pair(uniPair).token0();\n      address re2 = IUniswapV2Pair(uniPair).token1();\n      re = SushiswapV2Library.pairFor(sushifactory, re1, re2);\n  }\n\n  function getaddressF(address factorySushi, address uniPair, uint _amount0, uint _amount1) external view returns (address re1, address re2){\n      re1 = factorySushi;\n      re2 = sushifactory;\n  }\n\n}",
  "sourcePath": "/Users/usr0102794/opengsn/uni-sushi-flashswap/flashloaner-contract/contracts/FlashLoanerEth.sol",
  "compiler": {
    "name": "solc",
    "version": "0.6.6+commit.6c089d02.Emscripten.clang"
  },
  "schemaVersion": "3.3.3",
  "updatedAt": "2021-03-09T13:15:36.495Z",
  "networkType": "ethereum",
  "devdoc": {
    "methods": {}
  },
  "userdoc": {
    "methods": {}
  }
}