{
  "contractName": "FlashLoanerDual",
  "abi": [
    {
      "inputs": [
        {
          "internalType": "address",
          "name": "_ufactory",
          "type": "address"
        },
        {
          "internalType": "address",
          "name": "_sfactory",
          "type": "address"
        },
        {
          "internalType": "address",
          "name": "_uniRouter",
          "type": "address"
        },
        {
          "internalType": "address",
          "name": "_sushiRouter",
          "type": "address"
        }
      ],
      "stateMutability": "nonpayable",
      "type": "constructor"
    },
    {
      "inputs": [
        {
          "internalType": "address",
          "name": "_sender",
          "type": "address"
        },
        {
          "internalType": "uint256",
          "name": "_amount0",
          "type": "uint256"
        },
        {
          "internalType": "uint256",
          "name": "_amount1",
          "type": "uint256"
        },
        {
          "internalType": "bytes",
          "name": "_data",
          "type": "bytes"
        }
      ],
      "name": "uniswapV2Call",
      "outputs": [],
      "stateMutability": "nonpayable",
      "type": "function"
    },
    {
      "inputs": [
        {
          "internalType": "address",
          "name": "_sender",
          "type": "address"
        },
        {
          "internalType": "uint256",
          "name": "_amount0",
          "type": "uint256"
        },
        {
          "internalType": "uint256",
          "name": "_amount1",
          "type": "uint256"
        },
        {
          "internalType": "bytes",
          "name": "_data",
          "type": "bytes"
        }
      ],
      "name": "getdata1",
      "outputs": [
        {
          "internalType": "uint256",
          "name": "re",
          "type": "uint256"
        }
      ],
      "stateMutability": "pure",
      "type": "function",
      "constant": true
    },
    {
      "inputs": [
        {
          "internalType": "address",
          "name": "_sender",
          "type": "address"
        },
        {
          "internalType": "uint256",
          "name": "_amount0",
          "type": "uint256"
        },
        {
          "internalType": "uint256",
          "name": "_amount1",
          "type": "uint256"
        },
        {
          "internalType": "bytes",
          "name": "_data",
          "type": "bytes"
        }
      ],
      "name": "getdata2",
      "outputs": [
        {
          "internalType": "uint256",
          "name": "re",
          "type": "uint256"
        }
      ],
      "stateMutability": "pure",
      "type": "function",
      "constant": true
    },
    {
      "inputs": [
        {
          "internalType": "address",
          "name": "_sender",
          "type": "address"
        },
        {
          "internalType": "uint256",
          "name": "_amount0",
          "type": "uint256"
        },
        {
          "internalType": "uint256",
          "name": "_amount1",
          "type": "uint256"
        },
        {
          "internalType": "bytes",
          "name": "_data",
          "type": "bytes"
        }
      ],
      "name": "getaddresses",
      "outputs": [
        {
          "internalType": "address",
          "name": "uf",
          "type": "address"
        },
        {
          "internalType": "address",
          "name": "sr",
          "type": "address"
        },
        {
          "internalType": "address",
          "name": "s",
          "type": "address"
        }
      ],
      "stateMutability": "view",
      "type": "function",
      "constant": true
    }
  ],
  "bytecode": "0x61010060405234801561001157600080fd5b506040516123c53803806123c58339818101604052608081101561003457600080fd5b81019080805190602001909291908051906020019092919080519060200190929190805190602001909291905050508373ffffffffffffffffffffffffffffffffffffffff1660808173ffffffffffffffffffffffffffffffffffffffff1660601b815250508273ffffffffffffffffffffffffffffffffffffffff1660a08173ffffffffffffffffffffffffffffffffffffffff1660601b815250508073ffffffffffffffffffffffffffffffffffffffff1660c08173ffffffffffffffffffffffffffffffffffffffff1660601b815250508173ffffffffffffffffffffffffffffffffffffffff1660e08173ffffffffffffffffffffffffffffffffffffffff1660601b815250505050505060805160601c60a05160601c60c05160601c60e05160601c61221e6101a7600039806106ca5280610df45250806106f05280610e1a5250806105e052806109035280610d9c52508061051052806109475280610dc25280610faa525061221e6000f3fe608060405234801561001057600080fd5b506004361061004c5760003560e01c806310d1e85c1461005157806364569ee9146100fe5780636597fc1d14610251578063ba49793714610312575b600080fd5b6100fc6004803603608081101561006757600080fd5b81019080803573ffffffffffffffffffffffffffffffffffffffff1690602001909291908035906020019092919080359060200190929190803590602001906401000000008111156100b857600080fd5b8201836020820111156100ca57600080fd5b803590602001918460018302840111640100000000831117156100ec57600080fd5b90919293919293905050506103d3565b005b6101a96004803603608081101561011457600080fd5b81019080803573ffffffffffffffffffffffffffffffffffffffff16906020019092919080359060200190929190803590602001909291908035906020019064010000000081111561016557600080fd5b82018360208201111561017757600080fd5b8035906020019184600183028401116401000000008311171561019957600080fd5b9091929391929390505050610d69565b604051808473ffffffffffffffffffffffffffffffffffffffff1673ffffffffffffffffffffffffffffffffffffffff1681526020018373ffffffffffffffffffffffffffffffffffffffff1673ffffffffffffffffffffffffffffffffffffffff1681526020018273ffffffffffffffffffffffffffffffffffffffff1673ffffffffffffffffffffffffffffffffffffffff168152602001935050505060405180910390f35b6102fc6004803603608081101561026757600080fd5b81019080803573ffffffffffffffffffffffffffffffffffffffff1690602001909291908035906020019092919080359060200190929190803590602001906401000000008111156102b857600080fd5b8201836020820111156102ca57600080fd5b803590602001918460018302840111640100000000831117156102ec57600080fd5b909192939192939050505061116d565b6040518082815260200191505060405180910390f35b6103bd6004803603608081101561032857600080fd5b81019080803573ffffffffffffffffffffffffffffffffffffffff16906020019092919080359060200190929190803590602001909291908035906020019064010000000081111561037957600080fd5b82018360208201111561038b57600080fd5b803590602001918460018302840111640100000000831117156103ad57600080fd5b90919293919293905050506111a0565b6040518082815260200191505060405180910390f35b6000828260208110156103e557600080fd5b8101908080359060200190929190505050905060003373ffffffffffffffffffffffffffffffffffffffff16630dfe16816040518163ffffffff1660e01b815260040160206040518083038186803b15801561044057600080fd5b505afa158015610454573d6000803e3d6000fd5b505050506040513d602081101561046a57600080fd5b8101908080519060200190929190505050905060003373ffffffffffffffffffffffffffffffffffffffff1663d21220a76040518163ffffffff1660e01b815260040160206040518083038186803b1580156104c557600080fd5b505afa1580156104d9573d6000803e3d6000fd5b505050506040513d60208110156104ef57600080fd5b8101908080519060200190929190505050905060008314156105db576105367f000000000000000000000000000000000000000000000000000000000000000083836111ce565b73ffffffffffffffffffffffffffffffffffffffff163373ffffffffffffffffffffffffffffffffffffffff16146105d6576040517f08c379a00000000000000000000000000000000000000000000000000000000081526004018080602001828103825260198152602001807f556e617574686f72697a65642046726f6d20556e69737761700000000000000081525060200191505060405180910390fd5b6106a7565b6106067f00000000000000000000000000000000000000000000000000000000000000008383611329565b73ffffffffffffffffffffffffffffffffffffffff163373ffffffffffffffffffffffffffffffffffffffff16146106a6576040517f08c379a000000000000000000000000000000000000000000000000000000000815260040180806020018281038252601b8152602001807f556e617574686f72697a65642046726f6d20537573686973776170000000000081525060200191505060405180910390fd5b5b60008714806106b65750600086145b6106bf57600080fd5b60008084146106ee577f0000000000000000000000000000000000000000000000000000000000000000610710565b7f00000000000000000000000000000000000000000000000000000000000000005b905060008089146107215783610723565b825b90506000808a146107345789610736565b885b90506060600267ffffffffffffffff8111801561075257600080fd5b506040519080825280602002602001820160405280156107815781602001602082028036833780820191505090505b50905060008b146107925784610794565b855b816000815181106107a157fe5b602002602001019073ffffffffffffffffffffffffffffffffffffffff16908173ffffffffffffffffffffffffffffffffffffffff168152505060008b146107e957856107eb565b845b816001815181106107f857fe5b602002602001019073ffffffffffffffffffffffffffffffffffffffff16908173ffffffffffffffffffffffffffffffffffffffff16815250508273ffffffffffffffffffffffffffffffffffffffff1663095ea7b385846040518363ffffffff1660e01b8152600401808373ffffffffffffffffffffffffffffffffffffffff1673ffffffffffffffffffffffffffffffffffffffff16815260200182815260200192505050602060405180830381600087803b1580156108b957600080fd5b505af11580156108cd573d6000803e3d6000fd5b505050506040513d60208110156108e357600080fd5b8101908080519060200190929190505050506000808814610942576109297f00000000000000000000000000000000000000000000000000000000000000008484611484565b60008151811061093557fe5b6020026020010151610982565b61096d7f00000000000000000000000000000000000000000000000000000000000000008484611604565b60008151811061097957fe5b60200260200101515b905060008c146109925786610994565b855b826000815181106109a157fe5b602002602001019073ffffffffffffffffffffffffffffffffffffffff16908173ffffffffffffffffffffffffffffffffffffffff168152505060008c146109e957856109eb565b865b826001815181106109f857fe5b602002602001019073ffffffffffffffffffffffffffffffffffffffff16908173ffffffffffffffffffffffffffffffffffffffff168152505060008573ffffffffffffffffffffffffffffffffffffffff16638803dbee838686337fffffffffffffffffffffffffffffffffffffffffffffffffffffffffffffffff6040518663ffffffff1660e01b815260040180868152602001858152602001806020018473ffffffffffffffffffffffffffffffffffffffff1673ffffffffffffffffffffffffffffffffffffffff168152602001838152602001828103825285818151815260200191508051906020019060200280838360005b83811015610b0b578082015181840152602081019050610af0565b505050509050019650505050505050600060405180830381600087803b158015610b3457600080fd5b505af1158015610b48573d6000803e3d6000fd5b505050506040513d6000823e3d601f19601f820116820180604052506020811015610b7257600080fd5b8101908080516040519392919084640100000000821115610b9257600080fd5b83820191506020820185811115610ba857600080fd5b8251866020820283011164010000000082111715610bc557600080fd5b8083526020830192505050908051906020019060200280838360005b83811015610bfc578082015181840152602081019050610be1565b50505050905001604052505050600081518110610c1557fe5b60200260200101519050808411610c94576040517f08c379a00000000000000000000000000000000000000000000000000000000081526004018080602001828103825260098152602001807f4e6f2050726f666974000000000000000000000000000000000000000000000081525060200191505060405180910390fd5b8473ffffffffffffffffffffffffffffffffffffffff1663a9059cbb8f8387036040518363ffffffff1660e01b8152600401808373ffffffffffffffffffffffffffffffffffffffff1673ffffffffffffffffffffffffffffffffffffffff16815260200182815260200192505050602060405180830381600087803b158015610d1d57600080fd5b505af1158015610d31573d6000803e3d6000fd5b505050506040513d6020811015610d4757600080fd5b8101908080519060200190929190505050505050505050505050505050505050565b60008060008085856020811015610d7f57600080fd5b8101908080359060200190929190505050905060008114610dc0577f0000000000000000000000000000000000000000000000000000000000000000610de2565b7f00000000000000000000000000000000000000000000000000000000000000005b935060008490506000808314610e18577f0000000000000000000000000000000000000000000000000000000000000000610e3a565b7f00000000000000000000000000000000000000000000000000000000000000005b90508094506060600267ffffffffffffffff81118015610e5957600080fd5b50604051908082528060200260200182016040528015610e885781602001602082028036833780820191505090505b5090506000808c14610e9a578b610e9c565b8a5b905060003373ffffffffffffffffffffffffffffffffffffffff16630dfe16816040518163ffffffff1660e01b815260040160206040518083038186803b158015610ee657600080fd5b505afa158015610efa573d6000803e3d6000fd5b505050506040513d6020811015610f1057600080fd5b8101908080519060200190929190505050905060003373ffffffffffffffffffffffffffffffffffffffff1663d21220a76040518163ffffffff1660e01b815260040160206040518083038186803b158015610f6b57600080fd5b505afa158015610f7f573d6000803e3d6000fd5b505050506040513d6020811015610f9557600080fd5b810190808051906020019092919050505090507f000000000000000000000000000000000000000000000000000000000000000073ffffffffffffffffffffffffffffffffffffffff168673ffffffffffffffffffffffffffffffffffffffff1614156110ac576110078683836111ce565b73ffffffffffffffffffffffffffffffffffffffff163373ffffffffffffffffffffffffffffffffffffffff16146110a7576040517f08c379a00000000000000000000000000000000000000000000000000000000081526004018080602001828103825260198152602001807f556e617574686f72697a65642046726f6d20556e69737761700000000000000081525060200191505060405180910390fd5b611158565b6110b7868383611329565b73ffffffffffffffffffffffffffffffffffffffff163373ffffffffffffffffffffffffffffffffffffffff1614611157576040517f08c379a000000000000000000000000000000000000000000000000000000000815260040180806020018281038252601b8152602001807f556e617574686f72697a65642046726f6d20537573686973776170000000000081525060200191505060405180910390fd5b5b33975050505050505050955095509592505050565b6000808383602081101561118057600080fd5b810190808035906020019092919050505090508091505095945050505050565b6000828260208110156111b257600080fd5b8101908080359060200190929190505050905095945050505050565b60008060006111dd8585611784565b91509150858282604051602001808373ffffffffffffffffffffffffffffffffffffffff1673ffffffffffffffffffffffffffffffffffffffff1660601b81526014018273ffffffffffffffffffffffffffffffffffffffff1673ffffffffffffffffffffffffffffffffffffffff1660601b8152601401925050506040516020818303038152906040528051906020012060405160200180807fff000000000000000000000000000000000000000000000000000000000000008152506001018373ffffffffffffffffffffffffffffffffffffffff1673ffffffffffffffffffffffffffffffffffffffff1660601b8152601401828152602001807f96e8ac4277198ff8b6f785478aa9a39f403cb768dd02cbee326c3e7da348845f815250602001925050506040516020818303038152906040528051906020012060001c925050509392505050565b600080600061133885856118fb565b91509150858282604051602001808373ffffffffffffffffffffffffffffffffffffffff1673ffffffffffffffffffffffffffffffffffffffff1660601b81526014018273ffffffffffffffffffffffffffffffffffffffff1673ffffffffffffffffffffffffffffffffffffffff1660601b8152601401925050506040516020818303038152906040528051906020012060405160200180807fff000000000000000000000000000000000000000000000000000000000000008152506001018373ffffffffffffffffffffffffffffffffffffffff1673ffffffffffffffffffffffffffffffffffffffff1660601b8152601401828152602001807fe18a34eb0e04b04f7a0ac29a6e80748dca96319b42c54d679cb821dca90c6303815250602001925050506040516020818303038152906040528051906020012060001c925050509392505050565b60606002825110156114fe576040517f08c379a00000000000000000000000000000000000000000000000000000000081526004018080602001828103825260208152602001807f53757368697377617056324c6962726172793a20494e56414c49445f5041544881525060200191505060405180910390fd5b815167ffffffffffffffff8111801561151657600080fd5b506040519080825280602002602001820160405280156115455781602001602082028036833780820191505090505b509050828160018351038151811061155957fe5b6020026020010181815250506000600183510390505b60008111156115fc576000806115af8786600186038151811061158e57fe5b60200260200101518786815181106115a257fe5b6020026020010151611a72565b915091506115d18484815181106115c257fe5b60200260200101518383611b9b565b8460018503815181106115e057fe5b602002602001018181525050505080806001900391505061156f565b509392505050565b606060028251101561167e576040517f08c379a000000000000000000000000000000000000000000000000000000000815260040180806020018281038252601e8152602001807f556e697377617056324c6962726172793a20494e56414c49445f50415448000081525060200191505060405180910390fd5b815167ffffffffffffffff8111801561169657600080fd5b506040519080825280602002602001820160405280156116c55781602001602082028036833780820191505090505b50905082816001835103815181106116d957fe5b6020026020010181815250506000600183510390505b600081111561177c5760008061172f8786600186038151811061170e57fe5b602002602001015187868151811061172257fe5b6020026020010151611cd8565b9150915061175184848151811061174257fe5b60200260200101518383611e01565b84600185038151811061176057fe5b60200260200101818152505050508080600190039150506116ef565b509392505050565b6000808273ffffffffffffffffffffffffffffffffffffffff168473ffffffffffffffffffffffffffffffffffffffff16141561180c576040517f08c379a000000000000000000000000000000000000000000000000000000000815260040180806020018281038252602581526020018061217b6025913960400191505060405180910390fd5b8273ffffffffffffffffffffffffffffffffffffffff168473ffffffffffffffffffffffffffffffffffffffff1610611846578284611849565b83835b8092508193505050600073ffffffffffffffffffffffffffffffffffffffff168273ffffffffffffffffffffffffffffffffffffffff1614156118f4576040517f08c379a000000000000000000000000000000000000000000000000000000000815260040180806020018281038252601e8152602001807f556e697377617056324c6962726172793a205a45524f5f41444452455353000081525060200191505060405180910390fd5b9250929050565b6000808273ffffffffffffffffffffffffffffffffffffffff168473ffffffffffffffffffffffffffffffffffffffff161415611983576040517f08c379a00000000000000000000000000000000000000000000000000000000081526004018080602001828103825260278152602001806120fa6027913960400191505060405180910390fd5b8273ffffffffffffffffffffffffffffffffffffffff168473ffffffffffffffffffffffffffffffffffffffff16106119bd5782846119c0565b83835b8092508193505050600073ffffffffffffffffffffffffffffffffffffffff168273ffffffffffffffffffffffffffffffffffffffff161415611a6b576040517f08c379a00000000000000000000000000000000000000000000000000000000081526004018080602001828103825260208152602001807f53757368697377617056324c6962726172793a205a45524f5f4144445245535381525060200191505060405180910390fd5b9250929050565b6000806000611a8185856118fb565b509050600080611a92888888611329565b73ffffffffffffffffffffffffffffffffffffffff16630902f1ac6040518163ffffffff1660e01b815260040160606040518083038186803b158015611ad757600080fd5b505afa158015611aeb573d6000803e3d6000fd5b505050506040513d6060811015611b0157600080fd5b81019080805190602001909291908051906020019092919080519060200190929190505050506dffffffffffffffffffffffffffff1691506dffffffffffffffffffffffffffff1691508273ffffffffffffffffffffffffffffffffffffffff168773ffffffffffffffffffffffffffffffffffffffff1614611b85578082611b88565b81815b8095508196505050505050935093915050565b6000808411611bf5576040517f08c379a000000000000000000000000000000000000000000000000000000000815260040180806020018281038252602e815260200180612121602e913960400191505060405180910390fd5b600083118015611c055750600082115b611c5a576040517f08c379a000000000000000000000000000000000000000000000000000000000815260040180806020018281038252602a8152602001806120d0602a913960400191505060405180910390fd5b6000611c836103e8611c758787611f3e90919063ffffffff16565b611f3e90919063ffffffff16565b90506000611cae6103e5611ca08887611fc490919063ffffffff16565b611f3e90919063ffffffff16565b9050611ccd6001828481611cbe57fe5b0461204790919063ffffffff16565b925050509392505050565b6000806000611ce78585611784565b509050600080611cf88888886111ce565b73ffffffffffffffffffffffffffffffffffffffff16630902f1ac6040518163ffffffff1660e01b815260040160606040518083038186803b158015611d3d57600080fd5b505afa158015611d51573d6000803e3d6000fd5b505050506040513d6060811015611d6757600080fd5b81019080805190602001909291908051906020019092919080519060200190929190505050506dffffffffffffffffffffffffffff1691506dffffffffffffffffffffffffffff1691508273ffffffffffffffffffffffffffffffffffffffff168773ffffffffffffffffffffffffffffffffffffffff1614611deb578082611dee565b81815b8095508196505050505050935093915050565b6000808411611e5b576040517f08c379a000000000000000000000000000000000000000000000000000000000815260040180806020018281038252602c81526020018061214f602c913960400191505060405180910390fd5b600083118015611e6b5750600082115b611ec0576040517f08c379a00000000000000000000000000000000000000000000000000000000081526004018080602001828103825260288152602001806121a06028913960400191505060405180910390fd5b6000611ee96103e8611edb8787611f3e90919063ffffffff16565b611f3e90919063ffffffff16565b90506000611f146103e5611f068887611fc490919063ffffffff16565b611f3e90919063ffffffff16565b9050611f336001828481611f2457fe5b0461204790919063ffffffff16565b925050509392505050565b600080831415611f515760009050611fbe565b6000828402905082848281611f6257fe5b0414611fb9576040517f08c379a00000000000000000000000000000000000000000000000000000000081526004018080602001828103825260218152602001806121c86021913960400191505060405180910390fd5b809150505b92915050565b60008282111561203c576040517f08c379a000000000000000000000000000000000000000000000000000000000815260040180806020018281038252601e8152602001807f536166654d6174683a207375627472616374696f6e206f766572666c6f77000081525060200191505060405180910390fd5b818303905092915050565b6000808284019050838110156120c5576040517f08c379a000000000000000000000000000000000000000000000000000000000815260040180806020018281038252601b8152602001807f536166654d6174683a206164646974696f6e206f766572666c6f77000000000081525060200191505060405180910390fd5b809150509291505056fe53757368697377617056324c6962726172793a20494e53554646494349454e545f4c495155494449545953757368697377617056324c6962726172793a204944454e544943414c5f41444452455353455353757368697377617056324c6962726172793a20494e53554646494349454e545f4f55545055545f414d4f554e54556e697377617056324c6962726172793a20494e53554646494349454e545f4f55545055545f414d4f554e54556e697377617056324c6962726172793a204944454e544943414c5f414444524553534553556e697377617056324c6962726172793a20494e53554646494349454e545f4c4951554944495459536166654d6174683a206d756c7469706c69636174696f6e206f766572666c6f77a2646970667358221220828ae51745d14c344a50b6b47833b5c5796e22a2136068c3c28d7ce34add0aff64736f6c63430006060033",
  "immutableReferences": {
    "441": [
      {
        "length": 32,
        "start": 1296
      },
      {
        "length": 32,
        "start": 2375
      },
      {
        "length": 32,
        "start": 3522
      },
      {
        "length": 32,
        "start": 4010
      }
    ],
    "443": [
      {
        "length": 32,
        "start": 1504
      },
      {
        "length": 32,
        "start": 2307
      },
      {
        "length": 32,
        "start": 3484
      }
    ],
    "445": [
      {
        "length": 32,
        "start": 1776
      },
      {
        "length": 32,
        "start": 3610
      }
    ],
    "447": [
      {
        "length": 32,
        "start": 1738
      },
      {
        "length": 32,
        "start": 3572
      }
    ]
  },
  "source": "pragma solidity =0.6.6;\n\nimport './UniswapV2Library.sol';\nimport './SushiswapV2Library.sol';\nimport './interfaces/IUniswapV2Router02.sol';\nimport './interfaces/IUniswapV2Pair.sol';\nimport './interfaces/IERC20.sol';\n\ncontract FlashLoanerDual {\n  address immutable unifactory;\n  address immutable sushifactory;\n  //address sushiaddress = 0xC0AEe478e3658e2610c5F7A4A2E1777cE9e4f2Ac;\n  //uint constant deadline = 10 days;\n\n  IUniswapV2Router02 immutable sushiRouter;\n  IUniswapV2Router02 immutable uniRouter;\n  //IUniswapV2Pair immutable uniPair;\n\n  constructor(address _ufactory, address _sfactory, address _uniRouter, address _sushiRouter) public {\n    unifactory = _ufactory; \n    sushifactory = _sfactory;\n    sushiRouter = IUniswapV2Router02(_sushiRouter);\n    uniRouter = IUniswapV2Router02(_uniRouter); \n  }\n\n  function uniswapV2Call(address _sender, uint _amount0, uint _amount1, bytes calldata _data) external {\n\n    (uint data) = abi.decode(_data, (uint));\n    //address factory = data == 0 ? unifactory : sushifactory;\n    \n    address token0 = IUniswapV2Pair(msg.sender).token0();\n    address token1 = IUniswapV2Pair(msg.sender).token1();\n    if(data == 0){\n        require(msg.sender == UniswapV2Library.pairFor(unifactory, token0, token1), \"Unauthorized From Uniswap\");\n    } else {\n        require(msg.sender == SushiswapV2Library.pairFor(sushifactory, token0, token1), \"Unauthorized From Sushiswap\"); \n    }\n    \n    require(_amount0 == 0 || _amount1 == 0);\n\n    IUniswapV2Router02 router = data == 0 ?  sushiRouter : uniRouter;\n    \n    IERC20 token = IERC20(_amount0 == 0 ? token1 : token0);\n    \n\n    { // stack too deep\n    uint amountToken = _amount0 == 0 ? _amount1 : _amount0;\n    address[] memory path = new address[](2);\n    path[0] = _amount0 == 0 ? token0 : token1;\n    path[1] = _amount0 == 0 ? token1 : token0;\n\n    token.approve(address(router), amountToken);\n\n    // no need for require() check, if amount required is not sent sushiRouter will revert\n    uint amountRequired = data == 0? UniswapV2Library.getAmountsIn(unifactory, amountToken, path)[0] : SushiswapV2Library.getAmountsIn(sushifactory, amountToken, path)[0]; \n\n    path[0] = _amount0 == 0 ? token1 : token0;\n    path[1] = _amount0 == 0 ? token0 : token1;\n    uint amountReturned = IUniswapV2Router02(router).swapTokensForExactTokens(amountRequired, amountToken, path, address(msg.sender), uint(-1))[0];\n\n    require(amountToken > amountReturned, \"No Profit\");\n    \n    // YEAHH PROFIT\n    token.transfer(_sender, amountToken - amountReturned);\n    }\n  }\n\n  function getdata1(address _sender, uint _amount0, uint _amount1, bytes calldata _data) external pure returns (uint re) {\n\n    (uint data) = abi.decode(_data, (uint));\n    re = data;\n\n  }\n\n  function getdata2(address _sender, uint _amount0, uint _amount1, bytes calldata _data) external pure returns (uint re) {\n\n    re = abi.decode(_data, (uint));\n\n  }\n\n  function getaddresses(address _sender, uint _amount0, uint _amount1, bytes calldata _data) \n  external \n  view\n  returns (address uf,address sr, address s)\n  {\n\n      (uint data) = abi.decode(_data, (uint));\n      uf = data == 0 ? unifactory : sushifactory;\n      address factory = uf;\n      IUniswapV2Router02 router = data == 0 ?  sushiRouter : uniRouter;\n      sr = address(router);\n\n      address[] memory path = new address[](2);\n\n      uint amountToken = _amount0 == 0 ? _amount1 : _amount0;\n      \n      address token0 = IUniswapV2Pair(msg.sender).token0();\n      address token1 = IUniswapV2Pair(msg.sender).token1();\n      if(factory == unifactory){\n        require(msg.sender == UniswapV2Library.pairFor(factory, token0, token1), \"Unauthorized From Uniswap\");\n      } else {\n        require(msg.sender == SushiswapV2Library.pairFor(factory, token0, token1), \"Unauthorized From Sushiswap\"); \n      }\n      s = msg.sender; \n\n  }\n\n}",
  "sourcePath": "/Users/usr0102794/opengsn/uni-sushi-flashswap/flashloaner-contract/contracts/FlashLoanerDual.sol",
  "compiler": {
    "name": "solc",
    "version": "0.6.6+commit.6c089d02.Emscripten.clang"
  },
  "schemaVersion": "3.3.3",
  "updatedAt": "2021-03-09T13:15:37.543Z",
  "networkType": "ethereum",
  "devdoc": {
    "methods": {}
  },
  "userdoc": {
    "methods": {}
  }
}