{
  "contractName": "FlashLoaner",
  "abi": [
    {
      "inputs": [
        {
          "internalType": "address",
          "name": "_factory",
          "type": "address"
        },
        {
          "internalType": "address",
          "name": "_uniRouter",
          "type": "address"
        },
        {
          "internalType": "address",
          "name": "_sushiRouter",
          "type": "address"
        }
      ],
      "stateMutability": "nonpayable",
      "type": "constructor"
    },
    {
      "inputs": [
        {
          "internalType": "address",
          "name": "_sender",
          "type": "address"
        },
        {
          "internalType": "uint256",
          "name": "_amount0",
          "type": "uint256"
        },
        {
          "internalType": "uint256",
          "name": "_amount1",
          "type": "uint256"
        },
        {
          "internalType": "bytes",
          "name": "_data",
          "type": "bytes"
        }
      ],
      "name": "uniswapV2Call",
      "outputs": [],
      "stateMutability": "nonpayable",
      "type": "function"
    }
  ],
  "bytecode": "0x60c060405234801561001057600080fd5b5060405161144c38038061144c8339818101604052606081101561003357600080fd5b810190808051906020019092919080519060200190929190805190602001909291905050508273ffffffffffffffffffffffffffffffffffffffff1660808173ffffffffffffffffffffffffffffffffffffffff1660601b815250508073ffffffffffffffffffffffffffffffffffffffff1660a08173ffffffffffffffffffffffffffffffffffffffff1660601b8152505050505060805160601c60a05160601c6113506100fc60003980610515528061062152508061029752806105e152506113506000f3fe608060405234801561001057600080fd5b506004361061002b5760003560e01c806310d1e85c14610030575b600080fd5b6100db6004803603608081101561004657600080fd5b81019080803573ffffffffffffffffffffffffffffffffffffffff16906020019092919080359060200190929190803590602001909291908035906020019064010000000081111561009757600080fd5b8201836020820111156100a957600080fd5b803590602001918460018302840111640100000000831117156100cb57600080fd5b90919293919293905050506100dd565b005b6060600267ffffffffffffffff811180156100f757600080fd5b506040519080825280602002602001820160405280156101265781602001602082028036833780820191505090505b5090506060600267ffffffffffffffff8111801561014357600080fd5b506040519080825280602002602001820160405280156101725781602001602082028036833780820191505090505b50905060008087146101845786610186565b855b905060003373ffffffffffffffffffffffffffffffffffffffff16630dfe16816040518163ffffffff1660e01b815260040160206040518083038186803b1580156101d057600080fd5b505afa1580156101e4573d6000803e3d6000fd5b505050506040513d60208110156101fa57600080fd5b8101908080519060200190929190505050905060003373ffffffffffffffffffffffffffffffffffffffff1663d21220a76040518163ffffffff1660e01b815260040160206040518083038186803b15801561025557600080fd5b505afa158015610269573d6000803e3d6000fd5b505050506040513d602081101561027f57600080fd5b810190808051906020019092919050505090506102bd7f00000000000000000000000000000000000000000000000000000000000000008383610a37565b73ffffffffffffffffffffffffffffffffffffffff163373ffffffffffffffffffffffffffffffffffffffff161461035d576040517f08c379a000000000000000000000000000000000000000000000000000000000815260040180806020018281038252600c8152602001807f556e617574686f72697a6564000000000000000000000000000000000000000081525060200191505060405180910390fd5b600089148061036c5750600088145b61037557600080fd5b600089146103835780610385565b815b8460008151811061039257fe5b602002602001019073ffffffffffffffffffffffffffffffffffffffff16908173ffffffffffffffffffffffffffffffffffffffff1681525050600089146103da57816103dc565b805b846001815181106103e957fe5b602002602001019073ffffffffffffffffffffffffffffffffffffffff16908173ffffffffffffffffffffffffffffffffffffffff1681525050600089146104315781610433565b805b8560008151811061044057fe5b602002602001019073ffffffffffffffffffffffffffffffffffffffff16908173ffffffffffffffffffffffffffffffffffffffff168152505060008914610488578061048a565b815b8560018151811061049757fe5b602002602001019073ffffffffffffffffffffffffffffffffffffffff16908173ffffffffffffffffffffffffffffffffffffffff16815250506000808a146104e057826104e2565b815b90506000808b146104f357826104f5565b835b90508173ffffffffffffffffffffffffffffffffffffffff1663095ea7b37f0000000000000000000000000000000000000000000000000000000000000000876040518363ffffffff1660e01b8152600401808373ffffffffffffffffffffffffffffffffffffffff1673ffffffffffffffffffffffffffffffffffffffff16815260200182815260200192505050602060405180830381600087803b15801561059e57600080fd5b505af11580156105b2573d6000803e3d6000fd5b505050506040513d60208110156105c857600080fd5b81019080805190602001909291905050505060006106077f00000000000000000000000000000000000000000000000000000000000000008789610b92565b60008151811061061357fe5b6020026020010151905060007f000000000000000000000000000000000000000000000000000000000000000073ffffffffffffffffffffffffffffffffffffffff166338ed173988848c307fffffffffffffffffffffffffffffffffffffffffffffffffffffffffffffffff6040518663ffffffff1660e01b815260040180868152602001858152602001806020018473ffffffffffffffffffffffffffffffffffffffff1673ffffffffffffffffffffffffffffffffffffffff168152602001838152602001828103825285818151815260200191508051906020019060200280838360005b838110156107165780820151818401526020810190506106fb565b505050509050019650505050505050600060405180830381600087803b15801561073f57600080fd5b505af1158015610753573d6000803e3d6000fd5b505050506040513d6000823e3d601f19601f82011682018060405250602081101561077d57600080fd5b810190808051604051939291908464010000000082111561079d57600080fd5b838201915060208201858111156107b357600080fd5b82518660208202830111640100000000821117156107d057600080fd5b8083526020830192505050908051906020019060200280838360005b838110156108075780820151818401526020810190506107ec565b5050505090500160405250505060018151811061082057fe5b6020026020010151905081811161089f576040517f08c379a00000000000000000000000000000000000000000000000000000000081526004018080602001828103825260098152602001807f4e6f2050726f666974000000000000000000000000000000000000000000000081525060200191505060405180910390fd5b8273ffffffffffffffffffffffffffffffffffffffff1663a9059cbb33846040518363ffffffff1660e01b8152600401808373ffffffffffffffffffffffffffffffffffffffff1673ffffffffffffffffffffffffffffffffffffffff16815260200182815260200192505050602060405180830381600087803b15801561092657600080fd5b505af115801561093a573d6000803e3d6000fd5b505050506040513d602081101561095057600080fd5b8101908080519060200190929190505050508273ffffffffffffffffffffffffffffffffffffffff1663a9059cbb8f8484036040518363ffffffff1660e01b8152600401808373ffffffffffffffffffffffffffffffffffffffff1673ffffffffffffffffffffffffffffffffffffffff16815260200182815260200192505050602060405180830381600087803b1580156109eb57600080fd5b505af11580156109ff573d6000803e3d6000fd5b505050506040513d6020811015610a1557600080fd5b8101908080519060200190929190505050505050505050505050505050505050565b6000806000610a468585610d12565b91509150858282604051602001808373ffffffffffffffffffffffffffffffffffffffff1673ffffffffffffffffffffffffffffffffffffffff1660601b81526014018273ffffffffffffffffffffffffffffffffffffffff1673ffffffffffffffffffffffffffffffffffffffff1660601b8152601401925050506040516020818303038152906040528051906020012060405160200180807fff000000000000000000000000000000000000000000000000000000000000008152506001018373ffffffffffffffffffffffffffffffffffffffff1673ffffffffffffffffffffffffffffffffffffffff1660601b8152601401828152602001807f96e8ac4277198ff8b6f785478aa9a39f403cb768dd02cbee326c3e7da348845f815250602001925050506040516020818303038152906040528051906020012060001c925050509392505050565b6060600282511015610c0c576040517f08c379a000000000000000000000000000000000000000000000000000000000815260040180806020018281038252601e8152602001807f556e697377617056324c6962726172793a20494e56414c49445f50415448000081525060200191505060405180910390fd5b815167ffffffffffffffff81118015610c2457600080fd5b50604051908082528060200260200182016040528015610c535781602001602082028036833780820191505090505b5090508281600183510381518110610c6757fe5b6020026020010181815250506000600183510390505b6000811115610d0a57600080610cbd87866001860381518110610c9c57fe5b6020026020010151878681518110610cb057fe5b6020026020010151610e89565b91509150610cdf848481518110610cd057fe5b60200260200101518383610fb2565b846001850381518110610cee57fe5b6020026020010181815250505050808060019003915050610c7d565b509392505050565b6000808273ffffffffffffffffffffffffffffffffffffffff168473ffffffffffffffffffffffffffffffffffffffff161415610d9a576040517f08c379a00000000000000000000000000000000000000000000000000000000081526004018080602001828103825260258152602001806112ad6025913960400191505060405180910390fd5b8273ffffffffffffffffffffffffffffffffffffffff168473ffffffffffffffffffffffffffffffffffffffff1610610dd4578284610dd7565b83835b8092508193505050600073ffffffffffffffffffffffffffffffffffffffff168273ffffffffffffffffffffffffffffffffffffffff161415610e82576040517f08c379a000000000000000000000000000000000000000000000000000000000815260040180806020018281038252601e8152602001807f556e697377617056324c6962726172793a205a45524f5f41444452455353000081525060200191505060405180910390fd5b9250929050565b6000806000610e988585610d12565b509050600080610ea9888888610a37565b73ffffffffffffffffffffffffffffffffffffffff16630902f1ac6040518163ffffffff1660e01b815260040160606040518083038186803b158015610eee57600080fd5b505afa158015610f02573d6000803e3d6000fd5b505050506040513d6060811015610f1857600080fd5b81019080805190602001909291908051906020019092919080519060200190929190505050506dffffffffffffffffffffffffffff1691506dffffffffffffffffffffffffffff1691508273ffffffffffffffffffffffffffffffffffffffff168773ffffffffffffffffffffffffffffffffffffffff1614610f9c578082610f9f565b81815b8095508196505050505050935093915050565b600080841161100c576040517f08c379a000000000000000000000000000000000000000000000000000000000815260040180806020018281038252602c815260200180611281602c913960400191505060405180910390fd5b60008311801561101c5750600082115b611071576040517f08c379a00000000000000000000000000000000000000000000000000000000081526004018080602001828103825260288152602001806112d26028913960400191505060405180910390fd5b600061109a6103e861108c87876110ef90919063ffffffff16565b6110ef90919063ffffffff16565b905060006110c56103e56110b7888761117590919063ffffffff16565b6110ef90919063ffffffff16565b90506110e460018284816110d557fe5b046111f890919063ffffffff16565b925050509392505050565b600080831415611102576000905061116f565b600082840290508284828161111357fe5b041461116a576040517f08c379a00000000000000000000000000000000000000000000000000000000081526004018080602001828103825260218152602001806112fa6021913960400191505060405180910390fd5b809150505b92915050565b6000828211156111ed576040517f08c379a000000000000000000000000000000000000000000000000000000000815260040180806020018281038252601e8152602001807f536166654d6174683a207375627472616374696f6e206f766572666c6f77000081525060200191505060405180910390fd5b818303905092915050565b600080828401905083811015611276576040517f08c379a000000000000000000000000000000000000000000000000000000000815260040180806020018281038252601b8152602001807f536166654d6174683a206164646974696f6e206f766572666c6f77000000000081525060200191505060405180910390fd5b809150509291505056fe556e697377617056324c6962726172793a20494e53554646494349454e545f4f55545055545f414d4f554e54556e697377617056324c6962726172793a204944454e544943414c5f414444524553534553556e697377617056324c6962726172793a20494e53554646494349454e545f4c4951554944495459536166654d6174683a206d756c7469706c69636174696f6e206f766572666c6f77a26469706673582212202bc10b65fa60b26a7440ce02f455c49b0a2181ad3f44935fc77627a59e8d38aa64736f6c63430006060033",
  "immutableReferences": {
    "7": [
      {
        "length": 32,
        "start": 663
      },
      {
        "length": 32,
        "start": 1505
      }
    ],
    "12": [
      {
        "length": 32,
        "start": 1301
      },
      {
        "length": 32,
        "start": 1569
      }
    ]
  },
  "source": "pragma solidity =0.6.6;\n\nimport './UniswapV2Library.sol';\nimport './interfaces/IUniswapV2Router02.sol';\nimport './interfaces/IUniswapV2Pair.sol';\nimport './interfaces/IERC20.sol';\n\ncontract FlashLoaner {\n  address immutable factory;\n  //uint constant deadline = 10 days;\n  uint constant deadline = 1000 days;\n\n  IUniswapV2Router02 immutable sushiRouter;\n\n  constructor(address _factory, address _uniRouter, address _sushiRouter) public {\n    factory = _factory;  \n    sushiRouter = IUniswapV2Router02(_sushiRouter);\n  }\n\n  function uniswapV2Call(address _sender, uint _amount0, uint _amount1, bytes calldata _data) external {\n      address[] memory path = new address[](2);\n      address[] memory path_get = new address[](2);\n\n      uint amountToken = _amount0 == 0 ? _amount1 : _amount0;\n      \n      address token0 = IUniswapV2Pair(msg.sender).token0();\n      address token1 = IUniswapV2Pair(msg.sender).token1();\n\n      require(msg.sender == UniswapV2Library.pairFor(factory, token0, token1), \"Unauthorized\"); \n      require(_amount0 == 0 || _amount1 == 0);\n\n      path_get[0] = _amount0 == 0 ? token0 : token1;\n      path_get[1] = _amount0 == 0 ? token1 : token0;\n\n      path[0] = _amount0 == 0 ? token1 : token0;\n      path[1] = _amount0 == 0 ? token0 : token1;\n\n      IERC20 token = IERC20(_amount0 == 0 ? token1 : token0);\n      IERC20 return_token = IERC20(_amount0 == 0 ? token0 : token1);\n      \n      token.approve(address(sushiRouter), amountToken);\n\n      // no need for require() check, if amount required is not sent sushiRouter will revert\n      uint amountRequired = UniswapV2Library.getAmountsIn(factory, amountToken, path_get)[0];\n      uint amountReceived = sushiRouter.swapExactTokensForTokens(amountToken, amountRequired, path, address(this), uint(-1))[1];\n\n      require(amountReceived > amountRequired, \"No Profit\");\n\n      // return dai\n      return_token.transfer(msg.sender, amountRequired);\n\n      // YEAHH PROFIT\n      return_token.transfer(_sender, amountReceived - amountRequired);\n  }\n}",
  "sourcePath": "/Users/usr0102794/opengsn/uni-sushi-flashswap/flashloaner-contract/contracts/FlashLoaner.sol",
  "compiler": {
    "name": "solc",
    "version": "0.6.6+commit.6c089d02.Emscripten.clang"
  },
  "schemaVersion": "3.3.3",
  "updatedAt": "2021-03-09T13:15:33.922Z",
  "networkType": "ethereum",
  "devdoc": {
    "methods": {}
  },
  "userdoc": {
    "methods": {}
  }
}