{
  "contractName": "FlashSwapV1V2",
  "abi": [
    {
      "inputs": [
        {
          "internalType": "address",
          "name": "_ufactory",
          "type": "address"
        },
        {
          "internalType": "address",
          "name": "_sfactory",
          "type": "address"
        },
        {
          "internalType": "address",
          "name": "_factoryV1",
          "type": "address"
        }
      ],
      "stateMutability": "nonpayable",
      "type": "constructor"
    },
    {
      "inputs": [],
      "name": "WETH",
      "outputs": [
        {
          "internalType": "contract IWETH",
          "name": "",
          "type": "address"
        }
      ],
      "stateMutability": "view",
      "type": "function",
      "constant": true
    },
    {
      "stateMutability": "payable",
      "type": "receive",
      "payable": true
    },
    {
      "inputs": [
        {
          "internalType": "address",
          "name": "sender",
          "type": "address"
        },
        {
          "internalType": "uint256",
          "name": "amount0",
          "type": "uint256"
        },
        {
          "internalType": "uint256",
          "name": "amount1",
          "type": "uint256"
        },
        {
          "internalType": "bytes",
          "name": "data",
          "type": "bytes"
        }
      ],
      "name": "uniswapV2Call",
      "outputs": [],
      "stateMutability": "nonpayable",
      "type": "function"
    }
  ],
  "bytecode": "0x60e060405234801561001057600080fd5b506040516123c53803806123c58339818101604052606081101561003357600080fd5b810190808051906020019092919080519060200190929190805190602001909291905050508073ffffffffffffffffffffffffffffffffffffffff1660808173ffffffffffffffffffffffffffffffffffffffff1660601b815250508273ffffffffffffffffffffffffffffffffffffffff1660a08173ffffffffffffffffffffffffffffffffffffffff1660601b815250508173ffffffffffffffffffffffffffffffffffffffff1660c08173ffffffffffffffffffffffffffffffffffffffff1660601b8152505050505060805160601c60a05160601c60c05160601c61227c610149600039806103a65280610a705280610da15250806102d65280610ab45280610de55250806107fa525061227c6000f3fe60806040526004361061002d5760003560e01c806310d1e85c14610039578063ad5c4648146100f357610034565b3661003457005b600080fd5b34801561004557600080fd5b506100f16004803603608081101561005c57600080fd5b81019080803573ffffffffffffffffffffffffffffffffffffffff1690602001909291908035906020019092919080359060200190929190803590602001906401000000008111156100ad57600080fd5b8201836020820111156100bf57600080fd5b803590602001918460018302840111640100000000831117156100e157600080fd5b909192939192939050505061014a565b005b3480156100ff57600080fd5b50610108611214565b604051808273ffffffffffffffffffffffffffffffffffffffff1673ffffffffffffffffffffffffffffffffffffffff16815260200191505060405180910390f35b6060600267ffffffffffffffff8111801561016457600080fd5b506040519080825280602002602001820160405280156101935781602001602082028036833780820191505090505b5090506000806000858560208110156101ab57600080fd5b8101908080359060200190929190505050905060003373ffffffffffffffffffffffffffffffffffffffff16630dfe16816040518163ffffffff1660e01b815260040160206040518083038186803b15801561020657600080fd5b505afa15801561021a573d6000803e3d6000fd5b505050506040513d602081101561023057600080fd5b8101908080519060200190929190505050905060003373ffffffffffffffffffffffffffffffffffffffff1663d21220a76040518163ffffffff1660e01b815260040160206040518083038186803b15801561028b57600080fd5b505afa15801561029f573d6000803e3d6000fd5b505050506040513d60208110156102b557600080fd5b81019080805190602001909291905050509050600b8314156103a1576102fc7f0000000000000000000000000000000000000000000000000000000000000000838361122c565b73ffffffffffffffffffffffffffffffffffffffff163373ffffffffffffffffffffffffffffffffffffffff161461039c576040517f08c379a00000000000000000000000000000000000000000000000000000000081526004018080602001828103825260198152602001807f556e617574686f72697a65642046726f6d20556e69737761700000000000000081525060200191505060405180910390fd5b61046d565b6103cc7f00000000000000000000000000000000000000000000000000000000000000008383611387565b73ffffffffffffffffffffffffffffffffffffffff163373ffffffffffffffffffffffffffffffffffffffff161461046c576040517f08c379a000000000000000000000000000000000000000000000000000000000815260040180806020018281038252601b8152602001807f556e617574686f72697a65642046726f6d20537573686973776170000000000081525060200191505060405180910390fd5b5b60008a148061047c5750600089145b6104ee576040517f08c379a000000000000000000000000000000000000000000000000000000000815260040180806020018281038252600f8152602001807f496e707574206e6f74207269676874000000000000000000000000000000000081525060200191505060405180910390fd5b60008a146104fc57806104fe565b815b8660008151811061050b57fe5b602002602001019073ffffffffffffffffffffffffffffffffffffffff16908173ffffffffffffffffffffffffffffffffffffffff168152505060008a146105535781610555565b805b8660018151811061056257fe5b602002602001019073ffffffffffffffffffffffffffffffffffffffff16908173ffffffffffffffffffffffffffffffffffffffff168152505073c02aaa39b223fe8d0a0e5c4f27ead9083c756cc273ffffffffffffffffffffffffffffffffffffffff168273ffffffffffffffffffffffffffffffffffffffff16146105e957896105eb565b885b945073c02aaa39b223fe8d0a0e5c4f27ead9083c756cc273ffffffffffffffffffffffffffffffffffffffff168273ffffffffffffffffffffffffffffffffffffffff161461063a578861063c565b895b9350505073c02aaa39b223fe8d0a0e5c4f27ead9083c756cc273ffffffffffffffffffffffffffffffffffffffff168460008151811061067857fe5b602002602001015173ffffffffffffffffffffffffffffffffffffffff1614806106f5575073c02aaa39b223fe8d0a0e5c4f27ead9083c756cc273ffffffffffffffffffffffffffffffffffffffff16846001815181106106d557fe5b602002602001015173ffffffffffffffffffffffffffffffffffffffff16145b610767576040517f08c379a000000000000000000000000000000000000000000000000000000000815260040180806020018281038252600e8152602001807f57455448206973206e656564656400000000000000000000000000000000000081525060200191505060405180910390fd5b600073c02aaa39b223fe8d0a0e5c4f27ead9083c756cc273ffffffffffffffffffffffffffffffffffffffff16856000815181106107a157fe5b602002602001015173ffffffffffffffffffffffffffffffffffffffff16146107de57846000815181106107d157fe5b60200260200101516107f4565b846001815181106107eb57fe5b60200260200101515b905060007f000000000000000000000000000000000000000000000000000000000000000073ffffffffffffffffffffffffffffffffffffffff166306f2bf62836040518263ffffffff1660e01b8152600401808273ffffffffffffffffffffffffffffffffffffffff1673ffffffffffffffffffffffffffffffffffffffff16815260200191505060206040518083038186803b15801561089557600080fd5b505afa1580156108a9573d6000803e3d6000fd5b505050506040513d60208110156108bf57600080fd5b810190808051906020019092919050505090506000851115610d92578173ffffffffffffffffffffffffffffffffffffffff1663095ea7b382876040518363ffffffff1660e01b8152600401808373ffffffffffffffffffffffffffffffffffffffff1673ffffffffffffffffffffffffffffffffffffffff16815260200182815260200192505050602060405180830381600087803b15801561096257600080fd5b505af1158015610976573d6000803e3d6000fd5b505050506040513d602081101561098c57600080fd5b81019080805190602001909291905050505060008173ffffffffffffffffffffffffffffffffffffffff166395e3c50b8760017fffffffffffffffffffffffffffffffffffffffffffffffffffffffffffffffff6040518463ffffffff1660e01b8152600401808481526020018381526020018281526020019350505050602060405180830381600087803b158015610a2457600080fd5b505af1158015610a38573d6000803e3d6000fd5b505050506040513d6020811015610a4e57600080fd5b810190808051906020019092919050505090506000600b8514610aaf57610a967f0000000000000000000000000000000000000000000000000000000000000000888a6114e2565b600081518110610aa257fe5b6020026020010151610aef565b610ada7f0000000000000000000000000000000000000000000000000000000000000000888a611662565b600081518110610ae657fe5b60200260200101515b9050808211610b66576040517f08c379a00000000000000000000000000000000000000000000000000000000081526004018080602001828103825260098152602001807f4e4f2050726f666974000000000000000000000000000000000000000000000081525060200191505060405180910390fd5b73c02aaa39b223fe8d0a0e5c4f27ead9083c756cc273ffffffffffffffffffffffffffffffffffffffff1663d0e30db0836040518263ffffffff1660e01b81526004016000604051808303818588803b158015610bc257600080fd5b505af1158015610bd6573d6000803e3d6000fd5b505050505073c02aaa39b223fe8d0a0e5c4f27ead9083c756cc273ffffffffffffffffffffffffffffffffffffffff1663a9059cbb33836040518363ffffffff1660e01b8152600401808373ffffffffffffffffffffffffffffffffffffffff1673ffffffffffffffffffffffffffffffffffffffff16815260200182815260200192505050602060405180830381600087803b158015610c7657600080fd5b505af1158015610c8a573d6000803e3d6000fd5b505050506040513d6020811015610ca057600080fd5b81019080805190602001909291905050505073c02aaa39b223fe8d0a0e5c4f27ead9083c756cc273ffffffffffffffffffffffffffffffffffffffff1663a9059cbb8e8385036040518363ffffffff1660e01b8152600401808373ffffffffffffffffffffffffffffffffffffffff1673ffffffffffffffffffffffffffffffffffffffff16815260200182815260200192505050602060405180830381600087803b158015610d4f57600080fd5b505af1158015610d63573d6000803e3d6000fd5b505050506040513d6020811015610d7957600080fd5b8101908080519060200190929190505050505050611207565b6000600b8414610de057610dc77f000000000000000000000000000000000000000000000000000000000000000086896114e2565b600081518110610dd357fe5b6020026020010151610e20565b610e0b7f00000000000000000000000000000000000000000000000000000000000000008689611662565b600081518110610e1757fe5b60200260200101515b905060008273ffffffffffffffffffffffffffffffffffffffff166359e94862836040518263ffffffff1660e01b81526004018082815260200191505060206040518083038186803b158015610e7557600080fd5b505afa158015610e89573d6000803e3d6000fd5b505050506040513d6020811015610e9f57600080fd5b8101908080519060200190929190505050905073c02aaa39b223fe8d0a0e5c4f27ead9083c756cc273ffffffffffffffffffffffffffffffffffffffff16632e1a7d4d826040518263ffffffff1660e01b815260040180828152602001915050600060405180830381600087803b158015610f1957600080fd5b505af1158015610f2d573d6000803e3d6000fd5b505050508273ffffffffffffffffffffffffffffffffffffffff1663f39b5b9b82847fffffffffffffffffffffffffffffffffffffffffffffffffffffffffffffffff6040518463ffffffff1660e01b815260040180838152602001828152602001925050506020604051808303818588803b158015610fac57600080fd5b505af1158015610fc0573d6000803e3d6000fd5b50505050506040513d6020811015610fd757600080fd5b81019080805190602001909291905050505080861161105e576040517f08c379a00000000000000000000000000000000000000000000000000000000081526004018080602001828103825260098152602001807f4e4f2050726f666974000000000000000000000000000000000000000000000081525060200191505060405180910390fd5b8373ffffffffffffffffffffffffffffffffffffffff1663a9059cbb33846040518363ffffffff1660e01b8152600401808373ffffffffffffffffffffffffffffffffffffffff1673ffffffffffffffffffffffffffffffffffffffff16815260200182815260200192505050602060405180830381600087803b1580156110e557600080fd5b505af11580156110f9573d6000803e3d6000fd5b505050506040513d602081101561110f57600080fd5b810190808051906020019092919050505061112657fe5b73c02aaa39b223fe8d0a0e5c4f27ead9083c756cc273ffffffffffffffffffffffffffffffffffffffff1663a9059cbb8e8389036040518363ffffffff1660e01b8152600401808373ffffffffffffffffffffffffffffffffffffffff1673ffffffffffffffffffffffffffffffffffffffff16815260200182815260200192505050602060405180830381600087803b1580156111c357600080fd5b505af11580156111d7573d6000803e3d6000fd5b505050506040513d60208110156111ed57600080fd5b810190808051906020019092919050505061120457fe5b50505b5050505050505050505050565b73c02aaa39b223fe8d0a0e5c4f27ead9083c756cc281565b600080600061123b85856117e2565b91509150858282604051602001808373ffffffffffffffffffffffffffffffffffffffff1673ffffffffffffffffffffffffffffffffffffffff1660601b81526014018273ffffffffffffffffffffffffffffffffffffffff1673ffffffffffffffffffffffffffffffffffffffff1660601b8152601401925050506040516020818303038152906040528051906020012060405160200180807fff000000000000000000000000000000000000000000000000000000000000008152506001018373ffffffffffffffffffffffffffffffffffffffff1673ffffffffffffffffffffffffffffffffffffffff1660601b8152601401828152602001807f96e8ac4277198ff8b6f785478aa9a39f403cb768dd02cbee326c3e7da348845f815250602001925050506040516020818303038152906040528051906020012060001c925050509392505050565b60008060006113968585611959565b91509150858282604051602001808373ffffffffffffffffffffffffffffffffffffffff1673ffffffffffffffffffffffffffffffffffffffff1660601b81526014018273ffffffffffffffffffffffffffffffffffffffff1673ffffffffffffffffffffffffffffffffffffffff1660601b8152601401925050506040516020818303038152906040528051906020012060405160200180807fff000000000000000000000000000000000000000000000000000000000000008152506001018373ffffffffffffffffffffffffffffffffffffffff1673ffffffffffffffffffffffffffffffffffffffff1660601b8152601401828152602001807fe18a34eb0e04b04f7a0ac29a6e80748dca96319b42c54d679cb821dca90c6303815250602001925050506040516020818303038152906040528051906020012060001c925050509392505050565b606060028251101561155c576040517f08c379a00000000000000000000000000000000000000000000000000000000081526004018080602001828103825260208152602001807f53757368697377617056324c6962726172793a20494e56414c49445f5041544881525060200191505060405180910390fd5b815167ffffffffffffffff8111801561157457600080fd5b506040519080825280602002602001820160405280156115a35781602001602082028036833780820191505090505b50905082816001835103815181106115b757fe5b6020026020010181815250506000600183510390505b600081111561165a5760008061160d878660018603815181106115ec57fe5b602002602001015187868151811061160057fe5b6020026020010151611ad0565b9150915061162f84848151811061162057fe5b60200260200101518383611bf9565b84600185038151811061163e57fe5b60200260200101818152505050508080600190039150506115cd565b509392505050565b60606002825110156116dc576040517f08c379a000000000000000000000000000000000000000000000000000000000815260040180806020018281038252601e8152602001807f556e697377617056324c6962726172793a20494e56414c49445f50415448000081525060200191505060405180910390fd5b815167ffffffffffffffff811180156116f457600080fd5b506040519080825280602002602001820160405280156117235781602001602082028036833780820191505090505b509050828160018351038151811061173757fe5b6020026020010181815250506000600183510390505b60008111156117da5760008061178d8786600186038151811061176c57fe5b602002602001015187868151811061178057fe5b6020026020010151611d36565b915091506117af8484815181106117a057fe5b60200260200101518383611e5f565b8460018503815181106117be57fe5b602002602001018181525050505080806001900391505061174d565b509392505050565b6000808273ffffffffffffffffffffffffffffffffffffffff168473ffffffffffffffffffffffffffffffffffffffff16141561186a576040517f08c379a00000000000000000000000000000000000000000000000000000000081526004018080602001828103825260258152602001806121d96025913960400191505060405180910390fd5b8273ffffffffffffffffffffffffffffffffffffffff168473ffffffffffffffffffffffffffffffffffffffff16106118a45782846118a7565b83835b8092508193505050600073ffffffffffffffffffffffffffffffffffffffff168273ffffffffffffffffffffffffffffffffffffffff161415611952576040517f08c379a000000000000000000000000000000000000000000000000000000000815260040180806020018281038252601e8152602001807f556e697377617056324c6962726172793a205a45524f5f41444452455353000081525060200191505060405180910390fd5b9250929050565b6000808273ffffffffffffffffffffffffffffffffffffffff168473ffffffffffffffffffffffffffffffffffffffff1614156119e1576040517f08c379a00000000000000000000000000000000000000000000000000000000081526004018080602001828103825260278152602001806121586027913960400191505060405180910390fd5b8273ffffffffffffffffffffffffffffffffffffffff168473ffffffffffffffffffffffffffffffffffffffff1610611a1b578284611a1e565b83835b8092508193505050600073ffffffffffffffffffffffffffffffffffffffff168273ffffffffffffffffffffffffffffffffffffffff161415611ac9576040517f08c379a00000000000000000000000000000000000000000000000000000000081526004018080602001828103825260208152602001807f53757368697377617056324c6962726172793a205a45524f5f4144445245535381525060200191505060405180910390fd5b9250929050565b6000806000611adf8585611959565b509050600080611af0888888611387565b73ffffffffffffffffffffffffffffffffffffffff16630902f1ac6040518163ffffffff1660e01b815260040160606040518083038186803b158015611b3557600080fd5b505afa158015611b49573d6000803e3d6000fd5b505050506040513d6060811015611b5f57600080fd5b81019080805190602001909291908051906020019092919080519060200190929190505050506dffffffffffffffffffffffffffff1691506dffffffffffffffffffffffffffff1691508273ffffffffffffffffffffffffffffffffffffffff168773ffffffffffffffffffffffffffffffffffffffff1614611be3578082611be6565b81815b8095508196505050505050935093915050565b6000808411611c53576040517f08c379a000000000000000000000000000000000000000000000000000000000815260040180806020018281038252602e81526020018061217f602e913960400191505060405180910390fd5b600083118015611c635750600082115b611cb8576040517f08c379a000000000000000000000000000000000000000000000000000000000815260040180806020018281038252602a81526020018061212e602a913960400191505060405180910390fd5b6000611ce16103e8611cd38787611f9c90919063ffffffff16565b611f9c90919063ffffffff16565b90506000611d0c6103e5611cfe888761202290919063ffffffff16565b611f9c90919063ffffffff16565b9050611d2b6001828481611d1c57fe5b046120a590919063ffffffff16565b925050509392505050565b6000806000611d4585856117e2565b509050600080611d5688888861122c565b73ffffffffffffffffffffffffffffffffffffffff16630902f1ac6040518163ffffffff1660e01b815260040160606040518083038186803b158015611d9b57600080fd5b505afa158015611daf573d6000803e3d6000fd5b505050506040513d6060811015611dc557600080fd5b81019080805190602001909291908051906020019092919080519060200190929190505050506dffffffffffffffffffffffffffff1691506dffffffffffffffffffffffffffff1691508273ffffffffffffffffffffffffffffffffffffffff168773ffffffffffffffffffffffffffffffffffffffff1614611e49578082611e4c565b81815b8095508196505050505050935093915050565b6000808411611eb9576040517f08c379a000000000000000000000000000000000000000000000000000000000815260040180806020018281038252602c8152602001806121ad602c913960400191505060405180910390fd5b600083118015611ec95750600082115b611f1e576040517f08c379a00000000000000000000000000000000000000000000000000000000081526004018080602001828103825260288152602001806121fe6028913960400191505060405180910390fd5b6000611f476103e8611f398787611f9c90919063ffffffff16565b611f9c90919063ffffffff16565b90506000611f726103e5611f64888761202290919063ffffffff16565b611f9c90919063ffffffff16565b9050611f916001828481611f8257fe5b046120a590919063ffffffff16565b925050509392505050565b600080831415611faf576000905061201c565b6000828402905082848281611fc057fe5b0414612017576040517f08c379a00000000000000000000000000000000000000000000000000000000081526004018080602001828103825260218152602001806122266021913960400191505060405180910390fd5b809150505b92915050565b60008282111561209a576040517f08c379a000000000000000000000000000000000000000000000000000000000815260040180806020018281038252601e8152602001807f536166654d6174683a207375627472616374696f6e206f766572666c6f77000081525060200191505060405180910390fd5b818303905092915050565b600080828401905083811015612123576040517f08c379a000000000000000000000000000000000000000000000000000000000815260040180806020018281038252601b8152602001807f536166654d6174683a206164646974696f6e206f766572666c6f77000000000081525060200191505060405180910390fd5b809150509291505056fe53757368697377617056324c6962726172793a20494e53554646494349454e545f4c495155494449545953757368697377617056324c6962726172793a204944454e544943414c5f41444452455353455353757368697377617056324c6962726172793a20494e53554646494349454e545f4f55545055545f414d4f554e54556e697377617056324c6962726172793a20494e53554646494349454e545f4f55545055545f414d4f554e54556e697377617056324c6962726172793a204944454e544943414c5f414444524553534553556e697377617056324c6962726172793a20494e53554646494349454e545f4c4951554944495459536166654d6174683a206d756c7469706c69636174696f6e206f766572666c6f77a26469706673582212209622f802cc9d9b339c0b40393c05f6245805e64cb721470135b13de3215087e464736f6c63430006060033",
  "immutableReferences": {
    "1926": [
      {
        "length": 32,
        "start": 2042
      }
    ],
    "1928": [
      {
        "length": 32,
        "start": 726
      },
      {
        "length": 32,
        "start": 2740
      },
      {
        "length": 32,
        "start": 3557
      }
    ],
    "1930": [
      {
        "length": 32,
        "start": 934
      },
      {
        "length": 32,
        "start": 2672
      },
      {
        "length": 32,
        "start": 3489
      }
    ]
  },
  "source": "pragma solidity =0.6.6;\n\n//import '@uniswap/v2-core/contracts/interfaces/IUniswapV2Callee.sol';\n\n//import '../libraries/UniswapV2Library.sol';\nimport './interfaces/V1/IUniswapV1FactoryV1.sol';\nimport './interfaces/V1/IUniswapV1ExchangeV1.sol';\n//import '../interfaces/IUniswapV2Router01.sol';\n//import '../interfaces/IERC20.sol';\nimport './interfaces/IWETH.sol';\n\nimport './UniswapV2Library.sol';\nimport './SushiswapV2Library.sol';\nimport './interfaces/IUniswapV2Router02.sol';\nimport './interfaces/IUniswapV2Pair.sol';\nimport './interfaces/IERC20.sol';\n\ncontract FlashSwapV1V2 {\n    IUniswapV1FactoryV1 immutable factoryV1;\n    address immutable ufactory;\n    address immutable sfactory;\n    IWETH public constant WETH = IWETH(0xC02aaA39b223FE8D0A0e5C4F27eAD9083C756Cc2);\n\n    constructor(address _ufactory, address _sfactory, address _factoryV1) public {\n        factoryV1 = IUniswapV1FactoryV1(_factoryV1);\n        ufactory = _ufactory;\n        sfactory = _sfactory;\n    }\n\n    // needs to accept ETH from any V1 exchange and WETH. ideally this could be enforced, as in the router,\n    // but it's not possible because it requires a call to the v1 factory, which takes too much gas\n    receive() external payable {}\n\n    // gets tokens/WETH via a V2 flash swap, swaps for the ETH/tokens on V1, repays V2, and keeps the rest!\n    function uniswapV2Call(address sender, uint amount0, uint amount1, bytes calldata data) external {\n        address[] memory path = new address[](2);\n        uint amountToken;\n        uint amountETH;\n        (uint flag) = abi.decode(data, (uint));\n\n        //address factory = flag == 0 ? ufactory : sfactory;\n\n        { // scope for token{0,1}, avoids stack too deep errors\n        address token0 = IUniswapV2Pair(msg.sender).token0();\n        address token1 = IUniswapV2Pair(msg.sender).token1();\n        if(flag == 11){\n            require(msg.sender == UniswapV2Library.pairFor(ufactory, token0, token1), \"Unauthorized From Uniswap\"); // ensure that msg.sender is actually a V2 pair\n        } else {\n            require(msg.sender == SushiswapV2Library.pairFor(sfactory, token0, token1), \"Unauthorized From Sushiswap\"); // ensure that msg.sender is actually a V2 pair\n        }\n        \n        require(amount0 == 0 || amount1 == 0, \"Input not right\"); // this strategy is unidirectional\n        path[0] = amount0 == 0 ? token0 : token1;\n        path[1] = amount0 == 0 ? token1 : token0;\n        amountToken = token0 == address(WETH) ? amount1 : amount0;\n        amountETH = token0 == address(WETH) ? amount0 : amount1;\n        }\n\n        require(path[0] == address(WETH) || path[1] == address(WETH), \"WETH is needed\"); // this strategy only works with a V2 WETH pair\n        IERC20 token = IERC20(path[0] == address(WETH) ? path[1] : path[0]);\n        IUniswapV1ExchangeV1 exchangeV1 = IUniswapV1ExchangeV1(factoryV1.getExchange(address(token))); // get V1 exchange\n\n        if (amountToken > 0) {\n            //(uint minETH) = abi.decode(data, (uint)); // slippage parameter for V1, passed in by caller\n            token.approve(address(exchangeV1), amountToken);\n            uint amountReceived = exchangeV1.tokenToEthSwapInput(amountToken, 1, uint(-1));\n            uint amountRequired = flag == 11 ? UniswapV2Library.getAmountsIn(ufactory, amountToken, path)[0] : SushiswapV2Library.getAmountsIn(sfactory, amountToken, path)[0];\n            require(amountReceived > amountRequired, \"NO Profit\"); // fail if we didn't get enough ETH back to repay our flash loan\n            // WETH.deposit{value: amountRequired}();\n            WETH.deposit{value: amountReceived}();\n            WETH.transfer(msg.sender, amountRequired); // return WETH to V2 pair\n            //(bool success,) = sender.call{value: amountReceived - amountRequired}(new bytes(0)); // keep the rest! (ETH)\n            //assert(success);\n            WETH.transfer(sender, amountReceived - amountRequired); // return WETH profit to sender \n        } else {\n            //(uint minTokens) = abi.decode(data, (uint)); // slippage parameter for V1, passed in by caller\n            //WETH.withdraw(amountETH);\n            //uint amountReceived = exchangeV1.ethToTokenSwapInput{value: amountETH}(minTokens, uint(-1));\n            //uint amountRequired = UniswapV2Library.getAmountsIn(factory, amountETH, path)[0];\n            uint amountRequired = flag == 11 ? UniswapV2Library.getAmountsIn(ufactory, amountETH, path)[0] : SushiswapV2Library.getAmountsIn(sfactory, amountETH, path)[0];\n            //uint256 token_reserve = token.balanceOf(address(exchangeV1));\n            //uint256 tokens_sold = getOutputPrice(eth_bought, token_reserve, address(this).balance);\n            //uint valueEth = exchangeV1.getOutputPrice(amountRequired, address(exchangeV1).balance, token_reserve);\n            uint valueEth = exchangeV1.getEthToTokenOutputPrice(amountRequired);\n            WETH.withdraw(valueEth);\n            exchangeV1.ethToTokenSwapInput{value: valueEth}(amountRequired, uint(-1));\n\n            require(amountETH > valueEth, \"NO Profit\"); // fail if we didn't get enough tokens back to repay our flash loan\n            assert(token.transfer(msg.sender, amountRequired)); // return tokens to V2 pair\n            assert(WETH.transfer(sender, amountETH - valueEth)); // keep the rest! (tokens)\n        }\n    }\n}\n",
  "sourcePath": "/Users/usr0102794/opengsn/uni-sushi-flashswap/flashloaner-contract/contracts/FlashSwapV1V2.sol",
  "compiler": {
    "name": "solc",
    "version": "0.6.6+commit.6c089d02.Emscripten.clang"
  },
  "schemaVersion": "3.3.3",
  "updatedAt": "2021-03-09T13:15:38.627Z",
  "networkType": "ethereum",
  "devdoc": {
    "methods": {}
  },
  "userdoc": {
    "methods": {}
  }
}