{
  "contractName": "FlashSwapV1V2RE",
  "abi": [
    {
      "inputs": [
        {
          "internalType": "address",
          "name": "_ufactory",
          "type": "address"
        },
        {
          "internalType": "address",
          "name": "_sfactory",
          "type": "address"
        },
        {
          "internalType": "address",
          "name": "_factoryV1",
          "type": "address"
        }
      ],
      "stateMutability": "nonpayable",
      "type": "constructor"
    },
    {
      "inputs": [],
      "name": "WETH",
      "outputs": [
        {
          "internalType": "contract IWETH",
          "name": "",
          "type": "address"
        }
      ],
      "stateMutability": "view",
      "type": "function",
      "constant": true
    },
    {
      "stateMutability": "payable",
      "type": "receive",
      "payable": true
    },
    {
      "inputs": [
        {
          "internalType": "address",
          "name": "sender",
          "type": "address"
        },
        {
          "internalType": "uint256",
          "name": "amount0",
          "type": "uint256"
        },
        {
          "internalType": "uint256",
          "name": "amount1",
          "type": "uint256"
        },
        {
          "internalType": "bytes",
          "name": "data",
          "type": "bytes"
        }
      ],
      "name": "uniswapV2Call",
      "outputs": [],
      "stateMutability": "nonpayable",
      "type": "function"
    }
  ],
  "bytecode": "0x60e060405234801561001057600080fd5b506040516111fb3803806111fb8339818101604052606081101561003357600080fd5b810190808051906020019092919080519060200190929190805190602001909291905050508073ffffffffffffffffffffffffffffffffffffffff1660808173ffffffffffffffffffffffffffffffffffffffff1660601b815250508273ffffffffffffffffffffffffffffffffffffffff1660a08173ffffffffffffffffffffffffffffffffffffffff1660601b815250508173ffffffffffffffffffffffffffffffffffffffff1660c08173ffffffffffffffffffffffffffffffffffffffff1660601b8152505050505060805160601c60a05160601c60c05160601c6110c6610135600039806103a65250806102d65250806107fa52506110c66000f3fe60806040526004361061002d5760003560e01c806310d1e85c14610039578063ad5c4648146100f357610034565b3661003457005b600080fd5b34801561004557600080fd5b506100f16004803603608081101561005c57600080fd5b81019080803573ffffffffffffffffffffffffffffffffffffffff1690602001909291908035906020019092919080359060200190929190803590602001906401000000008111156100ad57600080fd5b8201836020820111156100bf57600080fd5b803590602001918460018302840111640100000000831117156100e157600080fd5b909192939192939050505061014a565b005b3480156100ff57600080fd5b50610108610a88565b604051808273ffffffffffffffffffffffffffffffffffffffff1673ffffffffffffffffffffffffffffffffffffffff16815260200191505060405180910390f35b6060600267ffffffffffffffff8111801561016457600080fd5b506040519080825280602002602001820160405280156101935781602001602082028036833780820191505090505b5090506000806000858560208110156101ab57600080fd5b8101908080359060200190929190505050905060003373ffffffffffffffffffffffffffffffffffffffff16630dfe16816040518163ffffffff1660e01b815260040160206040518083038186803b15801561020657600080fd5b505afa15801561021a573d6000803e3d6000fd5b505050506040513d602081101561023057600080fd5b8101908080519060200190929190505050905060003373ffffffffffffffffffffffffffffffffffffffff1663d21220a76040518163ffffffff1660e01b815260040160206040518083038186803b15801561028b57600080fd5b505afa15801561029f573d6000803e3d6000fd5b505050506040513d60208110156102b557600080fd5b81019080805190602001909291905050509050600b8314156103a1576102fc7f00000000000000000000000000000000000000000000000000000000000000008383610aa0565b73ffffffffffffffffffffffffffffffffffffffff163373ffffffffffffffffffffffffffffffffffffffff161461039c576040517f08c379a00000000000000000000000000000000000000000000000000000000081526004018080602001828103825260198152602001807f556e617574686f72697a65642046726f6d20556e69737761700000000000000081525060200191505060405180910390fd5b61046d565b6103cc7f00000000000000000000000000000000000000000000000000000000000000008383610bfb565b73ffffffffffffffffffffffffffffffffffffffff163373ffffffffffffffffffffffffffffffffffffffff161461046c576040517f08c379a000000000000000000000000000000000000000000000000000000000815260040180806020018281038252601b8152602001807f556e617574686f72697a65642046726f6d20537573686973776170000000000081525060200191505060405180910390fd5b5b60008a148061047c5750600089145b6104ee576040517f08c379a000000000000000000000000000000000000000000000000000000000815260040180806020018281038252600f8152602001807f496e707574206e6f74207269676874000000000000000000000000000000000081525060200191505060405180910390fd5b60008a146104fc57806104fe565b815b8660008151811061050b57fe5b602002602001019073ffffffffffffffffffffffffffffffffffffffff16908173ffffffffffffffffffffffffffffffffffffffff168152505060008a146105535781610555565b805b8660018151811061056257fe5b602002602001019073ffffffffffffffffffffffffffffffffffffffff16908173ffffffffffffffffffffffffffffffffffffffff168152505073c02aaa39b223fe8d0a0e5c4f27ead9083c756cc273ffffffffffffffffffffffffffffffffffffffff168273ffffffffffffffffffffffffffffffffffffffff16146105e957896105eb565b885b945073c02aaa39b223fe8d0a0e5c4f27ead9083c756cc273ffffffffffffffffffffffffffffffffffffffff168273ffffffffffffffffffffffffffffffffffffffff161461063a578861063c565b895b9350505073c02aaa39b223fe8d0a0e5c4f27ead9083c756cc273ffffffffffffffffffffffffffffffffffffffff168460008151811061067857fe5b602002602001015173ffffffffffffffffffffffffffffffffffffffff1614806106f5575073c02aaa39b223fe8d0a0e5c4f27ead9083c756cc273ffffffffffffffffffffffffffffffffffffffff16846001815181106106d557fe5b602002602001015173ffffffffffffffffffffffffffffffffffffffff16145b610767576040517f08c379a000000000000000000000000000000000000000000000000000000000815260040180806020018281038252600e8152602001807f57455448206973206e656564656400000000000000000000000000000000000081525060200191505060405180910390fd5b600073c02aaa39b223fe8d0a0e5c4f27ead9083c756cc273ffffffffffffffffffffffffffffffffffffffff16856000815181106107a157fe5b602002602001015173ffffffffffffffffffffffffffffffffffffffff16146107de57846000815181106107d157fe5b60200260200101516107f4565b846001815181106107eb57fe5b60200260200101515b905060007f000000000000000000000000000000000000000000000000000000000000000073ffffffffffffffffffffffffffffffffffffffff166306f2bf62836040518263ffffffff1660e01b8152600401808273ffffffffffffffffffffffffffffffffffffffff1673ffffffffffffffffffffffffffffffffffffffff16815260200191505060206040518083038186803b15801561089557600080fd5b505afa1580156108a9573d6000803e3d6000fd5b505050506040513d60208110156108bf57600080fd5b8101908080519060200190929190505050905060008511156109a3578173ffffffffffffffffffffffffffffffffffffffff1663a9059cbb33876040518363ffffffff1660e01b8152600401808373ffffffffffffffffffffffffffffffffffffffff1673ffffffffffffffffffffffffffffffffffffffff16815260200182815260200192505050602060405180830381600087803b15801561096257600080fd5b505af1158015610976573d6000803e3d6000fd5b505050506040513d602081101561098c57600080fd5b810190808051906020019092919050505050610a7b565b73c02aaa39b223fe8d0a0e5c4f27ead9083c756cc273ffffffffffffffffffffffffffffffffffffffff1663a9059cbb33866040518363ffffffff1660e01b8152600401808373ffffffffffffffffffffffffffffffffffffffff1673ffffffffffffffffffffffffffffffffffffffff16815260200182815260200192505050602060405180830381600087803b158015610a3e57600080fd5b505af1158015610a52573d6000803e3d6000fd5b505050506040513d6020811015610a6857600080fd5b8101908080519060200190929190505050505b5050505050505050505050565b73c02aaa39b223fe8d0a0e5c4f27ead9083c756cc281565b6000806000610aaf8585610d56565b91509150858282604051602001808373ffffffffffffffffffffffffffffffffffffffff1673ffffffffffffffffffffffffffffffffffffffff1660601b81526014018273ffffffffffffffffffffffffffffffffffffffff1673ffffffffffffffffffffffffffffffffffffffff1660601b8152601401925050506040516020818303038152906040528051906020012060405160200180807fff000000000000000000000000000000000000000000000000000000000000008152506001018373ffffffffffffffffffffffffffffffffffffffff1673ffffffffffffffffffffffffffffffffffffffff1660601b8152601401828152602001807f96e8ac4277198ff8b6f785478aa9a39f403cb768dd02cbee326c3e7da348845f815250602001925050506040516020818303038152906040528051906020012060001c925050509392505050565b6000806000610c0a8585610ecd565b91509150858282604051602001808373ffffffffffffffffffffffffffffffffffffffff1673ffffffffffffffffffffffffffffffffffffffff1660601b81526014018273ffffffffffffffffffffffffffffffffffffffff1673ffffffffffffffffffffffffffffffffffffffff1660601b8152601401925050506040516020818303038152906040528051906020012060405160200180807fff000000000000000000000000000000000000000000000000000000000000008152506001018373ffffffffffffffffffffffffffffffffffffffff1673ffffffffffffffffffffffffffffffffffffffff1660601b8152601401828152602001807fe18a34eb0e04b04f7a0ac29a6e80748dca96319b42c54d679cb821dca90c6303815250602001925050506040516020818303038152906040528051906020012060001c925050509392505050565b6000808273ffffffffffffffffffffffffffffffffffffffff168473ffffffffffffffffffffffffffffffffffffffff161415610dde576040517f08c379a000000000000000000000000000000000000000000000000000000000815260040180806020018281038252602581526020018061106c6025913960400191505060405180910390fd5b8273ffffffffffffffffffffffffffffffffffffffff168473ffffffffffffffffffffffffffffffffffffffff1610610e18578284610e1b565b83835b8092508193505050600073ffffffffffffffffffffffffffffffffffffffff168273ffffffffffffffffffffffffffffffffffffffff161415610ec6576040517f08c379a000000000000000000000000000000000000000000000000000000000815260040180806020018281038252601e8152602001807f556e697377617056324c6962726172793a205a45524f5f41444452455353000081525060200191505060405180910390fd5b9250929050565b6000808273ffffffffffffffffffffffffffffffffffffffff168473ffffffffffffffffffffffffffffffffffffffff161415610f55576040517f08c379a00000000000000000000000000000000000000000000000000000000081526004018080602001828103825260278152602001806110456027913960400191505060405180910390fd5b8273ffffffffffffffffffffffffffffffffffffffff168473ffffffffffffffffffffffffffffffffffffffff1610610f8f578284610f92565b83835b8092508193505050600073ffffffffffffffffffffffffffffffffffffffff168273ffffffffffffffffffffffffffffffffffffffff16141561103d576040517f08c379a00000000000000000000000000000000000000000000000000000000081526004018080602001828103825260208152602001807f53757368697377617056324c6962726172793a205a45524f5f4144445245535381525060200191505060405180910390fd5b925092905056fe53757368697377617056324c6962726172793a204944454e544943414c5f414444524553534553556e697377617056324c6962726172793a204944454e544943414c5f414444524553534553a26469706673582212209a0a7e2cf8eda81367dd571438a43bbf67e30df6f8494734e8d4a06f6d5b8b5d64736f6c63430006060033",
  "immutableReferences": {
    "3259": [
      {
        "length": 32,
        "start": 2042
      }
    ],
    "3261": [
      {
        "length": 32,
        "start": 726
      }
    ],
    "3263": [
      {
        "length": 32,
        "start": 934
      }
    ]
  },
  "source": "pragma solidity =0.6.6;\n\n//import '@uniswap/v2-core/contracts/interfaces/IUniswapV2Callee.sol';\n\n//import '../libraries/UniswapV2Library.sol';\nimport './interfaces/V1NEW/IUniswapV1Factory.sol';\nimport './interfaces/V1NEW/IUniswapV1Exchange.sol';\n//import '../interfaces/IUniswapV2Router01.sol';\n//import '../interfaces/IERC20.sol';\nimport './interfaces/IWETH.sol';\n\nimport './UniswapV2Library.sol';\nimport './SushiswapV2Library.sol';\nimport './interfaces/IUniswapV2Router02.sol';\nimport './interfaces/IUniswapV2Pair.sol';\nimport './interfaces/IERC20.sol';\n\ncontract FlashSwapV1V2RE {\n    IUniswapV1Factory immutable factoryV1;\n    address immutable ufactory;\n    address immutable sfactory;\n    IWETH public constant WETH = IWETH(0xC02aaA39b223FE8D0A0e5C4F27eAD9083C756Cc2);\n\n    constructor(address _ufactory, address _sfactory, address _factoryV1) public {\n        factoryV1 = IUniswapV1Factory(_factoryV1);\n        ufactory = _ufactory;\n        sfactory = _sfactory;\n    }\n\n    // needs to accept ETH from any V1 exchange and WETH. ideally this could be enforced, as in the router,\n    // but it's not possible because it requires a call to the v1 factory, which takes too much gas\n    receive() external payable {}\n\n    // gets tokens/WETH via a V2 flash swap, swaps for the ETH/tokens on V1, repays V2, and keeps the rest!\n    function uniswapV2Call(address sender, uint amount0, uint amount1, bytes calldata data) external {\n        address[] memory path = new address[](2);\n        uint amountToken;\n        uint amountETH;\n        (uint flag) = abi.decode(data, (uint));\n\n        //address factory = flag == 0 ? ufactory : sfactory;\n\n        { // scope for token{0,1}, avoids stack too deep errors\n        address token0 = IUniswapV2Pair(msg.sender).token0();\n        address token1 = IUniswapV2Pair(msg.sender).token1();\n        if(flag == 11){\n            require(msg.sender == UniswapV2Library.pairFor(ufactory, token0, token1), \"Unauthorized From Uniswap\"); // ensure that msg.sender is actually a V2 pair\n        } else {\n            require(msg.sender == SushiswapV2Library.pairFor(sfactory, token0, token1), \"Unauthorized From Sushiswap\"); // ensure that msg.sender is actually a V2 pair\n        }\n        \n        require(amount0 == 0 || amount1 == 0, \"Input not right\"); // this strategy is unidirectional\n        path[0] = amount0 == 0 ? token0 : token1;\n        path[1] = amount0 == 0 ? token1 : token0;\n        amountToken = token0 == address(WETH) ? amount1 : amount0;\n        amountETH = token0 == address(WETH) ? amount0 : amount1;\n        }\n\n        require(path[0] == address(WETH) || path[1] == address(WETH), \"WETH is needed\"); // this strategy only works with a V2 WETH pair\n        IERC20 token = IERC20(path[0] == address(WETH) ? path[1] : path[0]);\n        IUniswapV1Exchange exchangeV1 = IUniswapV1Exchange(factoryV1.getExchange(address(token))); // get V1 exchange\n\n        if (amountToken > 0) {\n\n            token.transfer(msg.sender, amountToken); // return WETH to V2 pair\n\n        } else {\n            \n            WETH.transfer(msg.sender, amountETH); // keep the rest! (tokens)\n        }\n    }\n}\n",
  "sourcePath": "/Users/usr0102794/opengsn/uni-sushi-flashswap/flashloaner-contract/contracts/FlashSwapV1V2RE.sol",
  "compiler": {
    "name": "solc",
    "version": "0.6.6+commit.6c089d02.Emscripten.clang"
  },
  "schemaVersion": "3.3.3",
  "updatedAt": "2021-03-09T13:15:41.104Z",
  "networkType": "ethereum",
  "devdoc": {
    "methods": {}
  },
  "userdoc": {
    "methods": {}
  }
}