{
  "contractName": "FlashSwapV1V2TT",
  "abi": [
    {
      "inputs": [
        {
          "internalType": "address",
          "name": "_ufactory",
          "type": "address"
        },
        {
          "internalType": "address",
          "name": "_sfactory",
          "type": "address"
        },
        {
          "internalType": "address",
          "name": "_factoryV1",
          "type": "address"
        }
      ],
      "stateMutability": "nonpayable",
      "type": "constructor"
    },
    {
      "inputs": [],
      "name": "WETH",
      "outputs": [
        {
          "internalType": "contract IWETH",
          "name": "",
          "type": "address"
        }
      ],
      "stateMutability": "view",
      "type": "function",
      "constant": true
    },
    {
      "stateMutability": "payable",
      "type": "receive",
      "payable": true
    },
    {
      "inputs": [
        {
          "internalType": "address",
          "name": "sender",
          "type": "address"
        },
        {
          "internalType": "uint256",
          "name": "amount0",
          "type": "uint256"
        },
        {
          "internalType": "uint256",
          "name": "amount1",
          "type": "uint256"
        },
        {
          "internalType": "bytes",
          "name": "data",
          "type": "bytes"
        }
      ],
      "name": "uniswapV2Call",
      "outputs": [],
      "stateMutability": "nonpayable",
      "type": "function"
    },
    {
      "inputs": [],
      "name": "giveeth",
      "outputs": [],
      "stateMutability": "payable",
      "type": "function",
      "payable": true
    },
    {
      "inputs": [],
      "name": "geteth",
      "outputs": [
        {
          "internalType": "uint256",
          "name": "re",
          "type": "uint256"
        }
      ],
      "stateMutability": "view",
      "type": "function",
      "constant": true
    }
  ],
  "bytecode": "0x60e060405234801561001057600080fd5b50604051611f77380380611f778339818101604052606081101561003357600080fd5b810190808051906020019092919080519060200190929190805190602001909291905050508073ffffffffffffffffffffffffffffffffffffffff1660808173ffffffffffffffffffffffffffffffffffffffff1660601b815250508273ffffffffffffffffffffffffffffffffffffffff1660a08173ffffffffffffffffffffffffffffffffffffffff1660601b815250508173ffffffffffffffffffffffffffffffffffffffff1660c08173ffffffffffffffffffffffffffffffffffffffff1660601b8152505050505060805160601c60a05160601c60c05160601c611e3861013f600039806103f152806109d05250806103215280610a1452508061076d5250611e386000f3fe6080604052600436106100435760003560e01c806310d1e85c1461004f5780632cde4032146101095780634ad69f4e14610113578063ad5c46481461013e5761004a565b3661004a57005b600080fd5b34801561005b57600080fd5b506101076004803603608081101561007257600080fd5b81019080803573ffffffffffffffffffffffffffffffffffffffff1690602001909291908035906020019092919080359060200190929190803590602001906401000000008111156100c357600080fd5b8201836020820111156100d557600080fd5b803590602001918460018302840111640100000000831117156100f757600080fd5b9091929391929390505050610195565b005b610111610c86565b005b34801561011f57600080fd5b50610128610cfd565b6040518082815260200191505060405180910390f35b34801561014a57600080fd5b50610153610dd0565b604051808273ffffffffffffffffffffffffffffffffffffffff1673ffffffffffffffffffffffffffffffffffffffff16815260200191505060405180910390f35b6060600267ffffffffffffffff811180156101af57600080fd5b506040519080825280602002602001820160405280156101de5781602001602082028036833780820191505090505b5090506000806000858560208110156101f657600080fd5b8101908080359060200190929190505050905060003373ffffffffffffffffffffffffffffffffffffffff16630dfe16816040518163ffffffff1660e01b815260040160206040518083038186803b15801561025157600080fd5b505afa158015610265573d6000803e3d6000fd5b505050506040513d602081101561027b57600080fd5b8101908080519060200190929190505050905060003373ffffffffffffffffffffffffffffffffffffffff1663d21220a76040518163ffffffff1660e01b815260040160206040518083038186803b1580156102d657600080fd5b505afa1580156102ea573d6000803e3d6000fd5b505050506040513d602081101561030057600080fd5b81019080805190602001909291905050509050600b8314156103ec576103477f00000000000000000000000000000000000000000000000000000000000000008383610de8565b73ffffffffffffffffffffffffffffffffffffffff163373ffffffffffffffffffffffffffffffffffffffff16146103e7576040517f08c379a00000000000000000000000000000000000000000000000000000000081526004018080602001828103825260198152602001807f556e617574686f72697a65642046726f6d20556e69737761700000000000000081525060200191505060405180910390fd5b6104b8565b6104177f00000000000000000000000000000000000000000000000000000000000000008383610f43565b73ffffffffffffffffffffffffffffffffffffffff163373ffffffffffffffffffffffffffffffffffffffff16146104b7576040517f08c379a000000000000000000000000000000000000000000000000000000000815260040180806020018281038252601b8152602001807f556e617574686f72697a65642046726f6d20537573686973776170000000000081525060200191505060405180910390fd5b5b60008a14806104c75750600089145b6104cd57fe5b60008a146104db57806104dd565b815b866000815181106104ea57fe5b602002602001019073ffffffffffffffffffffffffffffffffffffffff16908173ffffffffffffffffffffffffffffffffffffffff168152505060008a146105325781610534565b805b8660018151811061054157fe5b602002602001019073ffffffffffffffffffffffffffffffffffffffff16908173ffffffffffffffffffffffffffffffffffffffff168152505073c02aaa39b223fe8d0a0e5c4f27ead9083c756cc273ffffffffffffffffffffffffffffffffffffffff168273ffffffffffffffffffffffffffffffffffffffff16146105c857896105ca565b885b945073c02aaa39b223fe8d0a0e5c4f27ead9083c756cc273ffffffffffffffffffffffffffffffffffffffff168273ffffffffffffffffffffffffffffffffffffffff1614610619578861061b565b895b9350505073c02aaa39b223fe8d0a0e5c4f27ead9083c756cc273ffffffffffffffffffffffffffffffffffffffff168460008151811061065757fe5b602002602001015173ffffffffffffffffffffffffffffffffffffffff1614806106d4575073c02aaa39b223fe8d0a0e5c4f27ead9083c756cc273ffffffffffffffffffffffffffffffffffffffff16846001815181106106b457fe5b602002602001015173ffffffffffffffffffffffffffffffffffffffff16145b6106da57fe5b600073c02aaa39b223fe8d0a0e5c4f27ead9083c756cc273ffffffffffffffffffffffffffffffffffffffff168560008151811061071457fe5b602002602001015173ffffffffffffffffffffffffffffffffffffffff1614610751578460008151811061074457fe5b6020026020010151610767565b8460018151811061075e57fe5b60200260200101515b905060007f000000000000000000000000000000000000000000000000000000000000000073ffffffffffffffffffffffffffffffffffffffff166306f2bf62836040518263ffffffff1660e01b8152600401808273ffffffffffffffffffffffffffffffffffffffff1673ffffffffffffffffffffffffffffffffffffffff16815260200191505060206040518083038186803b15801561080857600080fd5b505afa15801561081c573d6000803e3d6000fd5b505050506040513d602081101561083257600080fd5b810190808051906020019092919050505090506000851115610c79578173ffffffffffffffffffffffffffffffffffffffff1663095ea7b3827fffffffffffffffffffffffffffffffffffffffffffffffffffffffffffffffff6040518363ffffffff1660e01b8152600401808373ffffffffffffffffffffffffffffffffffffffff1673ffffffffffffffffffffffffffffffffffffffff16815260200182815260200192505050602060405180830381600087803b1580156108f557600080fd5b505af1158015610909573d6000803e3d6000fd5b505050506040513d602081101561091f57600080fd5b81019080805190602001909291905050505060008173ffffffffffffffffffffffffffffffffffffffff166395b68fe7876040518263ffffffff1660e01b81526004018082815260200191505060206040518083038186803b15801561098457600080fd5b505afa158015610998573d6000803e3d6000fd5b505050506040513d60208110156109ae57600080fd5b810190808051906020019092919050505090506000600b8514610a0f576109f67f0000000000000000000000000000000000000000000000000000000000000000888a61109e565b600081518110610a0257fe5b6020026020010151610a4f565b610a3a7f0000000000000000000000000000000000000000000000000000000000000000888a61121e565b600081518110610a4657fe5b60200260200101515b905073c02aaa39b223fe8d0a0e5c4f27ead9083c756cc273ffffffffffffffffffffffffffffffffffffffff1663a9059cbb33836040518363ffffffff1660e01b8152600401808373ffffffffffffffffffffffffffffffffffffffff1673ffffffffffffffffffffffffffffffffffffffff16815260200182815260200192505050602060405180830381600087803b158015610aec57600080fd5b505af1158015610b00573d6000803e3d6000fd5b505050506040513d6020811015610b1657600080fd5b810190808051906020019092919050505050808211610b9d576040517f08c379a00000000000000000000000000000000000000000000000000000000081526004018080602001828103825260088152602001807f4e4f5420474f4f4400000000000000000000000000000000000000000000000081525060200191505060405180910390fd5b73c02aaa39b223fe8d0a0e5c4f27ead9083c756cc273ffffffffffffffffffffffffffffffffffffffff1663a9059cbb8e8385036040518363ffffffff1660e01b8152600401808373ffffffffffffffffffffffffffffffffffffffff1673ffffffffffffffffffffffffffffffffffffffff16815260200182815260200192505050602060405180830381600087803b158015610c3a57600080fd5b505af1158015610c4e573d6000803e3d6000fd5b505050506040513d6020811015610c6457600080fd5b81019080805190602001909291905050505050505b5050505050505050505050565b73c02aaa39b223fe8d0a0e5c4f27ead9083c756cc273ffffffffffffffffffffffffffffffffffffffff1663d0e30db0346040518263ffffffff1660e01b81526004016000604051808303818588803b158015610ce257600080fd5b505af1158015610cf6573d6000803e3d6000fd5b5050505050565b600073c02aaa39b223fe8d0a0e5c4f27ead9083c756cc273ffffffffffffffffffffffffffffffffffffffff166370a08231306040518263ffffffff1660e01b8152600401808273ffffffffffffffffffffffffffffffffffffffff1673ffffffffffffffffffffffffffffffffffffffff16815260200191505060206040518083038186803b158015610d9057600080fd5b505afa158015610da4573d6000803e3d6000fd5b505050506040513d6020811015610dba57600080fd5b8101908080519060200190929190505050905090565b73c02aaa39b223fe8d0a0e5c4f27ead9083c756cc281565b6000806000610df7858561139e565b91509150858282604051602001808373ffffffffffffffffffffffffffffffffffffffff1673ffffffffffffffffffffffffffffffffffffffff1660601b81526014018273ffffffffffffffffffffffffffffffffffffffff1673ffffffffffffffffffffffffffffffffffffffff1660601b8152601401925050506040516020818303038152906040528051906020012060405160200180807fff000000000000000000000000000000000000000000000000000000000000008152506001018373ffffffffffffffffffffffffffffffffffffffff1673ffffffffffffffffffffffffffffffffffffffff1660601b8152601401828152602001807f96e8ac4277198ff8b6f785478aa9a39f403cb768dd02cbee326c3e7da348845f815250602001925050506040516020818303038152906040528051906020012060001c925050509392505050565b6000806000610f528585611515565b91509150858282604051602001808373ffffffffffffffffffffffffffffffffffffffff1673ffffffffffffffffffffffffffffffffffffffff1660601b81526014018273ffffffffffffffffffffffffffffffffffffffff1673ffffffffffffffffffffffffffffffffffffffff1660601b8152601401925050506040516020818303038152906040528051906020012060405160200180807fff000000000000000000000000000000000000000000000000000000000000008152506001018373ffffffffffffffffffffffffffffffffffffffff1673ffffffffffffffffffffffffffffffffffffffff1660601b8152601401828152602001807fe18a34eb0e04b04f7a0ac29a6e80748dca96319b42c54d679cb821dca90c6303815250602001925050506040516020818303038152906040528051906020012060001c925050509392505050565b6060600282511015611118576040517f08c379a00000000000000000000000000000000000000000000000000000000081526004018080602001828103825260208152602001807f53757368697377617056324c6962726172793a20494e56414c49445f5041544881525060200191505060405180910390fd5b815167ffffffffffffffff8111801561113057600080fd5b5060405190808252806020026020018201604052801561115f5781602001602082028036833780820191505090505b509050828160018351038151811061117357fe5b6020026020010181815250506000600183510390505b6000811115611216576000806111c9878660018603815181106111a857fe5b60200260200101518786815181106111bc57fe5b602002602001015161168c565b915091506111eb8484815181106111dc57fe5b602002602001015183836117b5565b8460018503815181106111fa57fe5b6020026020010181815250505050808060019003915050611189565b509392505050565b6060600282511015611298576040517f08c379a000000000000000000000000000000000000000000000000000000000815260040180806020018281038252601e8152602001807f556e697377617056324c6962726172793a20494e56414c49445f50415448000081525060200191505060405180910390fd5b815167ffffffffffffffff811180156112b057600080fd5b506040519080825280602002602001820160405280156112df5781602001602082028036833780820191505090505b50905082816001835103815181106112f357fe5b6020026020010181815250506000600183510390505b6000811115611396576000806113498786600186038151811061132857fe5b602002602001015187868151811061133c57fe5b60200260200101516118f2565b9150915061136b84848151811061135c57fe5b60200260200101518383611a1b565b84600185038151811061137a57fe5b6020026020010181815250505050808060019003915050611309565b509392505050565b6000808273ffffffffffffffffffffffffffffffffffffffff168473ffffffffffffffffffffffffffffffffffffffff161415611426576040517f08c379a0000000000000000000000000000000000000000000000000000000008152600401808060200182810382526025815260200180611d956025913960400191505060405180910390fd5b8273ffffffffffffffffffffffffffffffffffffffff168473ffffffffffffffffffffffffffffffffffffffff1610611460578284611463565b83835b8092508193505050600073ffffffffffffffffffffffffffffffffffffffff168273ffffffffffffffffffffffffffffffffffffffff16141561150e576040517f08c379a000000000000000000000000000000000000000000000000000000000815260040180806020018281038252601e8152602001807f556e697377617056324c6962726172793a205a45524f5f41444452455353000081525060200191505060405180910390fd5b9250929050565b6000808273ffffffffffffffffffffffffffffffffffffffff168473ffffffffffffffffffffffffffffffffffffffff16141561159d576040517f08c379a0000000000000000000000000000000000000000000000000000000008152600401808060200182810382526027815260200180611d146027913960400191505060405180910390fd5b8273ffffffffffffffffffffffffffffffffffffffff168473ffffffffffffffffffffffffffffffffffffffff16106115d75782846115da565b83835b8092508193505050600073ffffffffffffffffffffffffffffffffffffffff168273ffffffffffffffffffffffffffffffffffffffff161415611685576040517f08c379a00000000000000000000000000000000000000000000000000000000081526004018080602001828103825260208152602001807f53757368697377617056324c6962726172793a205a45524f5f4144445245535381525060200191505060405180910390fd5b9250929050565b600080600061169b8585611515565b5090506000806116ac888888610f43565b73ffffffffffffffffffffffffffffffffffffffff16630902f1ac6040518163ffffffff1660e01b815260040160606040518083038186803b1580156116f157600080fd5b505afa158015611705573d6000803e3d6000fd5b505050506040513d606081101561171b57600080fd5b81019080805190602001909291908051906020019092919080519060200190929190505050506dffffffffffffffffffffffffffff1691506dffffffffffffffffffffffffffff1691508273ffffffffffffffffffffffffffffffffffffffff168773ffffffffffffffffffffffffffffffffffffffff161461179f5780826117a2565b81815b8095508196505050505050935093915050565b600080841161180f576040517f08c379a000000000000000000000000000000000000000000000000000000000815260040180806020018281038252602e815260200180611d3b602e913960400191505060405180910390fd5b60008311801561181f5750600082115b611874576040517f08c379a000000000000000000000000000000000000000000000000000000000815260040180806020018281038252602a815260200180611cea602a913960400191505060405180910390fd5b600061189d6103e861188f8787611b5890919063ffffffff16565b611b5890919063ffffffff16565b905060006118c86103e56118ba8887611bde90919063ffffffff16565b611b5890919063ffffffff16565b90506118e760018284816118d857fe5b04611c6190919063ffffffff16565b925050509392505050565b6000806000611901858561139e565b509050600080611912888888610de8565b73ffffffffffffffffffffffffffffffffffffffff16630902f1ac6040518163ffffffff1660e01b815260040160606040518083038186803b15801561195757600080fd5b505afa15801561196b573d6000803e3d6000fd5b505050506040513d606081101561198157600080fd5b81019080805190602001909291908051906020019092919080519060200190929190505050506dffffffffffffffffffffffffffff1691506dffffffffffffffffffffffffffff1691508273ffffffffffffffffffffffffffffffffffffffff168773ffffffffffffffffffffffffffffffffffffffff1614611a05578082611a08565b81815b8095508196505050505050935093915050565b6000808411611a75576040517f08c379a000000000000000000000000000000000000000000000000000000000815260040180806020018281038252602c815260200180611d69602c913960400191505060405180910390fd5b600083118015611a855750600082115b611ada576040517f08c379a0000000000000000000000000000000000000000000000000000000008152600401808060200182810382526028815260200180611dba6028913960400191505060405180910390fd5b6000611b036103e8611af58787611b5890919063ffffffff16565b611b5890919063ffffffff16565b90506000611b2e6103e5611b208887611bde90919063ffffffff16565b611b5890919063ffffffff16565b9050611b4d6001828481611b3e57fe5b04611c6190919063ffffffff16565b925050509392505050565b600080831415611b6b5760009050611bd8565b6000828402905082848281611b7c57fe5b0414611bd3576040517f08c379a0000000000000000000000000000000000000000000000000000000008152600401808060200182810382526021815260200180611de26021913960400191505060405180910390fd5b809150505b92915050565b600082821115611c56576040517f08c379a000000000000000000000000000000000000000000000000000000000815260040180806020018281038252601e8152602001807f536166654d6174683a207375627472616374696f6e206f766572666c6f77000081525060200191505060405180910390fd5b818303905092915050565b600080828401905083811015611cdf576040517f08c379a000000000000000000000000000000000000000000000000000000000815260040180806020018281038252601b8152602001807f536166654d6174683a206164646974696f6e206f766572666c6f77000000000081525060200191505060405180910390fd5b809150509291505056fe53757368697377617056324c6962726172793a20494e53554646494349454e545f4c495155494449545953757368697377617056324c6962726172793a204944454e544943414c5f41444452455353455353757368697377617056324c6962726172793a20494e53554646494349454e545f4f55545055545f414d4f554e54556e697377617056324c6962726172793a20494e53554646494349454e545f4f55545055545f414d4f554e54556e697377617056324c6962726172793a204944454e544943414c5f414444524553534553556e697377617056324c6962726172793a20494e53554646494349454e545f4c4951554944495459536166654d6174683a206d756c7469706c69636174696f6e206f766572666c6f77a2646970667358221220d199550e2afff945d794c01689b6c43f15486c93f2429f8550a6af4665cd8b4a64736f6c63430006060033",
  "immutableReferences": {
    "3823": [
      {
        "length": 32,
        "start": 1901
      }
    ],
    "3825": [
      {
        "length": 32,
        "start": 801
      },
      {
        "length": 32,
        "start": 2580
      }
    ],
    "3827": [
      {
        "length": 32,
        "start": 1009
      },
      {
        "length": 32,
        "start": 2512
      }
    ]
  },
  "source": "pragma solidity =0.6.6;\n\n//import '@uniswap/v2-core/contracts/interfaces/IUniswapV2Callee.sol';\n\n//import '../libraries/UniswapV2Library.sol';\nimport './interfaces/V1NEW/IUniswapV1Factory.sol';\nimport './interfaces/V1NEW/IUniswapV1Exchange.sol';\n//import '../interfaces/IUniswapV2Router01.sol';\n//import '../interfaces/IERC20.sol';\nimport './interfaces/IWETH.sol';\n\nimport './UniswapV2Library.sol';\nimport './SushiswapV2Library.sol';\nimport './interfaces/IUniswapV2Router02.sol';\nimport './interfaces/IUniswapV2Pair.sol';\nimport './interfaces/IERC20.sol';\n\ncontract FlashSwapV1V2TT {\n    IUniswapV1Factory immutable factoryV1;\n    address immutable ufactory;\n    address immutable sfactory;\n    IWETH public constant WETH = IWETH(0xC02aaA39b223FE8D0A0e5C4F27eAD9083C756Cc2);\n\n    constructor(address _ufactory, address _sfactory, address _factoryV1) public {\n        factoryV1 = IUniswapV1Factory(_factoryV1);\n        ufactory = _ufactory;\n        sfactory = _sfactory;\n    }\n\n    // needs to accept ETH from any V1 exchange and WETH. ideally this could be enforced, as in the router,\n    // but it's not possible because it requires a call to the v1 factory, which takes too much gas\n    receive() external payable {}\n\n    // gets tokens/WETH via a V2 flash swap, swaps for the ETH/tokens on V1, repays V2, and keeps the rest!\n    function uniswapV2Call(address sender, uint amount0, uint amount1, bytes calldata data) external {\n\n        address[] memory path = new address[](2);\n        uint amountToken;\n        uint amountETH;\n        (uint flag) = abi.decode(data, (uint));\n\n        //address factory = flag == 0 ? ufactory : sfactory;\n\n        { // scope for token{0,1}, avoids stack too deep errors\n        address token0 = IUniswapV2Pair(msg.sender).token0();\n        address token1 = IUniswapV2Pair(msg.sender).token1();\n        if(flag == 11){\n            require(msg.sender == UniswapV2Library.pairFor(ufactory, token0, token1), \"Unauthorized From Uniswap\"); // ensure that msg.sender is actually a V2 pair\n        } else {\n            require(msg.sender == SushiswapV2Library.pairFor(sfactory, token0, token1), \"Unauthorized From Sushiswap\"); // ensure that msg.sender is actually a V2 pair\n        }\n        \n        assert(amount0 == 0 || amount1 == 0); // this strategy is unidirectional\n        path[0] = amount0 == 0 ? token0 : token1;\n        path[1] = amount0 == 0 ? token1 : token0;\n        amountToken = token0 == address(WETH) ? amount1 : amount0;\n        amountETH = token0 == address(WETH) ? amount0 : amount1;\n        }\n\n        assert(path[0] == address(WETH) || path[1] == address(WETH)); // this strategy only works with a V2 WETH pair\n        IERC20 token = IERC20(path[0] == address(WETH) ? path[1] : path[0]);\n        IUniswapV1Exchange exchangeV1 = IUniswapV1Exchange(factoryV1.getExchange(address(token))); // get V1 exchange\n\n        if (amountToken > 0) {\n            //(uint minETH) = abi.decode(data, (uint)); // slippage parameter for V1, passed in by caller\n            token.approve(address(exchangeV1), uint(-1));\n            uint amountReceived = exchangeV1.getTokenToEthInputPrice(amountToken);\n            //x = exchangeV1.tokenToEthSwapInput(amountToken, 0, uint(-1));\n            //require(x == amountReceived, \"NOT GOOD\");\n            //uint x = WETH.balanceOf(address(this));\n            \n            uint amountRequired = flag == 11 ? UniswapV2Library.getAmountsIn(ufactory, amountToken, path)[0] : SushiswapV2Library.getAmountsIn(sfactory, amountToken, path)[0];\n            WETH.transfer(msg.sender, amountRequired); // keep the rest! (tokens)\n\n            //y = IERC20(0xC02aaA39b223FE8D0A0e5C4F27eAD9083C756Cc2).balanceOf(address(this));\n            //WETH.deposit{value: y}();\n            require(amountReceived > amountRequired, \"NOT GOOD\"); \n            WETH.transfer(sender, amountReceived - amountRequired);\n\n        }\n    }\n\n    function giveeth() payable external {\n\n        WETH.deposit{value: msg.value}();\n\n    }\n\n\n    function geteth() external view returns (uint re) {\n\n        re = WETH.balanceOf(address(this));\n        \n    }\n\n}\n",
  "sourcePath": "/Users/usr0102794/opengsn/uni-sushi-flashswap/flashloaner-contract/contracts/FlashSwapV1V2TT.sol",
  "compiler": {
    "name": "solc",
    "version": "0.6.6+commit.6c089d02.Emscripten.clang"
  },
  "schemaVersion": "3.3.3",
  "updatedAt": "2021-03-09T13:15:42.198Z",
  "networkType": "ethereum",
  "devdoc": {
    "methods": {}
  },
  "userdoc": {
    "methods": {}
  }
}