{
  "contractName": "FlashSwapV1V2Debug",
  "abi": [
    {
      "inputs": [
        {
          "internalType": "address",
          "name": "_ufactory",
          "type": "address"
        },
        {
          "internalType": "address",
          "name": "_sfactory",
          "type": "address"
        },
        {
          "internalType": "address",
          "name": "_factoryV1",
          "type": "address"
        }
      ],
      "stateMutability": "nonpayable",
      "type": "constructor"
    },
    {
      "inputs": [],
      "name": "WETH",
      "outputs": [
        {
          "internalType": "contract IWETH",
          "name": "",
          "type": "address"
        }
      ],
      "stateMutability": "view",
      "type": "function",
      "constant": true
    },
    {
      "stateMutability": "payable",
      "type": "receive",
      "payable": true
    },
    {
      "inputs": [
        {
          "internalType": "address",
          "name": "sender",
          "type": "address"
        },
        {
          "internalType": "uint256",
          "name": "amount0",
          "type": "uint256"
        },
        {
          "internalType": "uint256",
          "name": "amount1",
          "type": "uint256"
        },
        {
          "internalType": "bytes",
          "name": "data",
          "type": "bytes"
        }
      ],
      "name": "uniswapV2Call",
      "outputs": [],
      "stateMutability": "nonpayable",
      "type": "function"
    },
    {
      "inputs": [
        {
          "internalType": "address",
          "name": "sender",
          "type": "address"
        },
        {
          "internalType": "uint256",
          "name": "amount0",
          "type": "uint256"
        },
        {
          "internalType": "uint256",
          "name": "amount1",
          "type": "uint256"
        },
        {
          "internalType": "bytes",
          "name": "data",
          "type": "bytes"
        }
      ],
      "name": "getflag",
      "outputs": [
        {
          "internalType": "address",
          "name": "s",
          "type": "address"
        },
        {
          "internalType": "uint256",
          "name": "a0",
          "type": "uint256"
        },
        {
          "internalType": "uint256",
          "name": "a1",
          "type": "uint256"
        },
        {
          "internalType": "uint256",
          "name": "re",
          "type": "uint256"
        }
      ],
      "stateMutability": "pure",
      "type": "function",
      "constant": true
    },
    {
      "inputs": [
        {
          "internalType": "address",
          "name": "sender",
          "type": "address"
        },
        {
          "internalType": "uint256",
          "name": "amount0",
          "type": "uint256"
        },
        {
          "internalType": "uint256",
          "name": "amount1",
          "type": "uint256"
        },
        {
          "internalType": "bytes",
          "name": "data",
          "type": "bytes"
        }
      ],
      "name": "getex",
      "outputs": [
        {
          "internalType": "address",
          "name": "re",
          "type": "address"
        }
      ],
      "stateMutability": "view",
      "type": "function",
      "constant": true
    },
    {
      "inputs": [
        {
          "internalType": "address",
          "name": "sender",
          "type": "address"
        },
        {
          "internalType": "uint256",
          "name": "amount0",
          "type": "uint256"
        },
        {
          "internalType": "uint256",
          "name": "amount1",
          "type": "uint256"
        },
        {
          "internalType": "bytes",
          "name": "data",
          "type": "bytes"
        }
      ],
      "name": "getprofit",
      "outputs": [
        {
          "internalType": "uint256",
          "name": "ge",
          "type": "uint256"
        },
        {
          "internalType": "uint256",
          "name": "re",
          "type": "uint256"
        },
        {
          "internalType": "uint256",
          "name": "p",
          "type": "uint256"
        },
        {
          "internalType": "uint256",
          "name": "m1",
          "type": "uint256"
        }
      ],
      "stateMutability": "view",
      "type": "function",
      "constant": true
    }
  ],
  "bytecode": "0x60e060405234801561001057600080fd5b506040516135ac3803806135ac8339818101604052606081101561003357600080fd5b810190808051906020019092919080519060200190929190805190602001909291905050508073ffffffffffffffffffffffffffffffffffffffff1660808173ffffffffffffffffffffffffffffffffffffffff1660601b815250508273ffffffffffffffffffffffffffffffffffffffff1660a08173ffffffffffffffffffffffffffffffffffffffff1660601b815250508173ffffffffffffffffffffffffffffffffffffffff1660c08173ffffffffffffffffffffffffffffffffffffffff1660601b8152505050505060805160601c60a05160601c60c05160601c61343b610171600039806106b35280610ca5528061100b52806117315280611c2d5280611f475250806105e35280610ce9528061104f52806116615280611c715280611e77525080610a2f5280611aad52806122c3525061343b6000f3fe60806040526004361061004e5760003560e01c806310d1e85c1461005a5780636bac9cd914610114578063ad5c4648146101f7578063b067394c1461024e578063dc06a5711461034857610055565b3661005557005b600080fd5b34801561006657600080fd5b506101126004803603608081101561007d57600080fd5b81019080803573ffffffffffffffffffffffffffffffffffffffff1690602001909291908035906020019092919080359060200190929190803590602001906401000000008111156100ce57600080fd5b8201836020820111156100e057600080fd5b8035906020019184600183028401116401000000008311171561010257600080fd5b9091929391929390505050610457565b005b34801561012057600080fd5b506101cc6004803603608081101561013757600080fd5b81019080803573ffffffffffffffffffffffffffffffffffffffff16906020019092919080359060200190929190803590602001909291908035906020019064010000000081111561018857600080fd5b82018360208201111561019a57600080fd5b803590602001918460018302840111640100000000831117156101bc57600080fd5b90919293919293905050506114cf565b6040518085815260200184815260200183815260200182815260200194505050505060405180910390f35b34801561020357600080fd5b5061020c611cd1565b604051808273ffffffffffffffffffffffffffffffffffffffff1673ffffffffffffffffffffffffffffffffffffffff16815260200191505060405180910390f35b34801561025a57600080fd5b506103066004803603608081101561027157600080fd5b81019080803573ffffffffffffffffffffffffffffffffffffffff1690602001909291908035906020019092919080359060200190929190803590602001906401000000008111156102c257600080fd5b8201836020820111156102d457600080fd5b803590602001918460018302840111640100000000831117156102f657600080fd5b9091929391929390505050611ce9565b604051808273ffffffffffffffffffffffffffffffffffffffff1673ffffffffffffffffffffffffffffffffffffffff16815260200191505060405180910390f35b34801561035457600080fd5b506104006004803603608081101561036b57600080fd5b81019080803573ffffffffffffffffffffffffffffffffffffffff1690602001909291908035906020019092919080359060200190929190803590602001906401000000008111156103bc57600080fd5b8201836020820111156103ce57600080fd5b803590602001918460018302840111640100000000831117156103f057600080fd5b90919293919293905050506123ad565b604051808573ffffffffffffffffffffffffffffffffffffffff1673ffffffffffffffffffffffffffffffffffffffff16815260200184815260200183815260200182815260200194505050505060405180910390f35b6060600267ffffffffffffffff8111801561047157600080fd5b506040519080825280602002602001820160405280156104a05781602001602082028036833780820191505090505b5090506000806000858560208110156104b857600080fd5b8101908080359060200190929190505050905060003373ffffffffffffffffffffffffffffffffffffffff16630dfe16816040518163ffffffff1660e01b815260040160206040518083038186803b15801561051357600080fd5b505afa158015610527573d6000803e3d6000fd5b505050506040513d602081101561053d57600080fd5b8101908080519060200190929190505050905060003373ffffffffffffffffffffffffffffffffffffffff1663d21220a76040518163ffffffff1660e01b815260040160206040518083038186803b15801561059857600080fd5b505afa1580156105ac573d6000803e3d6000fd5b505050506040513d60208110156105c257600080fd5b81019080805190602001909291905050509050600b8314156106ae576106097f000000000000000000000000000000000000000000000000000000000000000083836123eb565b73ffffffffffffffffffffffffffffffffffffffff163373ffffffffffffffffffffffffffffffffffffffff16146106a9576040517f08c379a00000000000000000000000000000000000000000000000000000000081526004018080602001828103825260198152602001807f556e617574686f72697a65642046726f6d20556e69737761700000000000000081525060200191505060405180910390fd5b61077a565b6106d97f00000000000000000000000000000000000000000000000000000000000000008383612546565b73ffffffffffffffffffffffffffffffffffffffff163373ffffffffffffffffffffffffffffffffffffffff1614610779576040517f08c379a000000000000000000000000000000000000000000000000000000000815260040180806020018281038252601b8152602001807f556e617574686f72697a65642046726f6d20537573686973776170000000000081525060200191505060405180910390fd5b5b60008a14806107895750600089145b61078f57fe5b60008a1461079d578061079f565b815b866000815181106107ac57fe5b602002602001019073ffffffffffffffffffffffffffffffffffffffff16908173ffffffffffffffffffffffffffffffffffffffff168152505060008a146107f457816107f6565b805b8660018151811061080357fe5b602002602001019073ffffffffffffffffffffffffffffffffffffffff16908173ffffffffffffffffffffffffffffffffffffffff168152505073c02aaa39b223fe8d0a0e5c4f27ead9083c756cc273ffffffffffffffffffffffffffffffffffffffff168273ffffffffffffffffffffffffffffffffffffffff161461088a578961088c565b885b945073c02aaa39b223fe8d0a0e5c4f27ead9083c756cc273ffffffffffffffffffffffffffffffffffffffff168273ffffffffffffffffffffffffffffffffffffffff16146108db57886108dd565b895b9350505073c02aaa39b223fe8d0a0e5c4f27ead9083c756cc273ffffffffffffffffffffffffffffffffffffffff168460008151811061091957fe5b602002602001015173ffffffffffffffffffffffffffffffffffffffff161480610996575073c02aaa39b223fe8d0a0e5c4f27ead9083c756cc273ffffffffffffffffffffffffffffffffffffffff168460018151811061097657fe5b602002602001015173ffffffffffffffffffffffffffffffffffffffff16145b61099c57fe5b600073c02aaa39b223fe8d0a0e5c4f27ead9083c756cc273ffffffffffffffffffffffffffffffffffffffff16856000815181106109d657fe5b602002602001015173ffffffffffffffffffffffffffffffffffffffff1614610a135784600081518110610a0657fe5b6020026020010151610a29565b84600181518110610a2057fe5b60200260200101515b905060007f000000000000000000000000000000000000000000000000000000000000000073ffffffffffffffffffffffffffffffffffffffff166306f2bf62836040518263ffffffff1660e01b8152600401808273ffffffffffffffffffffffffffffffffffffffff1673ffffffffffffffffffffffffffffffffffffffff16815260200191505060206040518083038186803b158015610aca57600080fd5b505afa158015610ade573d6000803e3d6000fd5b505050506040513d6020811015610af457600080fd5b810190808051906020019092919050505090506000851115610ffc578173ffffffffffffffffffffffffffffffffffffffff1663095ea7b382876040518363ffffffff1660e01b8152600401808373ffffffffffffffffffffffffffffffffffffffff1673ffffffffffffffffffffffffffffffffffffffff16815260200182815260200192505050602060405180830381600087803b158015610b9757600080fd5b505af1158015610bab573d6000803e3d6000fd5b505050506040513d6020811015610bc157600080fd5b81019080805190602001909291905050505060008173ffffffffffffffffffffffffffffffffffffffff166395e3c50b8760017fffffffffffffffffffffffffffffffffffffffffffffffffffffffffffffffff6040518463ffffffff1660e01b8152600401808481526020018381526020018281526020019350505050602060405180830381600087803b158015610c5957600080fd5b505af1158015610c6d573d6000803e3d6000fd5b505050506040513d6020811015610c8357600080fd5b810190808051906020019092919050505090506000600b8514610ce457610ccb7f0000000000000000000000000000000000000000000000000000000000000000888a6126a1565b600081518110610cd757fe5b6020026020010151610d24565b610d0f7f0000000000000000000000000000000000000000000000000000000000000000888a612821565b600081518110610d1b57fe5b60200260200101515b9050808211610d9b576040517f08c379a00000000000000000000000000000000000000000000000000000000081526004018080602001828103825260098152602001807f4e4f2050726f666974000000000000000000000000000000000000000000000081525060200191505060405180910390fd5b73c02aaa39b223fe8d0a0e5c4f27ead9083c756cc273ffffffffffffffffffffffffffffffffffffffff1663d0e30db0826040518263ffffffff1660e01b81526004016000604051808303818588803b158015610df757600080fd5b505af1158015610e0b573d6000803e3d6000fd5b505050505073c02aaa39b223fe8d0a0e5c4f27ead9083c756cc273ffffffffffffffffffffffffffffffffffffffff1663a9059cbb33836040518363ffffffff1660e01b8152600401808373ffffffffffffffffffffffffffffffffffffffff1673ffffffffffffffffffffffffffffffffffffffff16815260200182815260200192505050602060405180830381600087803b158015610eab57600080fd5b505af1158015610ebf573d6000803e3d6000fd5b505050506040513d6020811015610ed557600080fd5b81019080805190602001909291905050505060008d73ffffffffffffffffffffffffffffffffffffffff16828403600067ffffffffffffffff81118015610f1b57600080fd5b506040519080825280601f01601f191660200182016040528015610f4e5781602001600182028036833780820191505090505b506040518082805190602001908083835b60208310610f825780518252602082019150602081019050602083039250610f5f565b6001836020036101000a03801982511681845116808217855250505050505090500191505060006040518083038185875af1925050503d8060008114610fe4576040519150601f19603f3d011682016040523d82523d6000602084013e610fe9565b606091505b5050905080610ff457fe5b5050506114c2565b6000600b841461104a576110317f000000000000000000000000000000000000000000000000000000000000000086896126a1565b60008151811061103d57fe5b602002602001015161108a565b6110757f00000000000000000000000000000000000000000000000000000000000000008689612821565b60008151811061108157fe5b60200260200101515b905060008373ffffffffffffffffffffffffffffffffffffffff166370a08231846040518263ffffffff1660e01b8152600401808273ffffffffffffffffffffffffffffffffffffffff1673ffffffffffffffffffffffffffffffffffffffff16815260200191505060206040518083038186803b15801561110b57600080fd5b505afa15801561111f573d6000803e3d6000fd5b505050506040513d602081101561113557600080fd5b8101908080519060200190929190505050905060008373ffffffffffffffffffffffffffffffffffffffff166359e94862846040518263ffffffff1660e01b81526004018082815260200191505060206040518083038186803b15801561119b57600080fd5b505afa1580156111af573d6000803e3d6000fd5b505050506040513d60208110156111c557600080fd5b8101908080519060200190929190505050905073c02aaa39b223fe8d0a0e5c4f27ead9083c756cc273ffffffffffffffffffffffffffffffffffffffff16632e1a7d4d826040518263ffffffff1660e01b815260040180828152602001915050600060405180830381600087803b15801561123f57600080fd5b505af1158015611253573d6000803e3d6000fd5b505050508373ffffffffffffffffffffffffffffffffffffffff1663f39b5b9b82857fffffffffffffffffffffffffffffffffffffffffffffffffffffffffffffffff6040518463ffffffff1660e01b815260040180838152602001828152602001925050506020604051808303818588803b1580156112d257600080fd5b505af11580156112e6573d6000803e3d6000fd5b50505050506040513d60208110156112fd57600080fd5b81019080805190602001909291905050505080871161131857fe5b8473ffffffffffffffffffffffffffffffffffffffff1663a9059cbb33856040518363ffffffff1660e01b8152600401808373ffffffffffffffffffffffffffffffffffffffff1673ffffffffffffffffffffffffffffffffffffffff16815260200182815260200192505050602060405180830381600087803b15801561139f57600080fd5b505af11580156113b3573d6000803e3d6000fd5b505050506040513d60208110156113c957600080fd5b81019080805190602001909291905050506113e057fe5b73c02aaa39b223fe8d0a0e5c4f27ead9083c756cc273ffffffffffffffffffffffffffffffffffffffff1663a9059cbb8f838a036040518363ffffffff1660e01b8152600401808373ffffffffffffffffffffffffffffffffffffffff1673ffffffffffffffffffffffffffffffffffffffff16815260200182815260200192505050602060405180830381600087803b15801561147d57600080fd5b505af1158015611491573d6000803e3d6000fd5b505050506040513d60208110156114a757600080fd5b81019080805190602001909291905050506114be57fe5b5050505b5050505050505050505050565b6000806000806060600267ffffffffffffffff811180156114ef57600080fd5b5060405190808252806020026020018201604052801561151e5781602001602082028036833780820191505090505b50905060008060008989602081101561153657600080fd5b8101908080359060200190929190505050905060008d73ffffffffffffffffffffffffffffffffffffffff16630dfe16816040518163ffffffff1660e01b815260040160206040518083038186803b15801561159157600080fd5b505afa1580156115a5573d6000803e3d6000fd5b505050506040513d60208110156115bb57600080fd5b8101908080519060200190929190505050905060008e73ffffffffffffffffffffffffffffffffffffffff1663d21220a76040518163ffffffff1660e01b815260040160206040518083038186803b15801561161657600080fd5b505afa15801561162a573d6000803e3d6000fd5b505050506040513d602081101561164057600080fd5b81019080805190602001909291905050509050600b83141561172c576116877f000000000000000000000000000000000000000000000000000000000000000083836123eb565b73ffffffffffffffffffffffffffffffffffffffff168f73ffffffffffffffffffffffffffffffffffffffff1614611727576040517f08c379a00000000000000000000000000000000000000000000000000000000081526004018080602001828103825260198152602001807f556e617574686f72697a65642046726f6d20556e69737761700000000000000081525060200191505060405180910390fd5b6117f8565b6117577f00000000000000000000000000000000000000000000000000000000000000008383612546565b73ffffffffffffffffffffffffffffffffffffffff168f73ffffffffffffffffffffffffffffffffffffffff16146117f7576040517f08c379a000000000000000000000000000000000000000000000000000000000815260040180806020018281038252601b8152602001807f556e617574686f72697a65642046726f6d20537573686973776170000000000081525060200191505060405180910390fd5b5b60008e1480611807575060008d145b61180d57fe5b60008e1461181b578061181d565b815b8660008151811061182a57fe5b602002602001019073ffffffffffffffffffffffffffffffffffffffff16908173ffffffffffffffffffffffffffffffffffffffff168152505060008e146118725781611874565b805b8660018151811061188157fe5b602002602001019073ffffffffffffffffffffffffffffffffffffffff16908173ffffffffffffffffffffffffffffffffffffffff168152505073c02aaa39b223fe8d0a0e5c4f27ead9083c756cc273ffffffffffffffffffffffffffffffffffffffff168273ffffffffffffffffffffffffffffffffffffffff1614611908578d61190a565b8c5b945073c02aaa39b223fe8d0a0e5c4f27ead9083c756cc273ffffffffffffffffffffffffffffffffffffffff168273ffffffffffffffffffffffffffffffffffffffff1614611959578c61195b565b8d5b9350505073c02aaa39b223fe8d0a0e5c4f27ead9083c756cc273ffffffffffffffffffffffffffffffffffffffff168460008151811061199757fe5b602002602001015173ffffffffffffffffffffffffffffffffffffffff161480611a14575073c02aaa39b223fe8d0a0e5c4f27ead9083c756cc273ffffffffffffffffffffffffffffffffffffffff16846001815181106119f457fe5b602002602001015173ffffffffffffffffffffffffffffffffffffffff16145b611a1a57fe5b600073c02aaa39b223fe8d0a0e5c4f27ead9083c756cc273ffffffffffffffffffffffffffffffffffffffff1685600081518110611a5457fe5b602002602001015173ffffffffffffffffffffffffffffffffffffffff1614611a915784600081518110611a8457fe5b6020026020010151611aa7565b84600181518110611a9e57fe5b60200260200101515b905060007f000000000000000000000000000000000000000000000000000000000000000073ffffffffffffffffffffffffffffffffffffffff166306f2bf62836040518263ffffffff1660e01b8152600401808273ffffffffffffffffffffffffffffffffffffffff1673ffffffffffffffffffffffffffffffffffffffff16815260200191505060206040518083038186803b158015611b4857600080fd5b505afa158015611b5c573d6000803e3d6000fd5b505050506040513d6020811015611b7257600080fd5b810190808051906020019092919050505090506000851115611cbf5760008173ffffffffffffffffffffffffffffffffffffffff166395b68fe7876040518263ffffffff1660e01b81526004018082815260200191505060206040518083038186803b158015611be157600080fd5b505afa158015611bf5573d6000803e3d6000fd5b505050506040513d6020811015611c0b57600080fd5b810190808051906020019092919050505090506000600b8514611c6c57611c537f0000000000000000000000000000000000000000000000000000000000000000888a6126a1565b600081518110611c5f57fe5b6020026020010151611cac565b611c977f0000000000000000000000000000000000000000000000000000000000000000888a612821565b600081518110611ca357fe5b60200260200101515b9050809a50819b50808203995086985050505b50505050505095509550955095915050565b73c02aaa39b223fe8d0a0e5c4f27ead9083c756cc281565b60006060600267ffffffffffffffff81118015611d0557600080fd5b50604051908082528060200260200182016040528015611d345781602001602082028036833780820191505090505b509050600080600086866020811015611d4c57600080fd5b8101908080359060200190929190505050905060008a73ffffffffffffffffffffffffffffffffffffffff16630dfe16816040518163ffffffff1660e01b815260040160206040518083038186803b158015611da757600080fd5b505afa158015611dbb573d6000803e3d6000fd5b505050506040513d6020811015611dd157600080fd5b8101908080519060200190929190505050905060008b73ffffffffffffffffffffffffffffffffffffffff1663d21220a76040518163ffffffff1660e01b815260040160206040518083038186803b158015611e2c57600080fd5b505afa158015611e40573d6000803e3d6000fd5b505050506040513d6020811015611e5657600080fd5b81019080805190602001909291905050509050600b831415611f4257611e9d7f000000000000000000000000000000000000000000000000000000000000000083836123eb565b73ffffffffffffffffffffffffffffffffffffffff168c73ffffffffffffffffffffffffffffffffffffffff1614611f3d576040517f08c379a00000000000000000000000000000000000000000000000000000000081526004018080602001828103825260198152602001807f556e617574686f72697a65642046726f6d20556e69737761700000000000000081525060200191505060405180910390fd5b61200e565b611f6d7f00000000000000000000000000000000000000000000000000000000000000008383612546565b73ffffffffffffffffffffffffffffffffffffffff168c73ffffffffffffffffffffffffffffffffffffffff161461200d576040517f08c379a000000000000000000000000000000000000000000000000000000000815260040180806020018281038252601b8152602001807f556e617574686f72697a65642046726f6d20537573686973776170000000000081525060200191505060405180910390fd5b5b60008b148061201d575060008a145b61202357fe5b60008b146120315780612033565b815b8660008151811061204057fe5b602002602001019073ffffffffffffffffffffffffffffffffffffffff16908173ffffffffffffffffffffffffffffffffffffffff168152505060008b14612088578161208a565b805b8660018151811061209757fe5b602002602001019073ffffffffffffffffffffffffffffffffffffffff16908173ffffffffffffffffffffffffffffffffffffffff168152505073c02aaa39b223fe8d0a0e5c4f27ead9083c756cc273ffffffffffffffffffffffffffffffffffffffff168273ffffffffffffffffffffffffffffffffffffffff161461211e578a612120565b895b945073c02aaa39b223fe8d0a0e5c4f27ead9083c756cc273ffffffffffffffffffffffffffffffffffffffff168273ffffffffffffffffffffffffffffffffffffffff161461216f5789612171565b8a5b9350505073c02aaa39b223fe8d0a0e5c4f27ead9083c756cc273ffffffffffffffffffffffffffffffffffffffff16846000815181106121ad57fe5b602002602001015173ffffffffffffffffffffffffffffffffffffffff16148061222a575073c02aaa39b223fe8d0a0e5c4f27ead9083c756cc273ffffffffffffffffffffffffffffffffffffffff168460018151811061220a57fe5b602002602001015173ffffffffffffffffffffffffffffffffffffffff16145b61223057fe5b600073c02aaa39b223fe8d0a0e5c4f27ead9083c756cc273ffffffffffffffffffffffffffffffffffffffff168560008151811061226a57fe5b602002602001015173ffffffffffffffffffffffffffffffffffffffff16146122a7578460008151811061229a57fe5b60200260200101516122bd565b846001815181106122b457fe5b60200260200101515b905060007f000000000000000000000000000000000000000000000000000000000000000073ffffffffffffffffffffffffffffffffffffffff166306f2bf62836040518263ffffffff1660e01b8152600401808273ffffffffffffffffffffffffffffffffffffffff1673ffffffffffffffffffffffffffffffffffffffff16815260200191505060206040518083038186803b15801561235e57600080fd5b505afa158015612372573d6000803e3d6000fd5b505050506040513d602081101561238857600080fd5b8101908080519060200190929190505050905080965050505050505095945050505050565b600080600080858560208110156123c357600080fd5b8101908080359060200190929190505050905088935087925086915095509550955095915050565b60008060006123fa85856129a1565b91509150858282604051602001808373ffffffffffffffffffffffffffffffffffffffff1673ffffffffffffffffffffffffffffffffffffffff1660601b81526014018273ffffffffffffffffffffffffffffffffffffffff1673ffffffffffffffffffffffffffffffffffffffff1660601b8152601401925050506040516020818303038152906040528051906020012060405160200180807fff000000000000000000000000000000000000000000000000000000000000008152506001018373ffffffffffffffffffffffffffffffffffffffff1673ffffffffffffffffffffffffffffffffffffffff1660601b8152601401828152602001807f96e8ac4277198ff8b6f785478aa9a39f403cb768dd02cbee326c3e7da348845f815250602001925050506040516020818303038152906040528051906020012060001c925050509392505050565b60008060006125558585612b18565b91509150858282604051602001808373ffffffffffffffffffffffffffffffffffffffff1673ffffffffffffffffffffffffffffffffffffffff1660601b81526014018273ffffffffffffffffffffffffffffffffffffffff1673ffffffffffffffffffffffffffffffffffffffff1660601b8152601401925050506040516020818303038152906040528051906020012060405160200180807fff000000000000000000000000000000000000000000000000000000000000008152506001018373ffffffffffffffffffffffffffffffffffffffff1673ffffffffffffffffffffffffffffffffffffffff1660601b8152601401828152602001807fe18a34eb0e04b04f7a0ac29a6e80748dca96319b42c54d679cb821dca90c6303815250602001925050506040516020818303038152906040528051906020012060001c925050509392505050565b606060028251101561271b576040517f08c379a00000000000000000000000000000000000000000000000000000000081526004018080602001828103825260208152602001807f53757368697377617056324c6962726172793a20494e56414c49445f5041544881525060200191505060405180910390fd5b815167ffffffffffffffff8111801561273357600080fd5b506040519080825280602002602001820160405280156127625781602001602082028036833780820191505090505b509050828160018351038151811061277657fe5b6020026020010181815250506000600183510390505b6000811115612819576000806127cc878660018603815181106127ab57fe5b60200260200101518786815181106127bf57fe5b6020026020010151612c8f565b915091506127ee8484815181106127df57fe5b60200260200101518383612db8565b8460018503815181106127fd57fe5b602002602001018181525050505080806001900391505061278c565b509392505050565b606060028251101561289b576040517f08c379a000000000000000000000000000000000000000000000000000000000815260040180806020018281038252601e8152602001807f556e697377617056324c6962726172793a20494e56414c49445f50415448000081525060200191505060405180910390fd5b815167ffffffffffffffff811180156128b357600080fd5b506040519080825280602002602001820160405280156128e25781602001602082028036833780820191505090505b50905082816001835103815181106128f657fe5b6020026020010181815250506000600183510390505b60008111156129995760008061294c8786600186038151811061292b57fe5b602002602001015187868151811061293f57fe5b6020026020010151612ef5565b9150915061296e84848151811061295f57fe5b6020026020010151838361301e565b84600185038151811061297d57fe5b602002602001018181525050505080806001900391505061290c565b509392505050565b6000808273ffffffffffffffffffffffffffffffffffffffff168473ffffffffffffffffffffffffffffffffffffffff161415612a29576040517f08c379a00000000000000000000000000000000000000000000000000000000081526004018080602001828103825260258152602001806133986025913960400191505060405180910390fd5b8273ffffffffffffffffffffffffffffffffffffffff168473ffffffffffffffffffffffffffffffffffffffff1610612a63578284612a66565b83835b8092508193505050600073ffffffffffffffffffffffffffffffffffffffff168273ffffffffffffffffffffffffffffffffffffffff161415612b11576040517f08c379a000000000000000000000000000000000000000000000000000000000815260040180806020018281038252601e8152602001807f556e697377617056324c6962726172793a205a45524f5f41444452455353000081525060200191505060405180910390fd5b9250929050565b6000808273ffffffffffffffffffffffffffffffffffffffff168473ffffffffffffffffffffffffffffffffffffffff161415612ba0576040517f08c379a00000000000000000000000000000000000000000000000000000000081526004018080602001828103825260278152602001806133176027913960400191505060405180910390fd5b8273ffffffffffffffffffffffffffffffffffffffff168473ffffffffffffffffffffffffffffffffffffffff1610612bda578284612bdd565b83835b8092508193505050600073ffffffffffffffffffffffffffffffffffffffff168273ffffffffffffffffffffffffffffffffffffffff161415612c88576040517f08c379a00000000000000000000000000000000000000000000000000000000081526004018080602001828103825260208152602001807f53757368697377617056324c6962726172793a205a45524f5f4144445245535381525060200191505060405180910390fd5b9250929050565b6000806000612c9e8585612b18565b509050600080612caf888888612546565b73ffffffffffffffffffffffffffffffffffffffff16630902f1ac6040518163ffffffff1660e01b815260040160606040518083038186803b158015612cf457600080fd5b505afa158015612d08573d6000803e3d6000fd5b505050506040513d6060811015612d1e57600080fd5b81019080805190602001909291908051906020019092919080519060200190929190505050506dffffffffffffffffffffffffffff1691506dffffffffffffffffffffffffffff1691508273ffffffffffffffffffffffffffffffffffffffff168773ffffffffffffffffffffffffffffffffffffffff1614612da2578082612da5565b81815b8095508196505050505050935093915050565b6000808411612e12576040517f08c379a000000000000000000000000000000000000000000000000000000000815260040180806020018281038252602e81526020018061333e602e913960400191505060405180910390fd5b600083118015612e225750600082115b612e77576040517f08c379a000000000000000000000000000000000000000000000000000000000815260040180806020018281038252602a8152602001806132ed602a913960400191505060405180910390fd5b6000612ea06103e8612e92878761315b90919063ffffffff16565b61315b90919063ffffffff16565b90506000612ecb6103e5612ebd88876131e190919063ffffffff16565b61315b90919063ffffffff16565b9050612eea6001828481612edb57fe5b0461326490919063ffffffff16565b925050509392505050565b6000806000612f0485856129a1565b509050600080612f158888886123eb565b73ffffffffffffffffffffffffffffffffffffffff16630902f1ac6040518163ffffffff1660e01b815260040160606040518083038186803b158015612f5a57600080fd5b505afa158015612f6e573d6000803e3d6000fd5b505050506040513d6060811015612f8457600080fd5b81019080805190602001909291908051906020019092919080519060200190929190505050506dffffffffffffffffffffffffffff1691506dffffffffffffffffffffffffffff1691508273ffffffffffffffffffffffffffffffffffffffff168773ffffffffffffffffffffffffffffffffffffffff161461300857808261300b565b81815b8095508196505050505050935093915050565b6000808411613078576040517f08c379a000000000000000000000000000000000000000000000000000000000815260040180806020018281038252602c81526020018061336c602c913960400191505060405180910390fd5b6000831180156130885750600082115b6130dd576040517f08c379a00000000000000000000000000000000000000000000000000000000081526004018080602001828103825260288152602001806133bd6028913960400191505060405180910390fd5b60006131066103e86130f8878761315b90919063ffffffff16565b61315b90919063ffffffff16565b905060006131316103e561312388876131e190919063ffffffff16565b61315b90919063ffffffff16565b9050613150600182848161314157fe5b0461326490919063ffffffff16565b925050509392505050565b60008083141561316e57600090506131db565b600082840290508284828161317f57fe5b04146131d6576040517f08c379a00000000000000000000000000000000000000000000000000000000081526004018080602001828103825260218152602001806133e56021913960400191505060405180910390fd5b809150505b92915050565b600082821115613259576040517f08c379a000000000000000000000000000000000000000000000000000000000815260040180806020018281038252601e8152602001807f536166654d6174683a207375627472616374696f6e206f766572666c6f77000081525060200191505060405180910390fd5b818303905092915050565b6000808284019050838110156132e2576040517f08c379a000000000000000000000000000000000000000000000000000000000815260040180806020018281038252601b8152602001807f536166654d6174683a206164646974696f6e206f766572666c6f77000000000081525060200191505060405180910390fd5b809150509291505056fe53757368697377617056324c6962726172793a20494e53554646494349454e545f4c495155494449545953757368697377617056324c6962726172793a204944454e544943414c5f41444452455353455353757368697377617056324c6962726172793a20494e53554646494349454e545f4f55545055545f414d4f554e54556e697377617056324c6962726172793a20494e53554646494349454e545f4f55545055545f414d4f554e54556e697377617056324c6962726172793a204944454e544943414c5f414444524553534553556e697377617056324c6962726172793a20494e53554646494349454e545f4c4951554944495459536166654d6174683a206d756c7469706c69636174696f6e206f766572666c6f77a2646970667358221220738319a15ae7b555675e0bd1fdc145c2149dd1f6a9877179aaa1f3864258ddee64736f6c63430006060033",
  "immutableReferences": {
    "2334": [
      {
        "length": 32,
        "start": 2607
      },
      {
        "length": 32,
        "start": 6829
      },
      {
        "length": 32,
        "start": 8899
      }
    ],
    "2336": [
      {
        "length": 32,
        "start": 1507
      },
      {
        "length": 32,
        "start": 3305
      },
      {
        "length": 32,
        "start": 4175
      },
      {
        "length": 32,
        "start": 5729
      },
      {
        "length": 32,
        "start": 7281
      },
      {
        "length": 32,
        "start": 7799
      }
    ],
    "2338": [
      {
        "length": 32,
        "start": 1715
      },
      {
        "length": 32,
        "start": 3237
      },
      {
        "length": 32,
        "start": 4107
      },
      {
        "length": 32,
        "start": 5937
      },
      {
        "length": 32,
        "start": 7213
      },
      {
        "length": 32,
        "start": 8007
      }
    ]
  },
  "source": "pragma solidity =0.6.6;\n\n//import '@uniswap/v2-core/contracts/interfaces/IUniswapV2Callee.sol';\n\n//import '../libraries/UniswapV2Library.sol';\nimport './interfaces/V1NEW/IUniswapV1Factory.sol';\nimport './interfaces/V1NEW/IUniswapV1Exchange.sol';\n//import '../interfaces/IUniswapV2Router01.sol';\n//import '../interfaces/IERC20.sol';\nimport './interfaces/IWETH.sol';\n\nimport './UniswapV2Library.sol';\nimport './SushiswapV2Library.sol';\nimport './interfaces/IUniswapV2Router02.sol';\nimport './interfaces/IUniswapV2Pair.sol';\nimport './interfaces/IERC20.sol';\n\ncontract FlashSwapV1V2Debug {\n    IUniswapV1Factory immutable factoryV1;\n    address immutable ufactory;\n    address immutable sfactory;\n    IWETH public constant WETH = IWETH(0xC02aaA39b223FE8D0A0e5C4F27eAD9083C756Cc2);\n\n    constructor(address _ufactory, address _sfactory, address _factoryV1) public {\n        factoryV1 = IUniswapV1Factory(_factoryV1);\n        ufactory = _ufactory;\n        sfactory = _sfactory;\n    }\n\n    // needs to accept ETH from any V1 exchange and WETH. ideally this could be enforced, as in the router,\n    // but it's not possible because it requires a call to the v1 factory, which takes too much gas\n    receive() external payable {}\n\n    // gets tokens/WETH via a V2 flash swap, swaps for the ETH/tokens on V1, repays V2, and keeps the rest!\n    function uniswapV2Call(address sender, uint amount0, uint amount1, bytes calldata data) external {\n        address[] memory path = new address[](2);\n        uint amountToken;\n        uint amountETH;\n        (uint flag) = abi.decode(data, (uint));\n\n        //address factory = flag == 0 ? ufactory : sfactory;\n\n        { // scope for token{0,1}, avoids stack too deep errors\n        address token0 = IUniswapV2Pair(msg.sender).token0();\n        address token1 = IUniswapV2Pair(msg.sender).token1();\n        if(flag == 11){\n            require(msg.sender == UniswapV2Library.pairFor(ufactory, token0, token1), \"Unauthorized From Uniswap\"); // ensure that msg.sender is actually a V2 pair\n        } else {\n            require(msg.sender == SushiswapV2Library.pairFor(sfactory, token0, token1), \"Unauthorized From Sushiswap\"); // ensure that msg.sender is actually a V2 pair\n        }\n        \n        assert(amount0 == 0 || amount1 == 0); // this strategy is unidirectional\n        path[0] = amount0 == 0 ? token0 : token1;\n        path[1] = amount0 == 0 ? token1 : token0;\n        amountToken = token0 == address(WETH) ? amount1 : amount0;\n        amountETH = token0 == address(WETH) ? amount0 : amount1;\n        }\n\n        assert(path[0] == address(WETH) || path[1] == address(WETH)); // this strategy only works with a V2 WETH pair\n        IERC20 token = IERC20(path[0] == address(WETH) ? path[1] : path[0]);\n        IUniswapV1Exchange exchangeV1 = IUniswapV1Exchange(factoryV1.getExchange(address(token))); // get V1 exchange\n\n        if (amountToken > 0) {\n            //(uint minETH) = abi.decode(data, (uint)); // slippage parameter for V1, passed in by caller\n            token.approve(address(exchangeV1), amountToken);\n            uint amountReceived = exchangeV1.tokenToEthSwapInput(amountToken, 1, uint(-1));\n            uint amountRequired = flag == 11 ? UniswapV2Library.getAmountsIn(ufactory, amountToken, path)[0] : SushiswapV2Library.getAmountsIn(sfactory, amountToken, path)[0];\n            require(amountReceived > amountRequired, \"NO Profit\"); // fail if we didn't get enough ETH back to repay our flash loan\n            WETH.deposit{value: amountRequired}();\n            //WETH.deposit{value: amountReceived}();\n            WETH.transfer(msg.sender, amountRequired); // return WETH to V2 pair\n            (bool success,) = sender.call{value: amountReceived - amountRequired}(new bytes(0)); // keep the rest! (ETH)\n            assert(success);\n            //WETH.transfer(sender, amountReceived - amountRequired); // return WETH profit to sender \n        } else {\n            //(uint minTokens) = abi.decode(data, (uint)); // slippage parameter for V1, passed in by caller\n            //WETH.withdraw(amountETH);\n            //uint amountReceived = exchangeV1.ethToTokenSwapInput{value: amountETH}(minTokens, uint(-1));\n            //uint amountRequired = UniswapV2Library.getAmountsIn(factory, amountETH, path)[0];\n            uint amountRequired = flag == 11 ? UniswapV2Library.getAmountsIn(ufactory, amountETH, path)[0] : SushiswapV2Library.getAmountsIn(sfactory, amountETH, path)[0];\n            uint256 token_reserve = token.balanceOf(address(exchangeV1));\n            //uint256 tokens_sold = getOutputPrice(eth_bought, token_reserve, address(this).balance);\n            //uint valueEth = exchangeV1.getOutputPrice(amountRequired, address(exchangeV1).balance, token_reserve);\n            uint valueEth = exchangeV1.getEthToTokenOutputPrice(amountRequired);\n            WETH.withdraw(valueEth);\n            exchangeV1.ethToTokenSwapInput{value: valueEth}(amountRequired, uint(-1));\n\n            assert(amountETH > valueEth); // fail if we didn't get enough tokens back to repay our flash loan\n            assert(token.transfer(msg.sender, amountRequired)); // return tokens to V2 pair\n            assert(WETH.transfer(sender, amountETH - valueEth)); // keep the rest! (tokens)\n        }\n    }\n\n\n\n    // gets tokens/WETH via a V2 flash swap, swaps for the ETH/tokens on V1, repays V2, and keeps the rest!\n    function getflag(address sender, uint amount0, uint amount1, bytes calldata data) external pure returns (address s, uint a0, uint a1, uint re) {\n        (re) = abi.decode(data, (uint));\n        s = sender;\n        a0 = amount0;\n        a1 = amount1; \n    }\n\n\n    // gets tokens/WETH via a V2 flash swap, swaps for the ETH/tokens on V1, repays V2, and keeps the rest!\n    function getex(address sender, uint amount0, uint amount1, bytes calldata data) external view returns (address re){\n        address[] memory path = new address[](2);\n        uint amountToken;\n        uint amountETH;\n        (uint flag) = abi.decode(data, (uint));\n\n        //address factory = flag == 0 ? ufactory : sfactory;\n\n        { // scope for token{0,1}, avoids stack too deep errors\n        address token0 = IUniswapV2Pair(sender).token0();\n        address token1 = IUniswapV2Pair(sender).token1();\n        if(flag == 11){\n            require(sender == UniswapV2Library.pairFor(ufactory, token0, token1), \"Unauthorized From Uniswap\"); // ensure that msg.sender is actually a V2 pair\n        } else {\n            require(sender == SushiswapV2Library.pairFor(sfactory, token0, token1), \"Unauthorized From Sushiswap\"); // ensure that msg.sender is actually a V2 pair\n        }\n        \n        assert(amount0 == 0 || amount1 == 0); // this strategy is unidirectional\n        path[0] = amount0 == 0 ? token0 : token1;\n        path[1] = amount0 == 0 ? token1 : token0;\n        amountToken = token0 == address(WETH) ? amount1 : amount0;\n        amountETH = token0 == address(WETH) ? amount0 : amount1;\n        }\n\n        assert(path[0] == address(WETH) || path[1] == address(WETH)); // this strategy only works with a V2 WETH pair\n        IERC20 token = IERC20(path[0] == address(WETH) ? path[1] : path[0]);\n        IUniswapV1Exchange exchangeV1 = IUniswapV1Exchange(factoryV1.getExchange(address(token))); // get V1 exchange\n        re = address(exchangeV1); \n    }\n\n    // gets tokens/WETH via a V2 flash swap, swaps for the ETH/tokens on V1, repays V2, and keeps the rest!\n    function getprofit(address sender, uint amount0, uint amount1, bytes calldata data) external view returns (uint ge, uint re, uint p, uint m1){\n        address[] memory path = new address[](2);\n        uint amountToken;\n        uint amountETH;\n        (uint flag) = abi.decode(data, (uint));\n\n        //address factory = flag == 0 ? ufactory : sfactory;\n\n        { // scope for token{0,1}, avoids stack too deep errors\n        address token0 = IUniswapV2Pair(sender).token0();\n        address token1 = IUniswapV2Pair(sender).token1();\n        if(flag == 11){\n            require(sender == UniswapV2Library.pairFor(ufactory, token0, token1), \"Unauthorized From Uniswap\"); // ensure that msg.sender is actually a V2 pair\n        } else {\n            require(sender == SushiswapV2Library.pairFor(sfactory, token0, token1), \"Unauthorized From Sushiswap\"); // ensure that msg.sender is actually a V2 pair\n        }\n        \n        assert(amount0 == 0 || amount1 == 0); // this strategy is unidirectional\n        path[0] = amount0 == 0 ? token0 : token1;\n        path[1] = amount0 == 0 ? token1 : token0;\n        amountToken = token0 == address(WETH) ? amount1 : amount0;\n        amountETH = token0 == address(WETH) ? amount0 : amount1;\n        }\n\n        assert(path[0] == address(WETH) || path[1] == address(WETH)); // this strategy only works with a V2 WETH pair\n        IERC20 token = IERC20(path[0] == address(WETH) ? path[1] : path[0]);\n        IUniswapV1Exchange exchangeV1 = IUniswapV1Exchange(factoryV1.getExchange(address(token))); // get V1 exchange\n\n        if (amountToken > 0) {\n            //(uint minETH) = abi.decode(data, (uint)); // slippage parameter for V1, passed in by caller\n            //token.approve(address(exchangeV1), amountToken);\n\n            // uint amountReceived = exchangeV1.tokenToEthSwapInput(amountToken, 0, uint(-1));\n            uint amountReceived = exchangeV1.getTokenToEthInputPrice(amountToken);\n            uint amountRequired = flag == 11 ? UniswapV2Library.getAmountsIn(ufactory, amountToken, path)[0] : SushiswapV2Library.getAmountsIn(sfactory, amountToken, path)[0];\n            //token.transfer(msg.sender, amountToken); // return WETH to V2 pair \n            re = amountRequired;\n            ge = amountReceived;\n            p = amountReceived - amountRequired; \n            m1 = amountToken;\n\n            //WETH.transfer(sender, amountReceived - amountRequired); // return WETH profit to sender \n        }\n    }\n\n}\n",
  "sourcePath": "/Users/usr0102794/opengsn/uni-sushi-flashswap/flashloaner-contract/contracts/FlashSwapV1V2Debug.sol",
  "compiler": {
    "name": "solc",
    "version": "0.6.6+commit.6c089d02.Emscripten.clang"
  },
  "schemaVersion": "3.3.3",
  "updatedAt": "2021-03-09T13:15:39.861Z",
  "networkType": "ethereum",
  "devdoc": {
    "methods": {}
  },
  "userdoc": {
    "methods": {}
  }
}